{
  "contractName": "ClientRaindrop",
  "abi": [
    {
      "inputs": [
        {
          "internalType": "address",
          "name": "snowflakeAddress",
          "type": "address"
        },
        {
          "internalType": "address",
          "name": "oldClientRaindropAddress",
          "type": "address"
        },
        {
          "internalType": "uint256",
          "name": "_hydroStakeUser",
          "type": "uint256"
        },
        {
          "internalType": "uint256",
          "name": "_hydroStakeDelegatedUser",
          "type": "uint256"
        }
      ],
      "payable": false,
      "stateMutability": "nonpayable",
      "type": "constructor"
    },
    {
      "anonymous": false,
      "inputs": [
        {
          "indexed": true,
          "internalType": "uint256",
          "name": "ein",
          "type": "uint256"
        },
        {
          "indexed": false,
          "internalType": "string",
          "name": "hydroID",
          "type": "string"
        },
        {
          "indexed": false,
          "internalType": "address",
          "name": "userAddress",
          "type": "address"
        }
      ],
      "name": "HydroIDClaimed",
      "type": "event"
    },
    {
      "anonymous": false,
      "inputs": [
        {
          "indexed": true,
          "internalType": "uint256",
          "name": "ein",
          "type": "uint256"
        },
        {
          "indexed": false,
          "internalType": "string",
          "name": "hydroID",
          "type": "string"
        },
        {
          "indexed": false,
          "internalType": "address",
          "name": "userAddress",
          "type": "address"
        }
      ],
      "name": "HydroIDDestroyed",
      "type": "event"
    },
    {
      "anonymous": false,
      "inputs": [
        {
          "indexed": true,
          "internalType": "address",
          "name": "previousOwner",
          "type": "address"
        },
        {
          "indexed": true,
          "internalType": "address",
          "name": "newOwner",
          "type": "address"
        }
      ],
      "name": "OwnershipTransferred",
      "type": "event"
    },
    {
      "constant": true,
      "inputs": [],
      "name": "callOnAddition",
      "outputs": [
        {
          "internalType": "bool",
          "name": "",
          "type": "bool"
        }
      ],
      "payable": false,
      "stateMutability": "view",
      "type": "function"
    },
    {
      "constant": true,
      "inputs": [],
      "name": "callOnRemoval",
      "outputs": [
        {
          "internalType": "bool",
          "name": "",
          "type": "bool"
        }
      ],
      "payable": false,
      "stateMutability": "view",
      "type": "function"
    },
    {
      "constant": true,
      "inputs": [],
      "name": "hydroStakeDelegatedUser",
      "outputs": [
        {
          "internalType": "uint256",
          "name": "",
          "type": "uint256"
        }
      ],
      "payable": false,
      "stateMutability": "view",
      "type": "function"
    },
    {
      "constant": true,
      "inputs": [],
      "name": "hydroStakeUser",
      "outputs": [
        {
          "internalType": "uint256",
          "name": "",
          "type": "uint256"
        }
      ],
      "payable": false,
      "stateMutability": "view",
      "type": "function"
    },
    {
      "constant": true,
      "inputs": [],
      "name": "isOwner",
      "outputs": [
        {
          "internalType": "bool",
          "name": "",
          "type": "bool"
        }
      ],
      "payable": false,
      "stateMutability": "view",
      "type": "function"
    },
    {
      "constant": true,
      "inputs": [],
      "name": "owner",
      "outputs": [
        {
          "internalType": "address",
          "name": "",
          "type": "address"
        }
      ],
      "payable": false,
      "stateMutability": "view",
      "type": "function"
    },
    {
      "constant": false,
      "inputs": [],
      "name": "renounceOwnership",
      "outputs": [],
      "payable": false,
      "stateMutability": "nonpayable",
      "type": "function"
    },
    {
      "constant": true,
      "inputs": [],
      "name": "snowflakeAddress",
      "outputs": [
        {
          "internalType": "address",
          "name": "",
          "type": "address"
        }
      ],
      "payable": false,
      "stateMutability": "view",
      "type": "function"
    },
    {
      "constant": true,
      "inputs": [],
      "name": "snowflakeDescription",
      "outputs": [
        {
          "internalType": "string",
          "name": "",
          "type": "string"
        }
      ],
      "payable": false,
      "stateMutability": "view",
      "type": "function"
    },
    {
      "constant": true,
      "inputs": [],
      "name": "snowflakeName",
      "outputs": [
        {
          "internalType": "string",
          "name": "",
          "type": "string"
        }
      ],
      "payable": false,
      "stateMutability": "view",
      "type": "function"
    },
    {
      "constant": false,
      "inputs": [
        {
          "internalType": "address",
          "name": "newOwner",
          "type": "address"
        }
      ],
      "name": "transferOwnership",
      "outputs": [],
      "payable": false,
      "stateMutability": "nonpayable",
      "type": "function"
    },
    {
      "constant": false,
      "inputs": [
        {
          "internalType": "address",
          "name": "snowflakeAddress",
          "type": "address"
        }
      ],
      "name": "setSnowflakeAddress",
      "outputs": [],
      "payable": false,
      "stateMutability": "nonpayable",
      "type": "function"
    },
    {
      "constant": false,
      "inputs": [
        {
          "internalType": "address",
          "name": "oldClientRaindropAddress",
          "type": "address"
        }
      ],
      "name": "setOldClientRaindropAddress",
      "outputs": [],
      "payable": false,
      "stateMutability": "nonpayable",
      "type": "function"
    },
    {
      "constant": false,
      "inputs": [
        {
          "internalType": "uint256",
          "name": "_hydroStakeUser",
          "type": "uint256"
        },
        {
          "internalType": "uint256",
          "name": "_hydroStakeDelegatedUser",
          "type": "uint256"
        }
      ],
      "name": "setStakes",
      "outputs": [],
      "payable": false,
      "stateMutability": "nonpayable",
      "type": "function"
    },
    {
      "constant": false,
      "inputs": [
        {
          "internalType": "address",
          "name": "_address",
          "type": "address"
        },
        {
          "internalType": "string",
          "name": "casedHydroId",
          "type": "string"
        }
      ],
      "name": "signUp",
      "outputs": [],
      "payable": false,
      "stateMutability": "nonpayable",
      "type": "function"
    },
    {
      "constant": false,
      "inputs": [
        {
          "internalType": "uint256",
          "name": "ein",
          "type": "uint256"
        },
        {
          "internalType": "uint256",
          "name": "",
          "type": "uint256"
        },
        {
          "internalType": "bytes",
          "name": "extraData",
          "type": "bytes"
        }
      ],
      "name": "onAddition",
      "outputs": [
        {
          "internalType": "bool",
          "name": "",
          "type": "bool"
        }
      ],
      "payable": false,
      "stateMutability": "nonpayable",
      "type": "function"
    },
    {
      "constant": true,
      "inputs": [
        {
          "internalType": "string",
          "name": "casedHydroID",
          "type": "string"
        },
        {
          "internalType": "address",
          "name": "_address",
          "type": "address"
        }
      ],
      "name": "checkForOldHydroID",
      "outputs": [],
      "payable": false,
      "stateMutability": "view",
      "type": "function"
    },
    {
      "constant": false,
      "inputs": [
        {
          "internalType": "uint256",
          "name": "ein",
          "type": "uint256"
        },
        {
          "internalType": "bytes",
          "name": "",
          "type": "bytes"
        }
      ],
      "name": "onRemoval",
      "outputs": [
        {
          "internalType": "bool",
          "name": "",
          "type": "bool"
        }
      ],
      "payable": false,
      "stateMutability": "nonpayable",
      "type": "function"
    },
    {
      "constant": true,
      "inputs": [
        {
          "internalType": "string",
          "name": "uncasedHydroID",
          "type": "string"
        }
      ],
      "name": "hydroIDAvailable",
      "outputs": [
        {
          "internalType": "bool",
          "name": "available",
          "type": "bool"
        }
      ],
      "payable": false,
      "stateMutability": "view",
      "type": "function"
    },
    {
      "constant": true,
      "inputs": [
        {
          "internalType": "string",
          "name": "uncasedHydroID",
          "type": "string"
        }
      ],
      "name": "hydroIDDestroyed",
      "outputs": [
        {
          "internalType": "bool",
          "name": "destroyed",
          "type": "bool"
        }
      ],
      "payable": false,
      "stateMutability": "view",
      "type": "function"
    },
    {
      "constant": true,
      "inputs": [
        {
          "internalType": "string",
          "name": "uncasedHydroID",
          "type": "string"
        }
      ],
      "name": "hydroIDActive",
      "outputs": [
        {
          "internalType": "bool",
          "name": "active",
          "type": "bool"
        }
      ],
      "payable": false,
      "stateMutability": "view",
      "type": "function"
    },
    {
      "constant": true,
      "inputs": [
        {
          "internalType": "string",
          "name": "uncasedHydroID",
          "type": "string"
        }
      ],
      "name": "getDetails",
      "outputs": [
        {
          "internalType": "uint256",
          "name": "ein",
          "type": "uint256"
        },
        {
          "internalType": "address",
          "name": "_address",
          "type": "address"
        },
        {
          "internalType": "string",
          "name": "casedHydroID",
          "type": "string"
        }
      ],
      "payable": false,
      "stateMutability": "view",
      "type": "function"
    },
    {
      "constant": true,
      "inputs": [
        {
          "internalType": "address",
          "name": "_address",
          "type": "address"
        }
      ],
      "name": "getDetails",
      "outputs": [
        {
          "internalType": "uint256",
          "name": "ein",
          "type": "uint256"
        },
        {
          "internalType": "string",
          "name": "casedHydroID",
          "type": "string"
        }
      ],
      "payable": false,
      "stateMutability": "view",
      "type": "function"
    },
    {
      "constant": true,
      "inputs": [
        {
          "internalType": "uint256",
          "name": "ein",
          "type": "uint256"
        }
      ],
      "name": "getDetails",
      "outputs": [
        {
          "internalType": "address",
          "name": "_address",
          "type": "address"
        },
        {
          "internalType": "string",
          "name": "casedHydroID",
          "type": "string"
        }
      ],
      "payable": false,
      "stateMutability": "view",
      "type": "function"
    }
  ],
  "bytecode": "0x60806040526001600360146101000a81548160ff0219169083151502179055503480156200002c57600080fd5b5060405162003c9238038062003c92833981810160405260808110156200005257600080fd5b81019080805190602001909291908051906020019092919080519060200190929190805190602001909291905050506040518060400160405280600f81526020017f436c69656e74205261696e64726f70000000000000000000000000000000000081525060405180608001604052806044815260200162003c4e6044913985600180336000806101000a81548173ffffffffffffffffffffffffffffffffffffffff021916908373ffffffffffffffffffffffffffffffffffffffff1602179055506000809054906101000a900473ffffffffffffffffffffffffffffffffffffffff1673ffffffffffffffffffffffffffffffffffffffff16600073ffffffffffffffffffffffffffffffffffffffff167f8be0079c531659141344cd1fd0a4f28419497f9722a3daafe3b4186f6b6457e060405160405180910390a38460019080519060200190620001a9929190620006f7565b508360029080519060200190620001c2929190620006f7565b50620001d4836200024b60201b60201c565b81600360146101000a81548160ff02191690831515021790555080600360156101000a81548160ff02191690831515021790555050505050506200021e846200024b60201b60201c565b6200022f836200041060201b60201c565b6200024182826200046e60201b60201c565b50505050620007a6565b6200025b6200064260201b60201c565b6200026557600080fd5b6200027b816200069960201b62002f081760201c565b60008190508073ffffffffffffffffffffffffffffffffffffffff166375d7e4bd6040518163ffffffff1660e01b8152600401602060405180830381600087803b158015620002c957600080fd5b505af1158015620002de573d6000803e3d6000fd5b505050506040513d6020811015620002f557600080fd5b8101908080519060200190929190505050600460006101000a81548173ffffffffffffffffffffffffffffffffffffffff021916908373ffffffffffffffffffffffffffffffffffffffff1602179055508073ffffffffffffffffffffffffffffffffffffffff1663a759ee6f6040518163ffffffff1660e01b8152600401602060405180830381600087803b1580156200038f57600080fd5b505af1158015620003a4573d6000803e3d6000fd5b505050506040513d6020811015620003bb57600080fd5b8101908080519060200190929190505050600560006101000a81548173ffffffffffffffffffffffffffffffffffffffff021916908373ffffffffffffffffffffffffffffffffffffffff1602179055505050565b620004206200064260201b60201c565b6200042a57600080fd5b80600660006101000a81548173ffffffffffffffffffffffffffffffffffffffff021916908373ffffffffffffffffffffffffffffffffffffffff16021790555050565b6200047e6200064260201b60201c565b6200048857600080fd5b692f0eadc321623778000082111562000509576040517f08c379a00000000000000000000000000000000000000000000000000000000081526004018080602001828103825260128152602001807f5374616b6520697320746f6f20686967682e000000000000000000000000000081525060200191505060405180910390fd5b806007819055506064600460009054906101000a900473ffffffffffffffffffffffffffffffffffffffff1673ffffffffffffffffffffffffffffffffffffffff166318160ddd6040518163ffffffff1660e01b815260040160206040518083038186803b1580156200057b57600080fd5b505afa15801562000590573d6000803e3d6000fd5b505050506040513d6020811015620005a757600080fd5b810190808051906020019092919050505081620005c057fe5b0481111562000637576040517f08c379a00000000000000000000000000000000000000000000000000000000081526004018080602001828103825260128152602001807f5374616b6520697320746f6f20686967682e000000000000000000000000000081525060200191505060405180910390fd5b806008819055505050565b60008060009054906101000a900473ffffffffffffffffffffffffffffffffffffffff1673ffffffffffffffffffffffffffffffffffffffff163373ffffffffffffffffffffffffffffffffffffffff1614905090565b620006a96200064260201b60201c565b620006b357600080fd5b80600360006101000a81548173ffffffffffffffffffffffffffffffffffffffff021916908373ffffffffffffffffffffffffffffffffffffffff16021790555050565b828054600181600116156101000203166002900490600052602060002090601f016020900481019282601f106200073a57805160ff19168380011785556200076b565b828001600101855582156200076b579182015b828111156200076a5782518255916020019190600101906200074d565b5b5090506200077a91906200077e565b5090565b620007a391905b808211156200079f57600081600090555060010162000785565b5090565b90565b61349880620007b66000396000f3fe608060405234801561001057600080fd5b50600436106101585760003560e01c806390bfaf40116100c3578063b93a89f71161007c578063b93a89f714610aef578063bb3f9cdd14610bc9578063c979b05a14610c01578063e2a3b18b14610c45578063f2fde38b14610d18578063f9f451b814610d5c57610158565b806390bfaf40146105cf5780639182621a146106b6578063996df2ad14610793578063a76c74b21461086e578063aad9afbb14610941578063b531ff1214610a1457610158565b806376acf1b61161011557806376acf1b6146103f75780637c9348261461047a57806388cdab94146104be5780638da5cb5b146105415780638f06492d1461058b5780638f32d59b146105ad57610158565b80631328fd8f1461015d57806330289c61146102cb57806333a9711d1461038f57806352b7493b146103ad578063715018a6146103cb57806371790251146103d5575b600080fd5b6102166004803603602081101561017357600080fd5b810190808035906020019064010000000081111561019057600080fd5b8201836020820111156101a257600080fd5b803590602001918460018302840111640100000000831117156101c457600080fd5b91908080601f016020809104026020016040519081016040528093929190818152602001838380828437600081840152601f19601f820116905080830192505050505050509192919290505050610da6565b604051808481526020018373ffffffffffffffffffffffffffffffffffffffff1673ffffffffffffffffffffffffffffffffffffffff16815260200180602001828103825283818151815260200191508051906020019080838360005b8381101561028e578082015181840152602081019050610273565b50505050905090810190601f1680156102bb5780820380516001836020036101000a031916815260200191505b5094505050505060405180910390f35b61030d600480360360208110156102e157600080fd5b81019080803573ffffffffffffffffffffffffffffffffffffffff169060200190929190505050610f09565b6040518083815260200180602001828103825283818151815260200191508051906020019080838360005b83811015610353578082015181840152602081019050610338565b50505050905090810190601f1680156103805780820380516001836020036101000a031916815260200191505b50935050505060405180910390f35b610397611008565b6040518082815260200191505060405180910390f35b6103b561100e565b6040518082815260200191505060405180910390f35b6103d3611014565b005b6103dd6110e4565b604051808215151515815260200191505060405180910390f35b6103ff6110f7565b6040518080602001828103825283818151815260200191508051906020019080838360005b8381101561043f578082015181840152602081019050610424565b50505050905090810190601f16801561046c5780820380516001836020036101000a031916815260200191505b509250505060405180910390f35b6104bc6004803603602081101561049057600080fd5b81019080803573ffffffffffffffffffffffffffffffffffffffff169060200190929190505050611195565b005b6104c66111ea565b6040518080602001828103825283818151815260200191508051906020019080838360005b838110156105065780820151818401526020810190506104eb565b50505050905090810190601f1680156105335780820380516001836020036101000a031916815260200191505b509250505060405180910390f35b610549611288565b604051808273ffffffffffffffffffffffffffffffffffffffff1673ffffffffffffffffffffffffffffffffffffffff16815260200191505060405180910390f35b6105936112b1565b604051808215151515815260200191505060405180910390f35b6105b56112c4565b604051808215151515815260200191505060405180910390f35b61069c600480360360608110156105e557600080fd5b8101908080359060200190929190803590602001909291908035906020019064010000000081111561061657600080fd5b82018360208201111561062857600080fd5b8035906020019184600183028401116401000000008311171561064a57600080fd5b91908080601f016020809104026020016040519081016040528093929190818152602001838380828437600081840152601f19601f82011690508083019250505050505050919291929050505061131b565b604051808215151515815260200191505060405180910390f35b610779600480360360408110156106cc57600080fd5b8101908080359060200190929190803590602001906401000000008111156106f357600080fd5b82018360208201111561070557600080fd5b8035906020019184600183028401116401000000008311171561072757600080fd5b91908080601f016020809104026020016040519081016040528093929190818152602001838380828437600081840152601f19601f82011690508083019250505050505050919291929050505061172c565b604051808215151515815260200191505060405180910390f35b61086c600480360360408110156107a957600080fd5b81019080803590602001906401000000008111156107c657600080fd5b8201836020820111156107d857600080fd5b803590602001918460018302840111640100000000831117156107fa57600080fd5b91908080601f016020809104026020016040519081016040528093929190818152602001838380828437600081840152601f19601f820116905080830192505050505050509192919290803573ffffffffffffffffffffffffffffffffffffffff169060200190929190505050611a59565b005b6109276004803603602081101561088457600080fd5b81019080803590602001906401000000008111156108a157600080fd5b8201836020820111156108b357600080fd5b803590602001918460018302840111640100000000831117156108d557600080fd5b91908080601f016020809104026020016040519081016040528093929190818152602001838380828437600081840152601f19601f820116905080830192505050505050509192919290505050611de4565b604051808215151515815260200191505060405180910390f35b6109fa6004803603602081101561095757600080fd5b810190808035906020019064010000000081111561097457600080fd5b82018360208201111561098657600080fd5b803590602001918460018302840111640100000000831117156109a857600080fd5b91908080601f016020809104026020016040519081016040528093929190818152602001838380828437600081840152601f19601f820116905080830192505050505050509192919290505050611e6f565b604051808215151515815260200191505060405180910390f35b610aed60048036036040811015610a2a57600080fd5b81019080803573ffffffffffffffffffffffffffffffffffffffff16906020019092919080359060200190640100000000811115610a6757600080fd5b820183602082011115610a7957600080fd5b80359060200191846001830284011164010000000083111715610a9b57600080fd5b91908080601f016020809104026020016040519081016040528093929190818152602001838380828437600081840152601f19601f820116905080830192505050505050509192919290505050611efa565b005b610b1b60048036036020811015610b0557600080fd5b810190808035906020019092919050505061211a565b604051808373ffffffffffffffffffffffffffffffffffffffff1673ffffffffffffffffffffffffffffffffffffffff16815260200180602001828103825283818151815260200191508051906020019080838360005b83811015610b8d578082015181840152602081019050610b72565b50505050905090810190601f168015610bba5780820380516001836020036101000a031916815260200191505b50935050505060405180910390f35b610bff60048036036040811015610bdf57600080fd5b81019080803590602001909291908035906020019092919050505061220d565b005b610c4360048036036020811015610c1757600080fd5b81019080803573ffffffffffffffffffffffffffffffffffffffff1690602001909291905050506123d2565b005b610cfe60048036036020811015610c5b57600080fd5b8101908080359060200190640100000000811115610c7857600080fd5b820183602082011115610c8a57600080fd5b80359060200191846001830284011164010000000083111715610cac57600080fd5b91908080601f016020809104026020016040519081016040528093929190818152602001838380828437600081840152601f19601f82011690508083019250505050505050919291929050505061257b565b604051808215151515815260200191505060405180910390f35b610d5a60048036036020811015610d2e57600080fd5b81019080803573ffffffffffffffffffffffffffffffffffffffff169060200190929190505050612606565b005b610d64612623565b604051808273ffffffffffffffffffffffffffffffffffffffff1673ffffffffffffffffffffffffffffffffffffffff16815260200191505060405180910390f35b60008060606000610e2f610db986612649565b6040516020018082805190602001908083835b60208310610def5780518252602082019150602081019050602083039250610dcc565b6001836020036101000a038019825116818451168082178552505050505050905001915050604051602081830303815290604052805190602001206126cf565b905080600001548160010160009054906101000a900473ffffffffffffffffffffffffffffffffffffffff1682600201808054600181600116156101000203166002900480601f016020809104026020016040519081016040528092919081815260200182805460018160011615610100020316600290048015610ef45780601f10610ec957610100808354040283529160200191610ef4565b820191906000526020600020905b815481529060010190602001808311610ed757829003601f168201915b50505050509050935093509350509193909250565b600060606000610f57600b60008673ffffffffffffffffffffffffffffffffffffffff1673ffffffffffffffffffffffffffffffffffffffff168152602001908152602001600020546126cf565b9050806000015481600201808054600181600116156101000203166002900480601f016020809104026020016040519081016040528092919081815260200182805460018160011615610100020316600290048015610ff75780601f10610fcc57610100808354040283529160200191610ff7565b820191906000526020600020905b815481529060010190602001808311610fda57829003601f168201915b505050505090509250925050915091565b60075481565b60085481565b61101c6112c4565b61102557600080fd5b600073ffffffffffffffffffffffffffffffffffffffff166000809054906101000a900473ffffffffffffffffffffffffffffffffffffffff1673ffffffffffffffffffffffffffffffffffffffff167f8be0079c531659141344cd1fd0a4f28419497f9722a3daafe3b4186f6b6457e060405160405180910390a360008060006101000a81548173ffffffffffffffffffffffffffffffffffffffff021916908373ffffffffffffffffffffffffffffffffffffffff160217905550565b600360149054906101000a900460ff1681565b60028054600181600116156101000203166002900480601f01602080910402602001604051908101604052809291908181526020018280546001816001161561010002031660029004801561118d5780601f106111625761010080835404028352916020019161118d565b820191906000526020600020905b81548152906001019060200180831161117057829003601f168201915b505050505081565b61119d6112c4565b6111a657600080fd5b80600660006101000a81548173ffffffffffffffffffffffffffffffffffffffff021916908373ffffffffffffffffffffffffffffffffffffffff16021790555050565b60018054600181600116156101000203166002900480601f0160208091040260200160405190810160405280929190818152602001828054600181600116156101000203166002900480156112805780601f1061125557610100808354040283529160200191611280565b820191906000526020600020905b81548152906001019060200180831161126357829003601f168201915b505050505081565b60008060009054906101000a900473ffffffffffffffffffffffffffffffffffffffff16905090565b600360159054906101000a900460ff1681565b60008060009054906101000a900473ffffffffffffffffffffffffffffffffffffffff1673ffffffffffffffffffffffffffffffffffffffff163373ffffffffffffffffffffffffffffffffffffffff1614905090565b6000600360009054906101000a900473ffffffffffffffffffffffffffffffffffffffff1673ffffffffffffffffffffffffffffffffffffffff163373ffffffffffffffffffffffffffffffffffffffff16146113c3576040517f08c379a00000000000000000000000000000000000000000000000000000000081526004018080602001828103825260218152602001806133ed6021913960400191505060405180910390fd5b3260085480600460009054906101000a900473ffffffffffffffffffffffffffffffffffffffff1673ffffffffffffffffffffffffffffffffffffffff166370a08231846040518263ffffffff1660e01b8152600401808273ffffffffffffffffffffffffffffffffffffffff1673ffffffffffffffffffffffffffffffffffffffff16815260200191505060206040518083038186803b15801561146757600080fd5b505afa15801561147b573d6000803e3d6000fd5b505050506040513d602081101561149157600080fd5b810190808051906020019092919050505010156114f9576040517f08c379a000000000000000000000000000000000000000000000000000000000815260040180806020018281038252602281526020018061340e6022913960400191505060405180910390fd5b6000606085806020019051604081101561151257600080fd5b81019080805190602001909291908051604051939291908464010000000082111561153c57600080fd5b8382019150602082018581111561155257600080fd5b825186600182028301116401000000008211171561156f57600080fd5b8083526020830192505050908051906020019080838360005b838110156115a3578082015181840152602081019050611588565b50505050905090810190601f1680156115d05780820380516001836020036101000a031916815260200191505b5060405250505091509150600560009054906101000a900473ffffffffffffffffffffffffffffffffffffffff1673ffffffffffffffffffffffffffffffffffffffff166353a9698a89336040518363ffffffff1660e01b8152600401808381526020018273ffffffffffffffffffffffffffffffffffffffff1673ffffffffffffffffffffffffffffffffffffffff1681526020019250505060206040518083038186803b15801561168257600080fd5b505afa158015611696573d6000803e3d6000fd5b505050506040513d60208110156116ac57600080fd5b8101908080519060200190929190505050611712576040517f08c379a000000000000000000000000000000000000000000000000000000000815260040180806020018281038252602f81526020018061330c602f913960400191505060405180910390fd5b61171d888284612766565b60019450505050509392505050565b6000600360009054906101000a900473ffffffffffffffffffffffffffffffffffffffff1673ffffffffffffffffffffffffffffffffffffffff163373ffffffffffffffffffffffffffffffffffffffff16146117d4576040517f08c379a00000000000000000000000000000000000000000000000000000000081526004018080602001828103825260218152602001806133ed6021913960400191505060405180910390fd5b6000600a60008581526020019081526020016000205490506117f581612eb5565b6117fb57fe5b837fdc4955845bee1c570feb327eb524548814e95acb6f1d1e6f60d55eead530339d600960008481526020019081526020016000206002016009600085815260200190815260200160002060010160009054906101000a900473ffffffffffffffffffffffffffffffffffffffff1660405180806020018373ffffffffffffffffffffffffffffffffffffffff1673ffffffffffffffffffffffffffffffffffffffff1681526020018281038252848181546001816001161561010002031660029004815260200191508054600181600116156101000203166002900480156119255780601f106118fa57610100808354040283529160200191611925565b820191906000526020600020905b81548152906001019060200180831161190857829003601f168201915b5050935050505060405180910390a2600b60006009600084815260200190815260200160002060010160009054906101000a900473ffffffffffffffffffffffffffffffffffffffff1673ffffffffffffffffffffffffffffffffffffffff1673ffffffffffffffffffffffffffffffffffffffff16815260200190815260200160002060009055600a6000858152602001908152602001600020600090556009600082815260200190815260200160002060020160006119e69190613204565b6009600082815260200190815260200160002060010160006101000a81549073ffffffffffffffffffffffffffffffffffffffff021916905560016009600083815260200190815260200160002060030160016101000a81548160ff021916908315150217905550600191505092915050565b6000600660009054906101000a900473ffffffffffffffffffffffffffffffffffffffff1673ffffffffffffffffffffffffffffffffffffffff1663d35e656b846040518263ffffffff1660e01b81526004018080602001828103825283818151815260200191508051906020019080838360005b83811015611ae9578082015181840152602081019050611ace565b50505050905090810190601f168015611b165780820380516001836020036101000a031916815260200191505b509250505060206040518083038186803b158015611b3357600080fd5b505afa158015611b47573d6000803e3d6000fd5b505050506040513d6020811015611b5d57600080fd5b810190808051906020019092919050505090508015611ddf576000600660009054906101000a900473ffffffffffffffffffffffffffffffffffffffff1673ffffffffffffffffffffffffffffffffffffffff16634bff5009856040518263ffffffff1660e01b81526004018080602001828103825283818151815260200191508051906020019080838360005b83811015611c06578082015181840152602081019050611beb565b50505050905090810190601f168015611c335780820380516001836020036101000a031916815260200191505b509250505060006040518083038186803b158015611c5057600080fd5b505afa158015611c64573d6000803e3d6000fd5b505050506040513d6000823e3d601f19601f820116820180604052506040811015611c8e57600080fd5b8101908080516040519392919084640100000000821115611cae57600080fd5b83820191506020820185811115611cc457600080fd5b8251866001820283011164010000000082111715611ce157600080fd5b8083526020830192505050908051906020019080838360005b83811015611d15578082015181840152602081019050611cfa565b50505050905090810190601f168015611d425780820380516001836020036101000a031916815260200191505b50604052602001805190602001909291905050509150508073ffffffffffffffffffffffffffffffffffffffff168373ffffffffffffffffffffffffffffffffffffffff1614611ddd576040517f08c379a00000000000000000000000000000000000000000000000000000000081526004018080602001828103825260348152602001806134306034913960400191505060405180910390fd5b505b505050565b6000611e68611df283612649565b6040516020018082805190602001908083835b60208310611e285780518252602082019150602081019050602083039250611e05565b6001836020036101000a03801982511681845116808217855250505050505090500191505060405160208183030381529060405280519060200120612eb5565b9050919050565b6000611ef3611e7d83612649565b6040516020018082805190602001908083835b60208310611eb35780518252602082019150602081019050602083039250611e90565b6001836020036101000a03801982511681845116808217855250505050505090500191505060405160208183030381529060405280519060200120612eda565b9050919050565b3360075480600460009054906101000a900473ffffffffffffffffffffffffffffffffffffffff1673ffffffffffffffffffffffffffffffffffffffff166370a08231846040518263ffffffff1660e01b8152600401808273ffffffffffffffffffffffffffffffffffffffff1673ffffffffffffffffffffffffffffffffffffffff16815260200191505060206040518083038186803b158015611f9e57600080fd5b505afa158015611fb2573d6000803e3d6000fd5b505050506040513d6020811015611fc857600080fd5b81019080805190602001909291905050501015612030576040517f08c379a000000000000000000000000000000000000000000000000000000000815260040180806020018281038252602281526020018061340e6022913960400191505060405180910390fd5b612114600560009054906101000a900473ffffffffffffffffffffffffffffffffffffffff1673ffffffffffffffffffffffffffffffffffffffff166305c62c2f336040518263ffffffff1660e01b8152600401808273ffffffffffffffffffffffffffffffffffffffff1673ffffffffffffffffffffffffffffffffffffffff16815260200191505060206040518083038186803b1580156120d257600080fd5b505afa1580156120e6573d6000803e3d6000fd5b505050506040513d60208110156120fc57600080fd5b81019080805190602001909291905050508486612766565b50505050565b60006060600061213c600a6000868152602001908152602001600020546126cf565b90508060010160009054906101000a900473ffffffffffffffffffffffffffffffffffffffff1681600201808054600181600116156101000203166002900480601f0160208091040260200160405190810160405280929190818152602001828054600181600116156101000203166002900480156121fc5780601f106121d1576101008083540402835291602001916121fc565b820191906000526020600020905b8154815290600101906020018083116121df57829003601f168201915b505050505090509250925050915091565b6122156112c4565b61221e57600080fd5b692f0eadc321623778000082111561229e576040517f08c379a00000000000000000000000000000000000000000000000000000000081526004018080602001828103825260128152602001807f5374616b6520697320746f6f20686967682e000000000000000000000000000081525060200191505060405180910390fd5b806007819055506064600460009054906101000a900473ffffffffffffffffffffffffffffffffffffffff1673ffffffffffffffffffffffffffffffffffffffff166318160ddd6040518163ffffffff1660e01b815260040160206040518083038186803b15801561230f57600080fd5b505afa158015612323573d6000803e3d6000fd5b505050506040513d602081101561233957600080fd5b81019080805190602001909291905050508161235157fe5b048111156123c7576040517f08c379a00000000000000000000000000000000000000000000000000000000081526004018080602001828103825260128152602001807f5374616b6520697320746f6f20686967682e000000000000000000000000000081525060200191505060405180910390fd5b806008819055505050565b6123da6112c4565b6123e357600080fd5b6123ec81612f08565b60008190508073ffffffffffffffffffffffffffffffffffffffff166375d7e4bd6040518163ffffffff1660e01b8152600401602060405180830381600087803b15801561243957600080fd5b505af115801561244d573d6000803e3d6000fd5b505050506040513d602081101561246357600080fd5b8101908080519060200190929190505050600460006101000a81548173ffffffffffffffffffffffffffffffffffffffff021916908373ffffffffffffffffffffffffffffffffffffffff1602179055508073ffffffffffffffffffffffffffffffffffffffff1663a759ee6f6040518163ffffffff1660e01b8152600401602060405180830381600087803b1580156124fc57600080fd5b505af1158015612510573d6000803e3d6000fd5b505050506040513d602081101561252657600080fd5b8101908080519060200190929190505050600560006101000a81548173ffffffffffffffffffffffffffffffffffffffff021916908373ffffffffffffffffffffffffffffffffffffffff1602179055505050565b60006125ff61258983612649565b6040516020018082805190602001908083835b602083106125bf578051825260208201915060208101905060208303925061259c565b6001836020036101000a03801982511681845116808217855250505050505090500191505060405160208183030381529060405280519060200120612f5d565b9050919050565b61260e6112c4565b61261757600080fd5b61262081612f8a565b50565b600360009054906101000a900473ffffffffffffffffffffffffffffffffffffffff1681565b60608082905060008090505b81518110156126c55761267d82828151811061266d57fe5b602001015160f81c60f81b613082565b82828151811061268957fe5b60200101907effffffffffffffffffffffffffffffffffffffffffffffffffffffffffffff1916908160001a9053508080600101915050612655565b5080915050919050565b60006126da82612eb5565b61274c576040517f08c379a00000000000000000000000000000000000000000000000000000000081526004018080602001828103825260168152602001807f487964726f4944206973206e6f74206163746976652e0000000000000000000081525060200191505060405180910390fd5b600960008381526020019081526020016000209050919050565b60028251118015612778575060218251105b6127ea576040517f08c379a000000000000000000000000000000000000000000000000000000000815260040180806020018281038252601b8152602001807f487964726f49442068617320696e76616c6964206c656e6774682e000000000081525060200191505060405180910390fd5b600560009054906101000a900473ffffffffffffffffffffffffffffffffffffffff1673ffffffffffffffffffffffffffffffffffffffff1663d4b1cdcc84306040518363ffffffff1660e01b8152600401808381526020018273ffffffffffffffffffffffffffffffffffffffff1673ffffffffffffffffffffffffffffffffffffffff1681526020019250505060206040518083038186803b15801561289157600080fd5b505afa1580156128a5573d6000803e3d6000fd5b505050506040513d60208110156128bb57600080fd5b8101908080519060200190929190505050612921576040517f08c379a00000000000000000000000000000000000000000000000000000000081526004018080602001828103825260298152602001806133c46029913960400191505060405180910390fd5b600560009054906101000a900473ffffffffffffffffffffffffffffffffffffffff1673ffffffffffffffffffffffffffffffffffffffff1663a687662d84836040518363ffffffff1660e01b8152600401808381526020018273ffffffffffffffffffffffffffffffffffffffff1673ffffffffffffffffffffffffffffffffffffffff1681526020019250505060206040518083038186803b1580156129c857600080fd5b505afa1580156129dc573d6000803e3d6000fd5b505050506040513d60208110156129f257600080fd5b8101908080519060200190929190505050612a58576040517f08c379a000000000000000000000000000000000000000000000000000000000815260040180806020018281038252603f81526020018061333b603f913960400191505060405180910390fd5b612a628282611a59565b6000612a85612a80612a7b612a76866130ff565b61312d565b613159565b612649565b6040516020018082805190602001908083835b60208310612abb5780518252602082019150602081019050602083039250612a98565b6001836020036101000a038019825116818451168082178552505050505050905001915050604051602081830303815290604052805190602001209050612b0181612eda565b612b73576040517f08c379a00000000000000000000000000000000000000000000000000000000081526004018080602001828103825260178152602001807f487964726f494420697320756e617661696c61626c652e00000000000000000081525060200191505060405180910390fd5b6000801b600a60008681526020019081526020016000205414612be1576040517f08c379a00000000000000000000000000000000000000000000000000000000081526004018080602001828103825260238152602001806133a16023913960400191505060405180910390fd5b6000801b600b60008473ffffffffffffffffffffffffffffffffffffffff1673ffffffffffffffffffffffffffffffffffffffff1681526020019081526020016000205414612c7b576040517f08c379a000000000000000000000000000000000000000000000000000000000815260040180806020018281038252602781526020018061337a6027913960400191505060405180910390fd5b6040518060a001604052808581526020018373ffffffffffffffffffffffffffffffffffffffff16815260200184815260200160011515815260200160001515815250600960008381526020019081526020016000206000820151816000015560208201518160010160006101000a81548173ffffffffffffffffffffffffffffffffffffffff021916908373ffffffffffffffffffffffffffffffffffffffff1602179055506040820151816002019080519060200190612d3e92919061324c565b5060608201518160030160006101000a81548160ff02191690831515021790555060808201518160030160016101000a81548160ff02191690831515021790555090505080600a60008681526020019081526020016000208190555080600b60008473ffffffffffffffffffffffffffffffffffffffff1673ffffffffffffffffffffffffffffffffffffffff16815260200190815260200160002081905550837f2036b1dad46d67484fb64d7b2041768b0c1d63e534f4b59a6fb46c1b08493df4848460405180806020018373ffffffffffffffffffffffffffffffffffffffff1673ffffffffffffffffffffffffffffffffffffffff168152602001828103825284818151815260200191508051906020019080838360005b83811015612e74578082015181840152602081019050612e59565b50505050905090810190601f168015612ea15780820380516001836020036101000a031916815260200191505b50935050505060405180910390a250505050565b6000612ec082612eda565b158015612ed35750612ed182612f5d565b155b9050919050565b60006009600083815260200190815260200160002060030160009054906101000a900460ff16159050919050565b612f106112c4565b612f1957600080fd5b80600360006101000a81548173ffffffffffffffffffffffffffffffffffffffff021916908373ffffffffffffffffffffffffffffffffffffffff16021790555050565b60006009600083815260200190815260200160002060030160019054906101000a900460ff169050919050565b600073ffffffffffffffffffffffffffffffffffffffff168173ffffffffffffffffffffffffffffffffffffffff161415612fc457600080fd5b8073ffffffffffffffffffffffffffffffffffffffff166000809054906101000a900473ffffffffffffffffffffffffffffffffffffffff1673ffffffffffffffffffffffffffffffffffffffff167f8be0079c531659141344cd1fd0a4f28419497f9722a3daafe3b4186f6b6457e060405160405180910390a3806000806101000a81548173ffffffffffffffffffffffffffffffffffffffff021916908373ffffffffffffffffffffffffffffffffffffffff16021790555050565b6000604160f81b827effffffffffffffffffffffffffffffffffffffffffffffffffffffffffffff1916101580156130e05750605a60f81b827effffffffffffffffffffffffffffffffffffffffffffffffffffffffffffff191611155b156130f65760208260f81c0160f81b90506130fa565b8190505b919050565b6131076132cc565b600060208301905060405180604001604052808451815260200182815250915050919050565b6131356132cc565b60405180604001604052808360000151815260200183602001518152509050919050565b60608082600001516040519080825280601f01601f1916602001820160405280156131935781602001600182028038833980820191505090505b50905060006020820190506131b181856020015186600001516131bb565b8192505050919050565b5b602081106131df57815183526020830192506020820191506020810390506131bc565b60006001826020036101000a0390508019835116818551168181178652505050505050565b50805460018160011615610100020316600290046000825580601f1061322a5750613249565b601f01602090049060005260206000209081019061324891906132e6565b5b50565b828054600181600116156101000203166002900490600052602060002090601f016020900481019282601f1061328d57805160ff19168380011785556132bb565b828001600101855582156132bb579182015b828111156132ba57825182559160200191906001019061329f565b5b5090506132c891906132e6565b5090565b604051806040016040528060008152602001600081525090565b61330891905b808211156133045760008160009055506001016132ec565b5090565b9056fe536e6f77666c616b65206973206e6f7420612050726f766964657220666f7220746865207061737365642045494e2e546865207061737365642061646472657373206973206e6f74206173736f6369617465642077697468207468652063616c6c696e67204964656e746974792e4164647265737320697320616c7265616479206d617070656420746f206120487964726f49442e45494e20697320616c7265616479206d617070656420746f206120487964726f49442e546865207061737365642045494e20686173206e6f74207365742074686973207265736f6c7665722e446964206e6f74206f726967696e6174652066726f6d20536e6f77666c616b652e496e73756666696369656e74207374616b656420485944524f2062616c616e63652e5468697320487964726f20494420697320616c726561647920636c61696d656420627920616e6f7468657220616464726573732ea265627a7a72315820c057ede82a6631efad855ac77dd49108a77f91b677eac5afcf426bd690a8d40f64736f6c63430005100032412072656769737472792074686174206c696e6b732045494e7320746f20487964726f49447320746f20706f77657220436c69656e74205261696e64726f70204d46412e",
  "source": "pragma solidity ^0.5.0;\n\nimport \"./StringUtils.sol\";\nimport \"./OldClientRaindropInterface.sol\";\nimport \"../../SnowflakeResolver.sol\";\nimport \"../../interfaces/IdentityRegistryInterface.sol\";\nimport \"../../interfaces/HydroInterface.sol\";\nimport \"../../interfaces/SnowflakeInterface.sol\";\n\ncontract ClientRaindrop is SnowflakeResolver {\n    // attach the StringUtils library\n    using StringUtils for string;\n    using StringUtils for StringUtils.slice;\n\n    // other SCs\n    HydroInterface private hydroToken;\n    IdentityRegistryInterface private identityRegistry;\n    OldClientRaindropInterface private oldClientRaindrop;\n\n    // staking requirements\n    uint public hydroStakeUser;\n    uint public hydroStakeDelegatedUser;\n\n    // User account template\n    struct User {\n        uint ein;\n        address _address;\n        string casedHydroID;\n        bool initialized;\n        bool destroyed;\n    }\n\n    // Mapping from uncased hydroID hashes to users\n    mapping (bytes32 => User) private userDirectory;\n    // Mapping from EIN to uncased hydroID hashes\n    mapping (uint => bytes32) private einDirectory;\n    // Mapping from address to uncased hydroID hashes\n    mapping (address => bytes32) private addressDirectory;\n\n    constructor(\n        address snowflakeAddress, address oldClientRaindropAddress, uint _hydroStakeUser, uint _hydroStakeDelegatedUser\n    )\n        SnowflakeResolver(\n            \"Client Raindrop\", \"A registry that links EINs to HydroIDs to power Client Raindrop MFA.\",\n            snowflakeAddress,\n            true, true\n        )\n        public\n    {\n        setSnowflakeAddress(snowflakeAddress);\n        setOldClientRaindropAddress(oldClientRaindropAddress);\n        setStakes(_hydroStakeUser, _hydroStakeDelegatedUser);\n    }\n\n    // Requires an address to have a minimum number of Hydro\n    modifier requireStake(address _address, uint stake) {\n        require(hydroToken.balanceOf(_address) >= stake, \"Insufficient staked HYDRO balance.\");\n        _;\n    }\n\n    // set the snowflake address, and hydro token + identity registry contract wrappers\n    function setSnowflakeAddress(address snowflakeAddress) public onlyOwner() {\n        super.setSnowflakeAddress(snowflakeAddress);\n\n        SnowflakeInterface snowflake = SnowflakeInterface(snowflakeAddress);\n        hydroToken = HydroInterface(snowflake.hydroTokenAddress());\n        identityRegistry = IdentityRegistryInterface(snowflake.identityRegistryAddress());\n    }\n\n    // set the old client raindrop address\n    function setOldClientRaindropAddress(address oldClientRaindropAddress) public onlyOwner() {\n        oldClientRaindrop = OldClientRaindropInterface(oldClientRaindropAddress);\n    }\n\n    // set minimum hydro balances required for sign ups\n    function setStakes(uint _hydroStakeUser, uint _hydroStakeDelegatedUser) public onlyOwner() {\n        // <= the airdrop amount\n        require(_hydroStakeUser <= 222222 * 10**18, \"Stake is too high.\");\n        hydroStakeUser = _hydroStakeDelegatedUser;\n\n        // <= 1% of total supply\n        require(_hydroStakeDelegatedUser <= hydroToken.totalSupply() / 100, \"Stake is too high.\");\n        hydroStakeDelegatedUser = _hydroStakeDelegatedUser;\n    }\n\n    // function for users calling signup for themselves\n    function signUp(address _address, string memory casedHydroId) public requireStake(msg.sender, hydroStakeUser) {\n        _signUp(identityRegistry.getEIN(msg.sender), casedHydroId, _address);\n    }\n\n    // function for users signing up through the snowflake provider\n    function onAddition(uint ein, uint, bytes memory extraData)\n        // solium-disable-next-line security/no-tx-origin\n        public senderIsSnowflake() requireStake(tx.origin, hydroStakeDelegatedUser) returns (bool)\n    {\n        (address _address, string memory casedHydroID) = abi.decode(extraData, (address, string));\n        require(identityRegistry.isProviderFor(ein, msg.sender), \"Snowflake is not a Provider for the passed EIN.\");\n        _signUp(ein, casedHydroID, _address);\n     \n        return true;\n    }\n\n    // Common internal logic for all user signups\n    function _signUp(uint ein, string memory casedHydroID, address _address) internal {\n        require(bytes(casedHydroID).length > 2 && bytes(casedHydroID).length < 33, \"HydroID has invalid length.\");\n        require(identityRegistry.isResolverFor(ein, address(this)), \"The passed EIN has not set this resolver.\");\n        require(\n            identityRegistry.isAssociatedAddressFor(ein, _address),\n            \"The passed address is not associated with the calling Identity.\"\n        );\n        checkForOldHydroID(casedHydroID, _address);\n\n        bytes32 uncasedHydroIDHash = keccak256(abi.encodePacked(casedHydroID.toSlice().copy().toString().lower()));\n        // check conditions specific to this resolver\n        require(hydroIDAvailable(uncasedHydroIDHash), \"HydroID is unavailable.\");\n        require(einDirectory[ein] == bytes32(0), \"EIN is already mapped to a HydroID.\");\n        require(addressDirectory[_address] == bytes32(0), \"Address is already mapped to a HydroID.\");\n\n        // update mappings\n        userDirectory[uncasedHydroIDHash] = User(ein, _address, casedHydroID, true, false);\n        einDirectory[ein] = uncasedHydroIDHash;\n        addressDirectory[_address] = uncasedHydroIDHash;\n\n        emit HydroIDClaimed(ein, casedHydroID, _address);\n    }\n\n    function checkForOldHydroID(string memory casedHydroID, address _address) public view {\n        bool usernameTaken = oldClientRaindrop.userNameTaken(casedHydroID);\n        if (usernameTaken) {\n            (, address takenAddress) = oldClientRaindrop.getUserByName(casedHydroID);\n            require(_address == takenAddress, \"This Hydro ID is already claimed by another address.\");\n        }\n    }\n\n    function onRemoval(uint ein, bytes memory) public senderIsSnowflake() returns (bool) {\n        bytes32 uncasedHydroIDHash = einDirectory[ein];\n        assert(uncasedHydroIDHashActive(uncasedHydroIDHash));\n\n        emit HydroIDDestroyed(\n            ein, userDirectory[uncasedHydroIDHash].casedHydroID, userDirectory[uncasedHydroIDHash]._address\n        );\n\n        delete addressDirectory[userDirectory[uncasedHydroIDHash]._address];\n        delete einDirectory[ein];\n        delete userDirectory[uncasedHydroIDHash].casedHydroID;\n        delete userDirectory[uncasedHydroIDHash]._address;\n        userDirectory[uncasedHydroIDHash].destroyed = true;\n\n        return true;\n    }\n\n\n    // returns whether a given hydroID is available\n    function hydroIDAvailable(string memory uncasedHydroID) public view returns (bool available) {\n        return hydroIDAvailable(keccak256(abi.encodePacked(uncasedHydroID.lower())));\n    }\n\n    // Returns a bool indicating whether a given uncasedHydroIDHash is available\n    function hydroIDAvailable(bytes32 uncasedHydroIDHash) private view returns (bool) {\n        return !userDirectory[uncasedHydroIDHash].initialized;\n    }\n\n    // returns whether a given hydroID is destroyed\n    function hydroIDDestroyed(string memory uncasedHydroID) public view returns (bool destroyed) {\n        return hydroIDDestroyed(keccak256(abi.encodePacked(uncasedHydroID.lower())));\n    }\n\n    // Returns a bool indicating whether a given hydroID is destroyed\n    function hydroIDDestroyed(bytes32 uncasedHydroIDHash) private view returns (bool) {\n        return userDirectory[uncasedHydroIDHash].destroyed;\n    }\n\n    // returns whether a given hydroID is active\n    function hydroIDActive(string memory uncasedHydroID) public view returns (bool active) {\n        return uncasedHydroIDHashActive(keccak256(abi.encodePacked(uncasedHydroID.lower())));\n    }\n\n    // Returns a bool indicating whether a given hydroID is active\n    function uncasedHydroIDHashActive(bytes32 uncasedHydroIDHash) private view returns (bool) {\n        return !hydroIDAvailable(uncasedHydroIDHash) && !hydroIDDestroyed(uncasedHydroIDHash);\n    }\n\n\n    // Returns details by uncased hydroID\n    function getDetails(string memory uncasedHydroID) public view\n        returns (uint ein, address _address, string memory casedHydroID)\n    {\n        User storage user = getDetails(keccak256(abi.encodePacked(uncasedHydroID.lower())));\n        return (user.ein, user._address, user.casedHydroID);\n    }\n\n    // Returns details by EIN\n    function getDetails(uint ein) public view returns (address _address, string memory casedHydroID) {\n        User storage user = getDetails(einDirectory[ein]);\n        return (user._address, user.casedHydroID);\n    }\n\n    // Returns details by address\n    function getDetails(address _address) public view returns (uint ein, string memory casedHydroID) {\n        User storage user = getDetails(addressDirectory[_address]);\n        return (user.ein, user.casedHydroID);\n    }\n\n    // common logic for all getDetails\n    function getDetails(bytes32 uncasedHydroIDHash) private view returns (User storage) {\n        require(uncasedHydroIDHashActive(uncasedHydroIDHash), \"HydroID is not active.\");\n        return userDirectory[uncasedHydroIDHash];\n    }\n\n    // Events for when a user signs up for Raindrop Client and when their account is deleted\n    event HydroIDClaimed(uint indexed ein, string hydroID, address userAddress);\n    event HydroIDDestroyed(uint indexed ein, string hydroID, address userAddress);\n}\n",
  "sourcePath": "/home/null/Documents/VoteDapp/contracts/resolvers/ClientRaindrop/ClientRaindrop.sol",
  "compiler": {
    "name": "solc",
    "version": "0.5.16+commit.9c3226ce.Emscripten.clang"
  },
  "schemaVersion": "3.0.23",
  "updatedAt": "2020-10-03T12:02:50.275Z",
  "devdoc": {
    "methods": {
      "isOwner()": {
        "return": "true if `msg.sender` is the owner of the contract."
      },
      "owner()": {
        "return": "the address of the owner."
      },
      "renounceOwnership()": {
        "details": "Allows the current owner to relinquish control of the contract."
      },
      "transferOwnership(address)": {
        "details": "Allows the current owner to transfer control of the contract to a newOwner.",
        "params": {
          "newOwner": "The address to transfer ownership to."
        }
      }
    }
  },
  "userdoc": {
    "methods": {
      "renounceOwnership()": {
        "notice": "Renouncing to ownership will leave the contract without an owner. It will not be possible to call the functions with the `onlyOwner` modifier anymore."
      }
    }
  }
}