{
  "contractName": "IdentityRegistry",
  "abi": [
    {
      "anonymous": false,
      "inputs": [
        {
          "indexed": true,
          "internalType": "address",
          "name": "initiator",
          "type": "address"
        },
        {
          "indexed": true,
          "internalType": "uint256",
          "name": "ein",
          "type": "uint256"
        },
        {
          "indexed": false,
          "internalType": "address",
          "name": "approvingAddress",
          "type": "address"
        },
        {
          "indexed": false,
          "internalType": "address",
          "name": "addedAddress",
          "type": "address"
        },
        {
          "indexed": false,
          "internalType": "bool",
          "name": "delegated",
          "type": "bool"
        }
      ],
      "name": "AssociatedAddressAdded",
      "type": "event"
    },
    {
      "anonymous": false,
      "inputs": [
        {
          "indexed": true,
          "internalType": "address",
          "name": "initiator",
          "type": "address"
        },
        {
          "indexed": true,
          "internalType": "uint256",
          "name": "ein",
          "type": "uint256"
        },
        {
          "indexed": false,
          "internalType": "address",
          "name": "removedAddress",
          "type": "address"
        },
        {
          "indexed": false,
          "internalType": "bool",
          "name": "delegated",
          "type": "bool"
        }
      ],
      "name": "AssociatedAddressRemoved",
      "type": "event"
    },
    {
      "anonymous": false,
      "inputs": [
        {
          "indexed": true,
          "internalType": "address",
          "name": "initiator",
          "type": "address"
        },
        {
          "indexed": true,
          "internalType": "uint256",
          "name": "ein",
          "type": "uint256"
        },
        {
          "indexed": false,
          "internalType": "address",
          "name": "recoveryAddress",
          "type": "address"
        },
        {
          "indexed": false,
          "internalType": "address",
          "name": "associatedAddress",
          "type": "address"
        },
        {
          "indexed": false,
          "internalType": "address[]",
          "name": "providers",
          "type": "address[]"
        },
        {
          "indexed": false,
          "internalType": "address[]",
          "name": "resolvers",
          "type": "address[]"
        },
        {
          "indexed": false,
          "internalType": "bool",
          "name": "delegated",
          "type": "bool"
        }
      ],
      "name": "IdentityCreated",
      "type": "event"
    },
    {
      "anonymous": false,
      "inputs": [
        {
          "indexed": true,
          "internalType": "address",
          "name": "initiator",
          "type": "address"
        },
        {
          "indexed": true,
          "internalType": "uint256",
          "name": "ein",
          "type": "uint256"
        },
        {
          "indexed": false,
          "internalType": "address",
          "name": "recoveryAddress",
          "type": "address"
        },
        {
          "indexed": false,
          "internalType": "bool",
          "name": "resolversReset",
          "type": "bool"
        }
      ],
      "name": "IdentityDestroyed",
      "type": "event"
    },
    {
      "anonymous": false,
      "inputs": [
        {
          "indexed": true,
          "internalType": "address",
          "name": "initiator",
          "type": "address"
        },
        {
          "indexed": true,
          "internalType": "uint256",
          "name": "ein",
          "type": "uint256"
        },
        {
          "indexed": false,
          "internalType": "address",
          "name": "provider",
          "type": "address"
        },
        {
          "indexed": false,
          "internalType": "bool",
          "name": "delegated",
          "type": "bool"
        }
      ],
      "name": "ProviderAdded",
      "type": "event"
    },
    {
      "anonymous": false,
      "inputs": [
        {
          "indexed": true,
          "internalType": "address",
          "name": "initiator",
          "type": "address"
        },
        {
          "indexed": true,
          "internalType": "uint256",
          "name": "ein",
          "type": "uint256"
        },
        {
          "indexed": false,
          "internalType": "address",
          "name": "provider",
          "type": "address"
        },
        {
          "indexed": false,
          "internalType": "bool",
          "name": "delegated",
          "type": "bool"
        }
      ],
      "name": "ProviderRemoved",
      "type": "event"
    },
    {
      "anonymous": false,
      "inputs": [
        {
          "indexed": true,
          "internalType": "address",
          "name": "initiator",
          "type": "address"
        },
        {
          "indexed": true,
          "internalType": "uint256",
          "name": "ein",
          "type": "uint256"
        },
        {
          "indexed": false,
          "internalType": "address",
          "name": "oldRecoveryAddress",
          "type": "address"
        },
        {
          "indexed": false,
          "internalType": "address",
          "name": "newRecoveryAddress",
          "type": "address"
        },
        {
          "indexed": false,
          "internalType": "bool",
          "name": "delegated",
          "type": "bool"
        }
      ],
      "name": "RecoveryAddressChangeTriggered",
      "type": "event"
    },
    {
      "anonymous": false,
      "inputs": [
        {
          "indexed": true,
          "internalType": "address",
          "name": "initiator",
          "type": "address"
        },
        {
          "indexed": true,
          "internalType": "uint256",
          "name": "ein",
          "type": "uint256"
        },
        {
          "indexed": false,
          "internalType": "address[]",
          "name": "oldAssociatedAddresses",
          "type": "address[]"
        },
        {
          "indexed": false,
          "internalType": "address",
          "name": "newAssociatedAddress",
          "type": "address"
        }
      ],
      "name": "RecoveryTriggered",
      "type": "event"
    },
    {
      "anonymous": false,
      "inputs": [
        {
          "indexed": true,
          "internalType": "address",
          "name": "initiator",
          "type": "address"
        },
        {
          "indexed": true,
          "internalType": "uint256",
          "name": "ein",
          "type": "uint256"
        },
        {
          "indexed": false,
          "internalType": "address",
          "name": "resolvers",
          "type": "address"
        },
        {
          "indexed": false,
          "internalType": "bool",
          "name": "delegated",
          "type": "bool"
        }
      ],
      "name": "ResolverAdded",
      "type": "event"
    },
    {
      "anonymous": false,
      "inputs": [
        {
          "indexed": true,
          "internalType": "address",
          "name": "initiator",
          "type": "address"
        },
        {
          "indexed": true,
          "internalType": "uint256",
          "name": "ein",
          "type": "uint256"
        },
        {
          "indexed": false,
          "internalType": "address",
          "name": "resolvers",
          "type": "address"
        },
        {
          "indexed": false,
          "internalType": "bool",
          "name": "delegated",
          "type": "bool"
        }
      ],
      "name": "ResolverRemoved",
      "type": "event"
    },
    {
      "constant": true,
      "inputs": [
        {
          "internalType": "address",
          "name": "_address",
          "type": "address"
        },
        {
          "internalType": "bytes32",
          "name": "messageHash",
          "type": "bytes32"
        },
        {
          "internalType": "uint8",
          "name": "v",
          "type": "uint8"
        },
        {
          "internalType": "bytes32",
          "name": "r",
          "type": "bytes32"
        },
        {
          "internalType": "bytes32",
          "name": "s",
          "type": "bytes32"
        }
      ],
      "name": "isSigned",
      "outputs": [
        {
          "internalType": "bool",
          "name": "",
          "type": "bool"
        }
      ],
      "payable": false,
      "stateMutability": "pure",
      "type": "function"
    },
    {
      "constant": true,
      "inputs": [],
      "name": "maxAssociatedAddresses",
      "outputs": [
        {
          "internalType": "uint256",
          "name": "",
          "type": "uint256"
        }
      ],
      "payable": false,
      "stateMutability": "view",
      "type": "function"
    },
    {
      "constant": true,
      "inputs": [],
      "name": "nextEIN",
      "outputs": [
        {
          "internalType": "uint256",
          "name": "",
          "type": "uint256"
        }
      ],
      "payable": false,
      "stateMutability": "view",
      "type": "function"
    },
    {
      "constant": true,
      "inputs": [],
      "name": "recoveryTimeout",
      "outputs": [
        {
          "internalType": "uint256",
          "name": "",
          "type": "uint256"
        }
      ],
      "payable": false,
      "stateMutability": "view",
      "type": "function"
    },
    {
      "constant": true,
      "inputs": [],
      "name": "signatureTimeout",
      "outputs": [
        {
          "internalType": "uint256",
          "name": "",
          "type": "uint256"
        }
      ],
      "payable": false,
      "stateMutability": "view",
      "type": "function"
    },
    {
      "constant": true,
      "inputs": [
        {
          "internalType": "uint256",
          "name": "ein",
          "type": "uint256"
        }
      ],
      "name": "identityExists",
      "outputs": [
        {
          "internalType": "bool",
          "name": "",
          "type": "bool"
        }
      ],
      "payable": false,
      "stateMutability": "view",
      "type": "function"
    },
    {
      "constant": true,
      "inputs": [
        {
          "internalType": "address",
          "name": "_address",
          "type": "address"
        }
      ],
      "name": "hasIdentity",
      "outputs": [
        {
          "internalType": "bool",
          "name": "",
          "type": "bool"
        }
      ],
      "payable": false,
      "stateMutability": "view",
      "type": "function"
    },
    {
      "constant": true,
      "inputs": [
        {
          "internalType": "address",
          "name": "_address",
          "type": "address"
        }
      ],
      "name": "getEIN",
      "outputs": [
        {
          "internalType": "uint256",
          "name": "ein",
          "type": "uint256"
        }
      ],
      "payable": false,
      "stateMutability": "view",
      "type": "function"
    },
    {
      "constant": true,
      "inputs": [
        {
          "internalType": "uint256",
          "name": "ein",
          "type": "uint256"
        },
        {
          "internalType": "address",
          "name": "_address",
          "type": "address"
        }
      ],
      "name": "isAssociatedAddressFor",
      "outputs": [
        {
          "internalType": "bool",
          "name": "",
          "type": "bool"
        }
      ],
      "payable": false,
      "stateMutability": "view",
      "type": "function"
    },
    {
      "constant": true,
      "inputs": [
        {
          "internalType": "uint256",
          "name": "ein",
          "type": "uint256"
        },
        {
          "internalType": "address",
          "name": "provider",
          "type": "address"
        }
      ],
      "name": "isProviderFor",
      "outputs": [
        {
          "internalType": "bool",
          "name": "",
          "type": "bool"
        }
      ],
      "payable": false,
      "stateMutability": "view",
      "type": "function"
    },
    {
      "constant": true,
      "inputs": [
        {
          "internalType": "uint256",
          "name": "ein",
          "type": "uint256"
        },
        {
          "internalType": "address",
          "name": "resolver",
          "type": "address"
        }
      ],
      "name": "isResolverFor",
      "outputs": [
        {
          "internalType": "bool",
          "name": "",
          "type": "bool"
        }
      ],
      "payable": false,
      "stateMutability": "view",
      "type": "function"
    },
    {
      "constant": true,
      "inputs": [
        {
          "internalType": "uint256",
          "name": "ein",
          "type": "uint256"
        }
      ],
      "name": "getIdentity",
      "outputs": [
        {
          "internalType": "address",
          "name": "recoveryAddress",
          "type": "address"
        },
        {
          "internalType": "address[]",
          "name": "associatedAddresses",
          "type": "address[]"
        },
        {
          "internalType": "address[]",
          "name": "providers",
          "type": "address[]"
        },
        {
          "internalType": "address[]",
          "name": "resolvers",
          "type": "address[]"
        }
      ],
      "payable": false,
      "stateMutability": "view",
      "type": "function"
    },
    {
      "constant": false,
      "inputs": [
        {
          "internalType": "address",
          "name": "recoveryAddress",
          "type": "address"
        },
        {
          "internalType": "address",
          "name": "associatedAddress",
          "type": "address"
        },
        {
          "internalType": "address[]",
          "name": "providers",
          "type": "address[]"
        },
        {
          "internalType": "address[]",
          "name": "resolvers",
          "type": "address[]"
        },
        {
          "internalType": "uint8",
          "name": "v",
          "type": "uint8"
        },
        {
          "internalType": "bytes32",
          "name": "r",
          "type": "bytes32"
        },
        {
          "internalType": "bytes32",
          "name": "s",
          "type": "bytes32"
        },
        {
          "internalType": "uint256",
          "name": "timestamp",
          "type": "uint256"
        }
      ],
      "name": "createIdentityDelegated",
      "outputs": [
        {
          "internalType": "uint256",
          "name": "ein",
          "type": "uint256"
        }
      ],
      "payable": false,
      "stateMutability": "nonpayable",
      "type": "function"
    },
    {
      "constant": false,
      "inputs": [
        {
          "internalType": "address",
          "name": "recoveryAddress",
          "type": "address"
        },
        {
          "internalType": "address[]",
          "name": "providers",
          "type": "address[]"
        },
        {
          "internalType": "address[]",
          "name": "resolvers",
          "type": "address[]"
        }
      ],
      "name": "createIdentity",
      "outputs": [
        {
          "internalType": "uint256",
          "name": "ein",
          "type": "uint256"
        }
      ],
      "payable": false,
      "stateMutability": "nonpayable",
      "type": "function"
    },
    {
      "constant": false,
      "inputs": [
        {
          "internalType": "address",
          "name": "approvingAddress",
          "type": "address"
        },
        {
          "internalType": "address",
          "name": "addressToAdd",
          "type": "address"
        },
        {
          "internalType": "uint8[2]",
          "name": "v",
          "type": "uint8[2]"
        },
        {
          "internalType": "bytes32[2]",
          "name": "r",
          "type": "bytes32[2]"
        },
        {
          "internalType": "bytes32[2]",
          "name": "s",
          "type": "bytes32[2]"
        },
        {
          "internalType": "uint256[2]",
          "name": "timestamp",
          "type": "uint256[2]"
        }
      ],
      "name": "addAssociatedAddressDelegated",
      "outputs": [],
      "payable": false,
      "stateMutability": "nonpayable",
      "type": "function"
    },
    {
      "constant": false,
      "inputs": [
        {
          "internalType": "address",
          "name": "approvingAddress",
          "type": "address"
        },
        {
          "internalType": "address",
          "name": "addressToAdd",
          "type": "address"
        },
        {
          "internalType": "uint8",
          "name": "v",
          "type": "uint8"
        },
        {
          "internalType": "bytes32",
          "name": "r",
          "type": "bytes32"
        },
        {
          "internalType": "bytes32",
          "name": "s",
          "type": "bytes32"
        },
        {
          "internalType": "uint256",
          "name": "timestamp",
          "type": "uint256"
        }
      ],
      "name": "addAssociatedAddress",
      "outputs": [],
      "payable": false,
      "stateMutability": "nonpayable",
      "type": "function"
    },
    {
      "constant": false,
      "inputs": [
        {
          "internalType": "address",
          "name": "addressToRemove",
          "type": "address"
        },
        {
          "internalType": "uint8",
          "name": "v",
          "type": "uint8"
        },
        {
          "internalType": "bytes32",
          "name": "r",
          "type": "bytes32"
        },
        {
          "internalType": "bytes32",
          "name": "s",
          "type": "bytes32"
        },
        {
          "internalType": "uint256",
          "name": "timestamp",
          "type": "uint256"
        }
      ],
      "name": "removeAssociatedAddressDelegated",
      "outputs": [],
      "payable": false,
      "stateMutability": "nonpayable",
      "type": "function"
    },
    {
      "constant": false,
      "inputs": [],
      "name": "removeAssociatedAddress",
      "outputs": [],
      "payable": false,
      "stateMutability": "nonpayable",
      "type": "function"
    },
    {
      "constant": false,
      "inputs": [
        {
          "internalType": "uint256",
          "name": "ein",
          "type": "uint256"
        },
        {
          "internalType": "address[]",
          "name": "providers",
          "type": "address[]"
        }
      ],
      "name": "addProvidersFor",
      "outputs": [],
      "payable": false,
      "stateMutability": "nonpayable",
      "type": "function"
    },
    {
      "constant": false,
      "inputs": [
        {
          "internalType": "address[]",
          "name": "providers",
          "type": "address[]"
        }
      ],
      "name": "addProviders",
      "outputs": [],
      "payable": false,
      "stateMutability": "nonpayable",
      "type": "function"
    },
    {
      "constant": false,
      "inputs": [
        {
          "internalType": "uint256",
          "name": "ein",
          "type": "uint256"
        },
        {
          "internalType": "address[]",
          "name": "providers",
          "type": "address[]"
        }
      ],
      "name": "removeProvidersFor",
      "outputs": [],
      "payable": false,
      "stateMutability": "nonpayable",
      "type": "function"
    },
    {
      "constant": false,
      "inputs": [
        {
          "internalType": "address[]",
          "name": "providers",
          "type": "address[]"
        }
      ],
      "name": "removeProviders",
      "outputs": [],
      "payable": false,
      "stateMutability": "nonpayable",
      "type": "function"
    },
    {
      "constant": false,
      "inputs": [
        {
          "internalType": "uint256",
          "name": "ein",
          "type": "uint256"
        },
        {
          "internalType": "address[]",
          "name": "resolvers",
          "type": "address[]"
        }
      ],
      "name": "addResolversFor",
      "outputs": [],
      "payable": false,
      "stateMutability": "nonpayable",
      "type": "function"
    },
    {
      "constant": false,
      "inputs": [
        {
          "internalType": "address[]",
          "name": "resolvers",
          "type": "address[]"
        }
      ],
      "name": "addResolvers",
      "outputs": [],
      "payable": false,
      "stateMutability": "nonpayable",
      "type": "function"
    },
    {
      "constant": false,
      "inputs": [
        {
          "internalType": "uint256",
          "name": "ein",
          "type": "uint256"
        },
        {
          "internalType": "address[]",
          "name": "resolvers",
          "type": "address[]"
        }
      ],
      "name": "removeResolversFor",
      "outputs": [],
      "payable": false,
      "stateMutability": "nonpayable",
      "type": "function"
    },
    {
      "constant": false,
      "inputs": [
        {
          "internalType": "address[]",
          "name": "resolvers",
          "type": "address[]"
        }
      ],
      "name": "removeResolvers",
      "outputs": [],
      "payable": false,
      "stateMutability": "nonpayable",
      "type": "function"
    },
    {
      "constant": false,
      "inputs": [
        {
          "internalType": "uint256",
          "name": "ein",
          "type": "uint256"
        },
        {
          "internalType": "address",
          "name": "newRecoveryAddress",
          "type": "address"
        }
      ],
      "name": "triggerRecoveryAddressChangeFor",
      "outputs": [],
      "payable": false,
      "stateMutability": "nonpayable",
      "type": "function"
    },
    {
      "constant": false,
      "inputs": [
        {
          "internalType": "address",
          "name": "newRecoveryAddress",
          "type": "address"
        }
      ],
      "name": "triggerRecoveryAddressChange",
      "outputs": [],
      "payable": false,
      "stateMutability": "nonpayable",
      "type": "function"
    },
    {
      "constant": false,
      "inputs": [
        {
          "internalType": "uint256",
          "name": "ein",
          "type": "uint256"
        },
        {
          "internalType": "address",
          "name": "newAssociatedAddress",
          "type": "address"
        },
        {
          "internalType": "uint8",
          "name": "v",
          "type": "uint8"
        },
        {
          "internalType": "bytes32",
          "name": "r",
          "type": "bytes32"
        },
        {
          "internalType": "bytes32",
          "name": "s",
          "type": "bytes32"
        },
        {
          "internalType": "uint256",
          "name": "timestamp",
          "type": "uint256"
        }
      ],
      "name": "triggerRecovery",
      "outputs": [],
      "payable": false,
      "stateMutability": "nonpayable",
      "type": "function"
    },
    {
      "constant": false,
      "inputs": [
        {
          "internalType": "uint256",
          "name": "ein",
          "type": "uint256"
        },
        {
          "internalType": "address[]",
          "name": "firstChunk",
          "type": "address[]"
        },
        {
          "internalType": "address[]",
          "name": "lastChunk",
          "type": "address[]"
        },
        {
          "internalType": "bool",
          "name": "resetResolvers",
          "type": "bool"
        }
      ],
      "name": "triggerDestruction",
      "outputs": [],
      "payable": false,
      "stateMutability": "nonpayable",
      "type": "function"
    }
  ],
  "bytecode": "0x608060405260016002556032600355620151806004556212750060075534801561002857600080fd5b50614ffc806100386000396000f3fe608060405234801561001057600080fd5b50600436106101da5760003560e01c80635b5aed3a11610104578063a687662d116100a2578063d4b1cdcc11610071578063d4b1cdcc14611173578063dd9ad9ed146111d9578063e846fd9114611248578063fa57b57614611300576101da565b8063a687662d14610ece578063ab5f678114610f34578063ab9a85381461109d578063b8a5c2a6146110bb576101da565b80638677ebe8116100de5780638677ebe814610cee5780638e1bb63314610d75578063960b11f514610dee578063a1707e7b14610eb0576101da565b80635b5aed3a14610aaa5780637d07995114610af057806385e3f05814610ba8576101da565b8063237f1a211161017c5780633b4656a11161014b5780633b4656a11461095a57806353a9698a146109645780635437b67c146109ca5780635726f660146109e8576101da565b8063237f1a21146106a15780632501faa5146106fd578063268e89701461074b5780633aedf3c9146108cb576101da565b806314d8b821116101b857806314d8b821146103bb57806314fb5646146103d95780631bfe3508146105a5578063232e7d83146105e9576101da565b8063010887dc146101df57806305c62c2f146102a157806306c93c36146102f9575b600080fd5b61029f600480360360408110156101f557600080fd5b81019080803590602001909291908035906020019064010000000081111561021c57600080fd5b82018360208201111561022e57600080fd5b8035906020019184602083028401116401000000008311171561025057600080fd5b919080806020026020016040519081016040528093929190818152602001838360200280828437600081840152601f19601f820116905080830192505050505050509192919290505050611462565b005b6102e3600480360360208110156102b757600080fd5b81019080803573ffffffffffffffffffffffffffffffffffffffff1690602001909291905050506114d3565b6040518082815260200191505060405180910390f35b6103b96004803603604081101561030f57600080fd5b81019080803590602001909291908035906020019064010000000081111561033657600080fd5b82018360208201111561034857600080fd5b8035906020019184602083028401116401000000008311171561036a57600080fd5b919080806020026020016040519081016040528093929190818152602001838360200280828437600081840152601f19601f820116905080830192505050505050509192919290505050611614565b005b6103c3611685565b6040518082815260200191505060405180910390f35b61058f60048036036101008110156103f057600080fd5b81019080803573ffffffffffffffffffffffffffffffffffffffff169060200190929190803573ffffffffffffffffffffffffffffffffffffffff1690602001909291908035906020019064010000000081111561044d57600080fd5b82018360208201111561045f57600080fd5b8035906020019184602083028401116401000000008311171561048157600080fd5b919080806020026020016040519081016040528093929190818152602001838360200280828437600081840152601f19601f820116905080830192505050505050509192919290803590602001906401000000008111156104e157600080fd5b8201836020820111156104f357600080fd5b8035906020019184602083028401116401000000008311171561051557600080fd5b919080806020026020016040519081016040528093929190818152602001838360200280828437600081840152601f19601f820116905080830192505050505050509192919290803560ff16906020019092919080359060200190929190803590602001909291908035906020019092919050505061168b565b6040518082815260200191505060405180910390f35b6105e7600480360360208110156105bb57600080fd5b81019080803573ffffffffffffffffffffffffffffffffffffffff16906020019092919050505061198f565b005b61069f600480360360208110156105ff57600080fd5b810190808035906020019064010000000081111561061c57600080fd5b82018360208201111561062e57600080fd5b8035906020019184602083028401116401000000008311171561065057600080fd5b919080806020026020016040519081016040528093929190818152602001838360200280828437600081840152601f19601f8201169050808301925050505050505091929192905050506119a6565b005b6106e3600480360360208110156106b757600080fd5b81019080803573ffffffffffffffffffffffffffffffffffffffff1690602001909291905050506119bd565b604051808215151515815260200191505060405180910390f35b6107496004803603604081101561071357600080fd5b8101908080359060200190929190803573ffffffffffffffffffffffffffffffffffffffff169060200190929190505050611a0e565b005b6108b56004803603606081101561076157600080fd5b81019080803573ffffffffffffffffffffffffffffffffffffffff1690602001909291908035906020019064010000000081111561079e57600080fd5b8201836020820111156107b057600080fd5b803590602001918460208302840111640100000000831117156107d257600080fd5b919080806020026020016040519081016040528093929190818152602001838360200280828437600081840152601f19601f8201169050808301925050505050505091929192908035906020019064010000000081111561083257600080fd5b82018360208201111561084457600080fd5b8035906020019184602083028401116401000000008311171561086657600080fd5b919080806020026020016040519081016040528093929190818152602001838360200280828437600081840152601f19601f820116905080830192505050505050509192919290505050611a7f565b6040518082815260200191505060405180910390f35b610958600480360360c08110156108e157600080fd5b81019080803573ffffffffffffffffffffffffffffffffffffffff169060200190929190803573ffffffffffffffffffffffffffffffffffffffff169060200190929190803560ff169060200190929190803590602001909291908035906020019092919080359060200190929190505050611a98565b005b610962611f11565b005b6109b06004803603604081101561097a57600080fd5b8101908080359060200190929190803573ffffffffffffffffffffffffffffffffffffffff169060200190929190505050611fb3565b604051808215151515815260200191505060405180910390f35b6109d2612091565b6040518082815260200191505060405180910390f35b610aa8600480360360408110156109fe57600080fd5b810190808035906020019092919080359060200190640100000000811115610a2557600080fd5b820183602082011115610a3757600080fd5b80359060200191846020830284011164010000000083111715610a5957600080fd5b919080806020026020016040519081016040528093929190818152602001838360200280828437600081840152601f19601f820116905080830192505050505050509192919290505050612097565b005b610ad660048036036020811015610ac057600080fd5b8101908080359060200190929190505050612108565b604051808215151515815260200191505060405180910390f35b610ba660048036036020811015610b0657600080fd5b8101908080359060200190640100000000811115610b2357600080fd5b820183602082011115610b3557600080fd5b80359060200191846020830284011164010000000083111715610b5757600080fd5b919080806020026020016040519081016040528093929190818152602001838360200280828437600081840152601f19601f820116905080830192505050505050509192919290505050612122565b005b610bd460048036036020811015610bbe57600080fd5b8101908080359060200190929190505050612139565b604051808573ffffffffffffffffffffffffffffffffffffffff1673ffffffffffffffffffffffffffffffffffffffff168152602001806020018060200180602001848103845287818151815260200191508051906020019060200280838360005b83811015610c51578082015181840152602081019050610c36565b50505050905001848103835286818151815260200191508051906020019060200280838360005b83811015610c93578082015181840152602081019050610c78565b50505050905001848103825285818151815260200191508051906020019060200280838360005b83811015610cd5578082015181840152602081019050610cba565b5050505090500197505050505050505060405180910390f35b610d5b600480360360a0811015610d0457600080fd5b81019080803573ffffffffffffffffffffffffffffffffffffffff16906020019092919080359060200190929190803560ff16906020019092919080359060200190929190803590602001909291905050506123b5565b604051808215151515815260200191505060405180910390f35b610dec600480360360c0811015610d8b57600080fd5b8101908080359060200190929190803573ffffffffffffffffffffffffffffffffffffffff169060200190929190803560ff1690602001909291908035906020019092919080359060200190929190803590602001909291905050506123e3565b005b610eae60048036036040811015610e0457600080fd5b810190808035906020019092919080359060200190640100000000811115610e2b57600080fd5b820183602082011115610e3d57600080fd5b80359060200191846020830284011164010000000083111715610e5f57600080fd5b919080806020026020016040519081016040528093929190818152602001838360200280828437600081840152601f19601f820116905080830192505050505050509192919290505050612b93565b005b610eb8612c04565b6040518082815260200191505060405180910390f35b610f1a60048036036040811015610ee457600080fd5b8101908080359060200190929190803573ffffffffffffffffffffffffffffffffffffffff169060200190929190505050612c0a565b604051808215151515815260200191505060405180910390f35b61109b6004803603610140811015610f4b57600080fd5b81019080803573ffffffffffffffffffffffffffffffffffffffff169060200190929190803573ffffffffffffffffffffffffffffffffffffffff16906020019092919080604001906002806020026040519081016040528092919082600260200280828437600081840152601f19601f820116905080830192505050505050919291929080604001906002806020026040519081016040528092919082600260200280828437600081840152601f19601f820116905080830192505050505050919291929080604001906002806020026040519081016040528092919082600260200280828437600081840152601f19601f820116905080830192505050505050919291929080604001906002806020026040519081016040528092919082600260200280828437600081840152601f19601f8201169050808301925050505050509192919290505050612ce8565b005b6110a56132ce565b6040518082815260200191505060405180910390f35b611171600480360360208110156110d157600080fd5b81019080803590602001906401000000008111156110ee57600080fd5b82018360208201111561110057600080fd5b8035906020019184602083028401116401000000008311171561112257600080fd5b919080806020026020016040519081016040528093929190818152602001838360200280828437600081840152601f19601f8201169050808301925050505050505091929192905050506132d4565b005b6111bf6004803603604081101561118957600080fd5b8101908080359060200190929190803573ffffffffffffffffffffffffffffffffffffffff1690602001909291905050506132eb565b604051808215151515815260200191505060405180910390f35b611246600480360360a08110156111ef57600080fd5b81019080803573ffffffffffffffffffffffffffffffffffffffff169060200190929190803560ff1690602001909291908035906020019092919080359060200190929190803590602001909291905050506133c9565b005b6112fe6004803603602081101561125e57600080fd5b810190808035906020019064010000000081111561127b57600080fd5b82018360208201111561128d57600080fd5b803590602001918460208302840111640100000000831117156112af57600080fd5b919080806020026020016040519081016040528093929190818152602001838360200280828437600081840152601f19601f8201169050808301925050505050505091929192905050506136bd565b005b6114606004803603608081101561131657600080fd5b81019080803590602001909291908035906020019064010000000081111561133d57600080fd5b82018360208201111561134f57600080fd5b8035906020019184602083028401116401000000008311171561137157600080fd5b919080806020026020016040519081016040528093929190818152602001838360200280828437600081840152601f19601f820116905080830192505050505050509192919290803590602001906401000000008111156113d157600080fd5b8201836020820111156113e357600080fd5b8035906020019184602083028401116401000000008311171561140557600080fd5b919080806020026020016040519081016040528093929190818152602001838360200280828437600081840152601f19601f8201169050808301925050505050505091929192908035151590602001909291905050506136d4565b005b8161146d8133611fb3565b6114c2576040517f08c379a000000000000000000000000000000000000000000000000000000000815260040180806020018281038252602d815260200180614dba602d913960400191505060405180910390fd5b6114ce838360016139f0565b505050565b60008160018015156114e4836119bd565b1515148161150a57604051806060016040528060328152602001614f0360329139611524565b604051806060016040528060388152602001614f35603891395b906115ca576040517f08c379a00000000000000000000000000000000000000000000000000000000081526004018080602001828103825283818151815260200191508051906020019080838360005b8381101561158f578082015181840152602081019050611574565b50505050905090810190601f1680156115bc5780820380516001836020036101000a031916815260200191505b509250505060405180910390fd5b50600160008573ffffffffffffffffffffffffffffffffffffffff1673ffffffffffffffffffffffffffffffffffffffff1681526020019081526020016000205492505050919050565b8161161f8133611fb3565b611674576040517f08c379a000000000000000000000000000000000000000000000000000000000815260040180806020018281038252602d815260200180614dba602d913960400191505060405180910390fd5b61168083836001613b73565b505050565b60075481565b6000818042101580156116a15750600454810142105b611713576040517f08c379a00000000000000000000000000000000000000000000000000000000081526004018080602001828103825260178152602001807f54696d657374616d70206973206e6f742076616c69642e00000000000000000081525060200191505060405180910390fd5b61190089601960f81b600060f81b308e8e8e8e8b60405160200180897effffffffffffffffffffffffffffffffffffffffffffffffffffffffffffff19167effffffffffffffffffffffffffffffffffffffffffffffffffffffffffffff19168152600101887effffffffffffffffffffffffffffffffffffffffffffffffffffffffffffff19167effffffffffffffffffffffffffffffffffffffffffffffffffffffffffffff191681526001018773ffffffffffffffffffffffffffffffffffffffff1673ffffffffffffffffffffffffffffffffffffffff1660601b815260140180614e1d603591396035018673ffffffffffffffffffffffffffffffffffffffff1673ffffffffffffffffffffffffffffffffffffffff1660601b81526014018573ffffffffffffffffffffffffffffffffffffffff1673ffffffffffffffffffffffffffffffffffffffff1660601b8152601401848051906020019060200280838360005b8381101561189857808201518184015260208101905061187d565b50505050905001838051906020019060200280838360005b838110156118cb5780820151818401526020810190506118b0565b5050505090500182815260200198505050505050505050604051602081830303815290604052805190602001208888886123b5565b611972576040517f08c379a00000000000000000000000000000000000000000000000000000000081526004018080602001828103825260128152602001807f5065726d697373696f6e2064656e6965642e000000000000000000000000000081525060200191505060405180910390fd5b6119808a8a8a8a6001613cf6565b91505098975050505050505050565b6119a361199b336114d3565b826000613fd9565b50565b6119ba6119b2336114d3565b826000613b73565b50565b6000611a07600160008473ffffffffffffffffffffffffffffffffffffffff1673ffffffffffffffffffffffffffffffffffffffff16815260200190815260200160002054612108565b9050919050565b81611a198133611fb3565b611a6e576040517f08c379a000000000000000000000000000000000000000000000000000000000815260040180806020018281038252602d815260200180614dba602d913960400191505060405180910390fd5b611a7a83836001613fd9565b505050565b6000611a8f843385856000613cf6565b90509392505050565b80804210158015611aac5750600454810142105b611b1e576040517f08c379a00000000000000000000000000000000000000000000000000000000081526004018080602001828103825260178152602001807f54696d657374616d70206973206e6f742076616c69642e00000000000000000081525060200191505060405180910390fd5b60008773ffffffffffffffffffffffffffffffffffffffff163373ffffffffffffffffffffffffffffffffffffffff161490508080611b8857508673ffffffffffffffffffffffffffffffffffffffff163373ffffffffffffffffffffffffffffffffffffffff16145b611bdd576040517f08c379a0000000000000000000000000000000000000000000000000000000008152600401808060200182810382526032815260200180614f966032913960400191505060405180910390fd5b6000611be8896114d3565b9050611dce82611bf85789611bfa565b885b601960f81b600060f81b3086611c28576040518060600160405280602f8152602001614cbb602f9139611c42565b604051806060016040528060298152602001614f6d602991395b868e8b60405160200180887effffffffffffffffffffffffffffffffffffffffffffffffffffffffffffff19167effffffffffffffffffffffffffffffffffffffffffffffffffffffffffffff19168152600101877effffffffffffffffffffffffffffffffffffffffffffffffffffffffffffff19167effffffffffffffffffffffffffffffffffffffffffffffffffffffffffffff191681526001018673ffffffffffffffffffffffffffffffffffffffff1673ffffffffffffffffffffffffffffffffffffffff1660601b815260140185805190602001908083835b60208310611d445780518252602082019150602081019050602083039250611d21565b6001836020036101000a0380198251168184511680821785525050505050509050018481526020018373ffffffffffffffffffffffffffffffffffffffff1673ffffffffffffffffffffffffffffffffffffffff1660601b8152601401828152602001975050505050505050604051602081830303815290604052805190602001208989896123b5565b611e40576040517f08c379a00000000000000000000000000000000000000000000000000000000081526004018080602001828103825260128152602001807f5065726d697373696f6e2064656e6965642e000000000000000000000000000081525060200191505060405180910390fd5b611e4a818961422b565b803373ffffffffffffffffffffffffffffffffffffffff167f1e0c87f4d9edce88868577315152d327d02ff25d2cb9384cd6ee609a9f56b64e8b8b6000604051808473ffffffffffffffffffffffffffffffffffffffff1673ffffffffffffffffffffffffffffffffffffffff1681526020018373ffffffffffffffffffffffffffffffffffffffff1673ffffffffffffffffffffffffffffffffffffffff16815260200182151515158152602001935050505060405180910390a3505050505050505050565b6000611f1c336114d3565b9050611f288133614532565b803373ffffffffffffffffffffffffffffffffffffffff167f04095b6a64a9a32bafa887e731a82f91cdec3bf819389deea6aa34a488034f7d336000604051808373ffffffffffffffffffffffffffffffffffffffff1673ffffffffffffffffffffffffffffffffffffffff168152602001821515151581526020019250505060405180910390a350565b600080600084815260200190815260200160002060030173__AddressSet____________________________633412d5f29091846040518363ffffffff1660e01b8152600401808381526020018273ffffffffffffffffffffffffffffffffffffffff1673ffffffffffffffffffffffffffffffffffffffff1681526020019250505060206040518083038186803b15801561204e57600080fd5b505af4158015612062573d6000803e3d6000fd5b505050506040513d602081101561207857600080fd5b8101908080519060200190929190505050905092915050565b60045481565b816120a28133611fb3565b6120f7576040517f08c379a000000000000000000000000000000000000000000000000000000000815260040180806020018281038252602d815260200180614dba602d913960400191505060405180910390fd5b6121038383600161462a565b505050565b60006002548210801561211b5750600082115b9050919050565b61213661212e336114d3565b8260006147ad565b50565b600060608060608461214a81612108565b6121bc576040517f08c379a000000000000000000000000000000000000000000000000000000000815260040180806020018281038252601c8152602001807f546865206964656e7469747920646f6573206e6f742065786973742e0000000081525060200191505060405180910390fd5b600080600088815260200190815260200160002090508060000160009054906101000a900473ffffffffffffffffffffffffffffffffffffffff168160010160000182600301600001836005016000018280548060200260200160405190810160405280929190818152602001828054801561228d57602002820191906000526020600020905b8160009054906101000a900473ffffffffffffffffffffffffffffffffffffffff1673ffffffffffffffffffffffffffffffffffffffff1681526020019060010190808311612243575b505050505092508180548060200260200160405190810160405280929190818152602001828054801561231557602002820191906000526020600020905b8160009054906101000a900473ffffffffffffffffffffffffffffffffffffffff1673ffffffffffffffffffffffffffffffffffffffff16815260200190600101908083116122cb575b505050505091508080548060200260200160405190810160405280929190818152602001828054801561239d57602002820191906000526020600020905b8160009054906101000a900473ffffffffffffffffffffffffffffffffffffffff1673ffffffffffffffffffffffffffffffffffffffff1681526020019060010190808311612353575b50505050509050955095509550955050509193509193565b60006123c48686868686614930565b806123d857506123d786868686866149d2565b5b905095945050505050565b856123ed81612108565b61245f576040517f08c379a000000000000000000000000000000000000000000000000000000000815260040180806020018281038252601c8152602001807f546865206964656e7469747920646f6573206e6f742065786973742e0000000081525060200191505060405180910390fd5b85600080151561246e836119bd565b1515148161249457604051806060016040528060328152602001614f03603291396124ae565b604051806060016040528060388152602001614f35603891395b90612554576040517f08c379a00000000000000000000000000000000000000000000000000000000081526004018080602001828103825283818151815260200191508051906020019080838360005b838110156125195780820151818401526020810190506124fe565b50505050905090810190601f1680156125465780820380516001836020036101000a031916815260200191505b509250505060405180910390fd5b50838042101580156125695750600454810142105b6125db576040517f08c379a00000000000000000000000000000000000000000000000000000000081526004018080602001828103825260178152602001807f54696d657374616d70206973206e6f742076616c69642e00000000000000000081525060200191505060405180910390fd5b6125e48a614aa0565b612656576040517f08c379a000000000000000000000000000000000000000000000000000000000815260040180806020018281038252601c8152602001807f43616e6e6f742074726967676572207265636f76657279207965742e0000000081525060200191505060405180910390fd5b60008060008c815260200190815260200160002090506126758b614ac6565b15612727578060000160009054906101000a900473ffffffffffffffffffffffffffffffffffffffff1673ffffffffffffffffffffffffffffffffffffffff163373ffffffffffffffffffffffffffffffffffffffff1614612722576040517f08c379a0000000000000000000000000000000000000000000000000000000008152600401808060200182810382526037815260200180614cea6037913960400191505060405180910390fd5b6127e2565b600560008c815260200190815260200160002060010160009054906101000a900473ffffffffffffffffffffffffffffffffffffffff1673ffffffffffffffffffffffffffffffffffffffff163373ffffffffffffffffffffffffffffffffffffffff16146127e1576040517f08c379a0000000000000000000000000000000000000000000000000000000008152600401808060200182810382526040815260200180614d216040913960400191505060405180910390fd5b5b6129368a601960f81b600060f81b308f8f8c60405160200180877effffffffffffffffffffffffffffffffffffffffffffffffffffffffffffff19167effffffffffffffffffffffffffffffffffffffffffffffffffffffffffffff19168152600101867effffffffffffffffffffffffffffffffffffffffffffffffffffffffffffff19167effffffffffffffffffffffffffffffffffffffffffffffffffffffffffffff191681526001018573ffffffffffffffffffffffffffffffffffffffff1673ffffffffffffffffffffffffffffffffffffffff1660601b815260140180614de7603691396036018481526020018373ffffffffffffffffffffffffffffffffffffffff1673ffffffffffffffffffffffffffffffffffffffff1660601b81526014018281526020019650505050505050604051602081830303815290604052805190602001208b8b8b6123b5565b6129a8576040517f08c379a00000000000000000000000000000000000000000000000000000000081526004018080602001828103825260128152602001807f5065726d697373696f6e2064656e6965642e000000000000000000000000000081525060200191505060405180910390fd5b604051806040016040528042815260200182600101600001604051602001808280548015612a2b57602002820191906000526020600020905b8160009054906101000a900473ffffffffffffffffffffffffffffffffffffffff1673ffffffffffffffffffffffffffffffffffffffff16815260200190600101908083116129e1575b505091505060405160208183030381529060405280519060200120815250600660008d815260200190815260200160002060008201518160000155602082015181600101559050508a3373ffffffffffffffffffffffffffffffffffffffff167f2fe95fbd211d0471c596b1f81d913d1389d5d1ddeb2bdd96143acc651aa3b02e836001016000018d60405180806020018373ffffffffffffffffffffffffffffffffffffffff1673ffffffffffffffffffffffffffffffffffffffff1681526020018281038252848181548152602001915080548015612b6157602002820191906000526020600020905b8160009054906101000a900473ffffffffffffffffffffffffffffffffffffffff1673ffffffffffffffffffffffffffffffffffffffff1681526020019060010190808311612b17575b5050935050505060405180910390a3612b7c81336000614aec565b612b868b8b61422b565b5050505050505050505050565b81612b9e8133611fb3565b612bf3576040517f08c379a000000000000000000000000000000000000000000000000000000000815260040180806020018281038252602d815260200180614dba602d913960400191505060405180910390fd5b612bff838360016147ad565b505050565b60025481565b600080600084815260200190815260200160002060010173__AddressSet____________________________633412d5f29091846040518363ffffffff1660e01b8152600401808381526020018273ffffffffffffffffffffffffffffffffffffffff1673ffffffffffffffffffffffffffffffffffffffff1681526020019250505060206040518083038186803b158015612ca557600080fd5b505af4158015612cb9573d6000803e3d6000fd5b505050506040513d6020811015612ccf57600080fd5b8101908080519060200190929190505050905092915050565b80600060028110612cf557fe5b6020020151804210158015612d0d5750600454810142105b612d7f576040517f08c379a00000000000000000000000000000000000000000000000000000000081526004018080602001828103825260178152602001807f54696d657374616d70206973206e6f742076616c69642e00000000000000000081525060200191505060405180910390fd5b81600160028110612d8c57fe5b6020020151804210158015612da45750600454810142105b612e16576040517f08c379a00000000000000000000000000000000000000000000000000000000081526004018080602001828103825260178152602001807f54696d657374616d70206973206e6f742076616c69642e00000000000000000081525060200191505060405180910390fd5b6000612e21896114d3565b9050612fbb89601960f81b600060f81b30858d8a600060028110612e4157fe5b602002015160405160200180877effffffffffffffffffffffffffffffffffffffffffffffffffffffffffffff19167effffffffffffffffffffffffffffffffffffffffffffffffffffffffffffff19168152600101867effffffffffffffffffffffffffffffffffffffffffffffffffffffffffffff19167effffffffffffffffffffffffffffffffffffffffffffffffffffffffffffff191681526001018573ffffffffffffffffffffffffffffffffffffffff1673ffffffffffffffffffffffffffffffffffffffff1660601b815260140180614cbb602f9139602f018481526020018373ffffffffffffffffffffffffffffffffffffffff1673ffffffffffffffffffffffffffffffffffffffff1660601b815260140182815260200196505050505050506040516020818303038152906040528051906020012089600060028110612f8d57fe5b602002015189600060028110612f9f57fe5b602002015189600060028110612fb157fe5b60200201516123b5565b613010576040517f08c379a0000000000000000000000000000000000000000000000000000000008152600401808060200182810382526029815260200180614e526029913960400191505060405180910390fd5b6131a888601960f81b600060f81b30858d8a60016002811061302e57fe5b602002015160405160200180877effffffffffffffffffffffffffffffffffffffffffffffffffffffffffffff19167effffffffffffffffffffffffffffffffffffffffffffffffffffffffffffff19168152600101867effffffffffffffffffffffffffffffffffffffffffffffffffffffffffffff19167effffffffffffffffffffffffffffffffffffffffffffffffffffffffffffff191681526001018573ffffffffffffffffffffffffffffffffffffffff1673ffffffffffffffffffffffffffffffffffffffff1660601b815260140180614f6d602991396029018481526020018373ffffffffffffffffffffffffffffffffffffffff1673ffffffffffffffffffffffffffffffffffffffff1660601b81526014018281526020019650505050505050604051602081830303815290604052805190602001208960016002811061317a57fe5b60200201518960016002811061318c57fe5b60200201518960016002811061319e57fe5b60200201516123b5565b6131fd576040517f08c379a0000000000000000000000000000000000000000000000000000000008152600401808060200182810382526026815260200180614d616026913960400191505060405180910390fd5b613207818961422b565b803373ffffffffffffffffffffffffffffffffffffffff167f1e0c87f4d9edce88868577315152d327d02ff25d2cb9384cd6ee609a9f56b64e8b8b6001604051808473ffffffffffffffffffffffffffffffffffffffff1673ffffffffffffffffffffffffffffffffffffffff1681526020018373ffffffffffffffffffffffffffffffffffffffff1673ffffffffffffffffffffffffffffffffffffffff16815260200182151515158152602001935050505060405180910390a3505050505050505050565b60035481565b6132e86132e0336114d3565b82600161462a565b50565b600080600084815260200190815260200160002060050173__AddressSet____________________________633412d5f29091846040518363ffffffff1660e01b8152600401808381526020018273ffffffffffffffffffffffffffffffffffffffff1673ffffffffffffffffffffffffffffffffffffffff1681526020019250505060206040518083038186803b15801561338657600080fd5b505af415801561339a573d6000803e3d6000fd5b505050506040513d60208110156133b057600080fd5b8101908080519060200190929190505050905092915050565b808042101580156133dd5750600454810142105b61344f576040517f08c379a00000000000000000000000000000000000000000000000000000000081526004018080602001828103825260178152602001807f54696d657374616d70206973206e6f742076616c69642e00000000000000000081525060200191505060405180910390fd5b600061345a876114d3565b90506135b087601960f81b600060f81b30858c8960405160200180877effffffffffffffffffffffffffffffffffffffffffffffffffffffffffffff19167effffffffffffffffffffffffffffffffffffffffffffffffffffffffffffff19168152600101867effffffffffffffffffffffffffffffffffffffffffffffffffffffffffffff19167effffffffffffffffffffffffffffffffffffffffffffffffffffffffffffff191681526001018573ffffffffffffffffffffffffffffffffffffffff1673ffffffffffffffffffffffffffffffffffffffff1660601b815260140180614d87603391396033018481526020018373ffffffffffffffffffffffffffffffffffffffff1673ffffffffffffffffffffffffffffffffffffffff1660601b81526014018281526020019650505050505050604051602081830303815290604052805190602001208888886123b5565b613622576040517f08c379a00000000000000000000000000000000000000000000000000000000081526004018080602001828103825260128152602001807f5065726d697373696f6e2064656e6965642e000000000000000000000000000081525060200191505060405180910390fd5b61362c8188614532565b803373ffffffffffffffffffffffffffffffffffffffff167f04095b6a64a9a32bafa887e731a82f91cdec3bf819389deea6aa34a488034f7d896001604051808373ffffffffffffffffffffffffffffffffffffffff1673ffffffffffffffffffffffffffffffffffffffff168152602001821515151581526020019250505060405180910390a350505050505050565b6136d16136c9336114d3565b8260006139f0565b50565b836136de81612108565b613750576040517f08c379a000000000000000000000000000000000000000000000000000000000815260040180806020018281038252601c8152602001807f546865206964656e7469747920646f6573206e6f742065786973742e0000000081525060200191505060405180910390fd5b61375985614aa0565b156137af576040517f08c379a0000000000000000000000000000000000000000000000000000000008152600401808060200182810382526029815260200180614e7b6029913960400191505060405180910390fd5b600080600087815260200190815260200160002090506137cd614c22565b60405180602001604052803373ffffffffffffffffffffffffffffffffffffffff1673ffffffffffffffffffffffffffffffffffffffff168152509050600660008881526020019081526020016000206001015486828760405160200180848051906020019060200280838360005b8381101561385757808201518184015260208101905061383c565b5050505090500183600160200280838360005b8381101561388557808201518184015260208101905061386a565b50505050905001828051906020019060200280838360005b838110156138b857808201518184015260208101905061389d565b5050505090500193505050506040516020818303038152906040528051906020012014613930576040517f08c379a000000000000000000000000000000000000000000000000000000000815260040180806020018281038252605f815260200180614ea4605f913960600191505060405180910390fd5b863373ffffffffffffffffffffffffffffffffffffffff167f1807cc67f627d55c0a797a6c603fa124978caf5bb45c1748329489fd0185b9ef8460000160009054906101000a900473ffffffffffffffffffffffffffffffffffffffff1687604051808373ffffffffffffffffffffffffffffffffffffffff1673ffffffffffffffffffffffffffffffffffffffff168152602001821515151581526020019250505060405180910390a36139e782600086614aec565b50505050505050565b6000806000858152602001908152602001600020905060005b8351811015613b6c578160050173__AddressSet____________________________63989779e99091868481518110613a3e57fe5b60200260200101516040518363ffffffff1660e01b8152600401808381526020018273ffffffffffffffffffffffffffffffffffffffff1673ffffffffffffffffffffffffffffffffffffffff1681526020019250505060006040518083038186803b158015613aad57600080fd5b505af4158015613ac1573d6000803e3d6000fd5b50505050843373ffffffffffffffffffffffffffffffffffffffff167f8d2c0379f93ea94639b25aaf145689b0db73ba107f5b9972bbd6238d7b0440ac868481518110613b0a57fe5b602002602001015186604051808373ffffffffffffffffffffffffffffffffffffffff1673ffffffffffffffffffffffffffffffffffffffff168152602001821515151581526020019250505060405180910390a38080600101915050613a09565b5050505050565b6000806000858152602001908152602001600020905060005b8351811015613cef578160030173__AddressSet____________________________638c9d1e419091868481518110613bc157fe5b60200260200101516040518363ffffffff1660e01b8152600401808381526020018273ffffffffffffffffffffffffffffffffffffffff1673ffffffffffffffffffffffffffffffffffffffff1681526020019250505060006040518083038186803b158015613c3057600080fd5b505af4158015613c44573d6000803e3d6000fd5b50505050843373ffffffffffffffffffffffffffffffffffffffff167fe41b11c1b8e658dea501b4a432bd3f7b3e6db83ef57ac16c52e5f288edeffec4868481518110613c8d57fe5b602002602001015186604051808373ffffffffffffffffffffffffffffffffffffffff1673ffffffffffffffffffffffffffffffffffffffff168152602001821515151581526020019250505060405180910390a38080600101915050613b8c565b5050505050565b6000846000801515613d07836119bd565b15151481613d2d57604051806060016040528060328152602001614f0360329139613d47565b604051806060016040528060388152602001614f35603891395b90613ded576040517f08c379a00000000000000000000000000000000000000000000000000000000081526004018080602001828103825283818151815260200191508051906020019080838360005b83811015613db2578082015181840152602081019050613d97565b50505050905090810190601f168015613ddf5780820380516001836020036101000a031916815260200191505b509250505060405180910390fd5b5060006002600081548092919060010191905055905060008060008381526020019081526020016000209050898160000160006101000a81548173ffffffffffffffffffffffffffffffffffffffff021916908373ffffffffffffffffffffffffffffffffffffffff160217905550613e66828a61422b565b613e718289886147ad565b613e7c8288886139f0565b813373ffffffffffffffffffffffffffffffffffffffff167fe541733a4670852051762d3cdb7d9123bea21d01e252aa39ca403c8d0f5ab66c8c8c8c8c8c604051808673ffffffffffffffffffffffffffffffffffffffff1673ffffffffffffffffffffffffffffffffffffffff1681526020018573ffffffffffffffffffffffffffffffffffffffff1673ffffffffffffffffffffffffffffffffffffffff168152602001806020018060200184151515158152602001838103835286818151815260200191508051906020019060200280838360005b83811015613f6f578082015181840152602081019050613f54565b50505050905001838103825285818151815260200191508051906020019060200280838360005b83811015613fb1578082015181840152602081019050613f96565b5050505090500197505050505050505060405180910390a38194505050505095945050505050565b60008060008581526020019081526020016000209050613ff884614ac6565b61404d576040517f08c379a0000000000000000000000000000000000000000000000000000000008152600401808060200182810382526030815260200180614c8b6030913960400191505060405180910390fd5b60405180604001604052804281526020018260000160009054906101000a900473ffffffffffffffffffffffffffffffffffffffff1673ffffffffffffffffffffffffffffffffffffffff16815250600560008681526020019081526020016000206000820151816000015560208201518160010160006101000a81548173ffffffffffffffffffffffffffffffffffffffff021916908373ffffffffffffffffffffffffffffffffffffffff160217905550905050833373ffffffffffffffffffffffffffffffffffffffff167fd9d54f9caf1bb2f4f815d22df297e7b73291ee08a95df2d47b0b03378ebe7c5d8360000160009054906101000a900473ffffffffffffffffffffffffffffffffffffffff168686604051808473ffffffffffffffffffffffffffffffffffffffff1673ffffffffffffffffffffffffffffffffffffffff1681526020018373ffffffffffffffffffffffffffffffffffffffff1673ffffffffffffffffffffffffffffffffffffffff16815260200182151515158152602001935050505060405180910390a3828160000160006101000a81548173ffffffffffffffffffffffffffffffffffffffff021916908373ffffffffffffffffffffffffffffffffffffffff16021790555050505050565b80600080151561423a836119bd565b1515148161426057604051806060016040528060328152602001614f036032913961427a565b604051806060016040528060388152602001614f35603891395b90614320576040517f08c379a00000000000000000000000000000000000000000000000000000000081526004018080602001828103825283818151815260200191508051906020019080838360005b838110156142e55780820151818401526020810190506142ca565b50505050905090810190601f1680156143125780820380516001836020036101000a031916815260200191505b509250505060405180910390fd5b5060035460008086815260200190815260200160002060010173__AddressSet____________________________63c6756c7390916040518263ffffffff1660e01b81526004018082815260200191505060206040518083038186803b15801561438957600080fd5b505af415801561439d573d6000803e3d6000fd5b505050506040513d60208110156143b357600080fd5b810190808051906020019092919050505010614437576040517f08c379a00000000000000000000000000000000000000000000000000000000081526004018080602001828103825260138152602001807f546f6f206d616e79206164647265737365732e0000000000000000000000000081525060200191505060405180910390fd5b60008085815260200190815260200160002060010173__AddressSet____________________________63989779e99091856040518363ffffffff1660e01b8152600401808381526020018273ffffffffffffffffffffffffffffffffffffffff1673ffffffffffffffffffffffffffffffffffffffff1681526020019250505060006040518083038186803b1580156144d057600080fd5b505af41580156144e4573d6000803e3d6000fd5b5050505083600160008573ffffffffffffffffffffffffffffffffffffffff1673ffffffffffffffffffffffffffffffffffffffff1681526020019081526020016000208190555050505050565b60008083815260200190815260200160002060010173__AddressSet____________________________638c9d1e419091836040518363ffffffff1660e01b8152600401808381526020018273ffffffffffffffffffffffffffffffffffffffff1673ffffffffffffffffffffffffffffffffffffffff1681526020019250505060006040518083038186803b1580156145cb57600080fd5b505af41580156145df573d6000803e3d6000fd5b50505050600160008273ffffffffffffffffffffffffffffffffffffffff1673ffffffffffffffffffffffffffffffffffffffff168152602001908152602001600020600090555050565b6000806000858152602001908152602001600020905060005b83518110156147a6578160050173__AddressSet____________________________638c9d1e41909186848151811061467857fe5b60200260200101516040518363ffffffff1660e01b8152600401808381526020018273ffffffffffffffffffffffffffffffffffffffff1673ffffffffffffffffffffffffffffffffffffffff1681526020019250505060006040518083038186803b1580156146e757600080fd5b505af41580156146fb573d6000803e3d6000fd5b50505050843373ffffffffffffffffffffffffffffffffffffffff167f35f17668a4aadc48b2952cd27f0c5017b357497a1f20cedf4713d91d019a63a886848151811061474457fe5b602002602001015186604051808373ffffffffffffffffffffffffffffffffffffffff1673ffffffffffffffffffffffffffffffffffffffff168152602001821515151581526020019250505060405180910390a38080600101915050614643565b5050505050565b6000806000858152602001908152602001600020905060005b8351811015614929578160030173__AddressSet____________________________63989779e990918684815181106147fb57fe5b60200260200101516040518363ffffffff1660e01b8152600401808381526020018273ffffffffffffffffffffffffffffffffffffffff1673ffffffffffffffffffffffffffffffffffffffff1681526020019250505060006040518083038186803b15801561486a57600080fd5b505af415801561487e573d6000803e3d6000fd5b50505050843373ffffffffffffffffffffffffffffffffffffffff167fd2af86288d6ec28d93c5459bdc5a21da89b340c28ad430327e40139c1178986f8684815181106148c757fe5b602002602001015186604051808373ffffffffffffffffffffffffffffffffffffffff1673ffffffffffffffffffffffffffffffffffffffff168152602001821515151581526020019250505060405180910390a380806001019150506147c6565b5050505050565b60008573ffffffffffffffffffffffffffffffffffffffff1660018686868660405160008152602001604052604051808581526020018460ff1660ff1681526020018381526020018281526020019450505050506020604051602081039080840390855afa1580156149a6573d6000803e3d6000fd5b5050506020604051035173ffffffffffffffffffffffffffffffffffffffff1614905095945050505050565b600060606040518060400160405280601c81526020017f19457468657265756d205369676e6564204d6573736167653a0a3332000000008152509050614a948782886040516020018083805190602001908083835b60208310614a4a5780518252602082019150602081019050602083039250614a27565b6001836020036101000a0380198251168184511680821785525050505050509050018281526020019250505060405160208183030381529060405280519060200120878787614930565b91505095945050505050565b600060075460066000848152602001908152602001600020600001540142119050919050565b600060075460056000848152602001908152602001600020600001540142119050919050565b60005b8360010160000180549050811015614b8d5760016000856001016000018381548110614b1757fe5b9060005260206000200160009054906101000a900473ffffffffffffffffffffffffffffffffffffffff1673ffffffffffffffffffffffffffffffffffffffff1673ffffffffffffffffffffffffffffffffffffffff168152602001908152602001600020600090558080600101915050614aef565b508260010160008082016000614ba39190614c44565b50508260030160008082016000614bba9190614c44565b50508015614bda578260050160008082016000614bd79190614c44565b50505b818360000160006101000a81548173ffffffffffffffffffffffffffffffffffffffff021916908373ffffffffffffffffffffffffffffffffffffffff160217905550505050565b6040518060200160405280600190602082028038833980820191505090505090565b5080546000825590600052602060002090810190614c629190614c65565b50565b614c8791905b80821115614c83576000816000905550600101614c6b565b5090565b9056fe43616e6e6f7420747269676765722061206368616e676520696e207265636f766572792061646472657373207965742e4920617574686f72697a6520616464696e672074686973206164647265737320746f206d79204964656e746974792e4f6e6c79207468652063757272656e74207265636f7665727920616464726573732063616e2074726967676572207265636f766572792e4f6e6c792074686520726563656e746c792072656d6f766564207265636f7665727920616464726573732063616e2074726967676572207265636f766572792e5065726d697373696f6e2064656e6965642066726f6d206164647265737320746f206164642e4920617574686f72697a652072656d6f76696e67207468697320616464726573732066726f6d206d79204964656e746974792e546865206964656e7469747920686173206e6f742073657420746865207061737365642070726f76696465722e4920617574686f72697a65206265696e6720616464656420746f2074686973204964656e7469747920766961207265636f766572792e4920617574686f72697a6520746865206372656174696f6e206f6620616e204964656e74697479206f6e206d7920626568616c662e5065726d697373696f6e2064656e6965642066726f6d20617070726f76696e6720616464726573732e5265636f7665727920686173206e6f7420726563656e746c79206265656e207472696767657265642e43616e6e6f742064657374726f7920616e2045494e2066726f6d20616e2061646472657373207468617420776173206e6f7420726563656e746c792072656d6f7665642066726f6d20736169642045494e20766961207265636f766572792e5468652070617373656420616464726573732068617320616e206964656e74697479206275742073686f756c64206e6f742e54686520706173736564206164647265737320646f6573206e6f74206861766520616e206964656e74697479206275742073686f756c642e4920617574686f72697a65206265696e6720616464656420746f2074686973204964656e746974792e4f6e65206f7220626f7468206f6620746865207061737365642061646472657373657320617265206d616c666f726d65642ea265627a7a72315820085c671d1885cd554ed31dc2c728655e3c12eb8a45c94b119aead1185b13bc8d64736f6c63430005100032",
  "source": "pragma solidity ^0.5.0;\n\nimport \"./SignatureVerifier.sol\";\nimport \"./AddressSet/AddressSet.sol\";\n\n/// @title The ERC-1484 Identity Registry.\n/// @author Noah Zinsmeister\n/// @author Andy Chorlian\ncontract IdentityRegistry is SignatureVerifier {\n    using AddressSet for AddressSet.Set;\n\n\n    // Identity Data Structure and Parameters //////////////////////////////////////////////////////////////////////////\n\n    struct Identity {\n        address recoveryAddress;\n        AddressSet.Set associatedAddresses;\n        AddressSet.Set providers;\n        AddressSet.Set resolvers;\n    }\n\n    mapping (uint => Identity) private identityDirectory;\n    mapping (address => uint) private associatedAddressDirectory;\n\n    uint public nextEIN = 1;\n    uint public maxAssociatedAddresses = 50;\n\n\n    // Signature Timeout ///////////////////////////////////////////////////////////////////////////////////////////////\n\n    uint public signatureTimeout = 1 days;\n\n    /// @dev Enforces that the passed timestamp is within signatureTimeout seconds of now.\n    /// @param timestamp The timestamp to check the validity of.\n    modifier ensureSignatureTimeValid(uint timestamp) {\n        require(\n            // solium-disable-next-line security/no-block-members\n            block.timestamp >= timestamp && block.timestamp < timestamp + signatureTimeout, \"Timestamp is not valid.\"\n        );\n        _;\n    }\n\n\n    // Recovery Address Change Logging /////////////////////////////////////////////////////////////////////////////////\n\n    struct RecoveryAddressChange {\n        uint timestamp;\n        address oldRecoveryAddress;\n    }\n\n    mapping (uint => RecoveryAddressChange) private recoveryAddressChangeLogs;\n\n\n    // Recovery Logging ////////////////////////////////////////////////////////////////////////////////////////////////\n\n    struct Recovery {\n        uint timestamp;\n        bytes32 hashedOldAssociatedAddresses;\n    }\n\n    mapping (uint => Recovery) private recoveryLogs;\n\n\n    // Recovery Timeout ////////////////////////////////////////////////////////////////////////////////////////////////\n\n    uint public recoveryTimeout = 2 weeks;\n\n    /// @dev Checks if the passed EIN has changed their recovery address within recoveryTimeout seconds of now.\n    function canChangeRecoveryAddress(uint ein) private view returns (bool) {\n        // solium-disable-next-line security/no-block-members\n        return block.timestamp > recoveryAddressChangeLogs[ein].timestamp + recoveryTimeout;\n    }\n\n    /// @dev Checks if the passed EIN has recovered within recoveryTimeout seconds of now.\n    function canRecover(uint ein) private view returns (bool) {\n        // solium-disable-next-line security/no-block-members\n        return block.timestamp > recoveryLogs[ein].timestamp + recoveryTimeout;\n    }\n\n\n    // Identity View Functions /////////////////////////////////////////////////////////////////////////////////////////\n\n    /// @notice Checks if the passed EIN exists.\n    /// @dev Does not throw.\n    /// @param ein The EIN to check the existence of.\n    /// @return true if the passed EIN exists, false otherwise.\n    function identityExists(uint ein) public view returns (bool) {\n        return ein < nextEIN && ein > 0;\n    }\n\n    /// @dev Ensures that the passed EIN exists.\n    /// @param ein The EIN to check the existence of.\n    modifier _identityExists(uint ein) {\n        require(identityExists(ein), \"The identity does not exist.\");\n        _;\n    }\n\n    /// @notice Checks if the passed address is associated with an Identity.\n    /// @dev Does not throw.\n    /// @param _address The address to check.\n    /// @return true if the passed address is associated with an Identity, false otherwise.\n    function hasIdentity(address _address) public view returns (bool) {\n        return identityExists(associatedAddressDirectory[_address]);\n    }\n\n    /// @dev Ensures that the passed address is or is not associated with an Identity.\n    /// @param _address The address to check.\n    /// @param check If true, ensures that the address has an Identity, if false, vice versa.\n    /// @return true if the associated status is equal to check, false otherwise.\n    modifier _hasIdentity(address _address, bool check) {\n        require(\n            hasIdentity(_address) == check,\n            check ?\n                \"The passed address does not have an identity but should.\" :\n                \"The passed address has an identity but should not.\"\n        );\n        _;\n    }\n\n    /// @notice Gets the EIN associated with the passed address.\n    /// @dev Throws if the address is not associated with an Identity.\n    /// @param _address The address to check.\n    /// @return The associated EIN.\n    function getEIN(address _address) public view _hasIdentity(_address, true) returns (uint ein) {\n        return associatedAddressDirectory[_address];\n    }\n\n    /// @notice Checks whether the passed EIN is associated with the passed address.\n    /// @dev Does not throw.\n    /// @param ein The EIN to check.\n    /// @param _address The address to check.\n    /// @return true if the passed address is associated with the passed EIN, false otherwise.\n    function isAssociatedAddressFor(uint ein, address _address) public view returns (bool) {\n        return identityDirectory[ein].associatedAddresses.contains(_address);\n    }\n\n    /// @notice Checks whether the passed provider is set for the passed EIN.\n    /// @dev Does not throw.\n    /// @param ein The EIN to check.\n    /// @param provider The provider to check.\n    /// @return true if the provider is set for the passed EIN, false otherwise.\n    function isProviderFor(uint ein, address provider) public view returns (bool) {\n        return identityDirectory[ein].providers.contains(provider);\n    }\n\n    /// @dev Ensures that the msg.sender is a provider for the passed EIN.\n    /// @param ein The EIN to check.\n    modifier _isProviderFor(uint ein) {\n        require(isProviderFor(ein, msg.sender), \"The identity has not set the passed provider.\");\n        _;\n    }\n\n    /// @notice Checks whether the passed resolver is set for the passed EIN.\n    /// @dev Does not throw.\n    /// @param ein The EIN to check.\n    /// @param resolver The resolver to check.\n    /// @return true if the resolver is set for the passed EIN, false otherwise.\n    function isResolverFor(uint ein, address resolver) public view returns (bool) {\n        return identityDirectory[ein].resolvers.contains(resolver);\n    }\n\n    /// @notice Gets all identity-related information for the passed EIN.\n    /// @dev Throws if the passed EIN does not exist.\n    /// @param ein The EIN to get information for.\n    /// @return All the information for the Identity denominated by the passed EIN.\n    function getIdentity(uint ein) public view _identityExists(ein)\n        returns (\n            address recoveryAddress,\n            address[] memory associatedAddresses, address[] memory providers, address[] memory resolvers\n        )\n    {\n        Identity storage _identity = identityDirectory[ein];\n\n        return (\n            _identity.recoveryAddress,\n            _identity.associatedAddresses.members,\n            _identity.providers.members,\n            _identity.resolvers.members\n        );\n    }\n\n\n    // Identity Management Functions ///////////////////////////////////////////////////////////////////////////////////\n\n    /// @notice Create an new Identity for the transaction sender.\n    /// @dev Sets the msg.sender as the only associatedAddress.\n    /// @param recoveryAddress A recovery address to set for the new Identity.\n    /// @param providers A list of providers to set for the new Identity.\n    /// @param resolvers A list of resolvers to set for the new Identity.\n    /// @return The EIN of the new Identity.\n    function createIdentity(address recoveryAddress, address[] memory providers, address[] memory resolvers)\n        public returns (uint ein)\n    {\n        return createIdentity(recoveryAddress, msg.sender, providers, resolvers, false);\n    }\n\n    /// @notice Allows creation of a new Identity for the passed associatedAddress.\n    /// @param recoveryAddress A recovery address to set for the new Identity.\n    /// @param associatedAddress An associated address to set for the new Identity (must have produced the signature).\n    /// @param providers A list of providers to set for the new Identity.\n    /// @param resolvers A list of resolvers to set for the new Identity.\n    /// @param v The v component of the signature.\n    /// @param r The r component of the signature.\n    /// @param s The s component of the signature.\n    /// @param timestamp The timestamp of the signature.\n    /// @return The EIN of the new Identity.\n    function createIdentityDelegated(\n        address recoveryAddress, address associatedAddress, address[] memory providers, address[] memory resolvers,\n        uint8 v, bytes32 r, bytes32 s, uint timestamp\n    )\n        public ensureSignatureTimeValid(timestamp) returns (uint ein)\n    {\n        require(\n            isSigned(\n                associatedAddress,\n                keccak256(\n                    abi.encodePacked(\n                        byte(0x19), byte(0), address(this),\n                        \"I authorize the creation of an Identity on my behalf.\",\n                        recoveryAddress, associatedAddress, providers, resolvers, timestamp\n                    )\n                ),\n                v, r, s\n            ),\n            \"Permission denied.\"\n        );\n\n        return createIdentity(recoveryAddress, associatedAddress, providers, resolvers, true);\n    }\n\n    /// @dev Common logic for all identity creation.\n    function createIdentity(\n        address recoveryAddress,\n        address associatedAddress, address[] memory providers, address[] memory resolvers, bool delegated\n    )\n        private _hasIdentity(associatedAddress, false) returns (uint)\n    {\n        uint ein = nextEIN++;\n        Identity storage _identity = identityDirectory[ein];\n\n        _identity.recoveryAddress = recoveryAddress;\n        addAssociatedAddress(ein, associatedAddress);\n        addProviders(ein, providers, delegated);\n        addResolvers(ein, resolvers, delegated);\n\n        emit IdentityCreated(msg.sender, ein, recoveryAddress, associatedAddress, providers, resolvers, delegated);\n\n        return ein;\n    }\n\n\n    /// @notice Allows an associated address to add another associated address to its Identity.\n    /// @param approvingAddress An associated address for an Identity.\n    /// @param addressToAdd A new address to set for the Identity of the sender.\n    /// @param v The v component of the signature.\n    /// @param r The r component of the signature.\n    /// @param s The s component of the signature.\n    /// @param timestamp The timestamp of the signature.\n    function addAssociatedAddress(\n        address approvingAddress, address addressToAdd, uint8 v, bytes32 r, bytes32 s, uint timestamp\n    )\n        public ensureSignatureTimeValid(timestamp)\n    {\n        bool fromApprovingAddress = msg.sender == approvingAddress;\n        require(\n            fromApprovingAddress || msg.sender == addressToAdd, \"One or both of the passed addresses are malformed.\"\n        );\n\n        uint ein = getEIN(approvingAddress);\n\n        require(\n            isSigned(\n                fromApprovingAddress ? addressToAdd : approvingAddress,\n                keccak256(\n                    abi.encodePacked(\n                        byte(0x19), byte(0), address(this),\n                        fromApprovingAddress ?\n                            \"I authorize being added to this Identity.\" :\n                            \"I authorize adding this address to my Identity.\",\n                        ein, addressToAdd, timestamp\n                    )\n                ),\n                v, r, s\n            ),\n            \"Permission denied.\"\n        );\n\n        addAssociatedAddress(ein, addressToAdd);\n\n        emit AssociatedAddressAdded(msg.sender, ein, approvingAddress, addressToAdd, false);\n    }\n\n    /// @notice Allows addition of an associated address to an Identity.\n    /// @dev The first signature must be that of the approvingAddress.\n    /// @param approvingAddress An associated address for an Identity.\n    /// @param addressToAdd A new address to set for the Identity of approvingAddress.\n    /// @param v The v component of the signatures.\n    /// @param r The r component of the signatures.\n    /// @param s The s component of the signatures.\n    /// @param timestamp The timestamp of the signatures.\n    function addAssociatedAddressDelegated(\n        address approvingAddress, address addressToAdd,\n        uint8[2] memory v, bytes32[2] memory r, bytes32[2] memory s, uint[2] memory timestamp\n    )\n        public ensureSignatureTimeValid(timestamp[0]) ensureSignatureTimeValid(timestamp[1])\n    {\n        uint ein = getEIN(approvingAddress);\n\n        require(\n            isSigned(\n                approvingAddress,\n                keccak256(\n                    abi.encodePacked(\n                        byte(0x19), byte(0), address(this),\n                        \"I authorize adding this address to my Identity.\",\n                        ein, addressToAdd, timestamp[0]\n                    )\n                ),\n                v[0], r[0], s[0]\n            ),\n            \"Permission denied from approving address.\"\n        );\n        require(\n            isSigned(\n                addressToAdd,\n                keccak256(\n                    abi.encodePacked(\n                        byte(0x19), byte(0), address(this),\n                        \"I authorize being added to this Identity.\",\n                        ein, addressToAdd, timestamp[1]\n                    )\n                ),\n                v[1], r[1], s[1]\n            ),\n            \"Permission denied from address to add.\"\n        );\n\n        addAssociatedAddress(ein, addressToAdd);\n\n        emit AssociatedAddressAdded(msg.sender, ein, approvingAddress, addressToAdd, true);\n    }\n\n    /// @dev Common logic for all address addition.\n    function addAssociatedAddress(uint ein, address addressToAdd) private _hasIdentity(addressToAdd, false) {\n        require(\n            identityDirectory[ein].associatedAddresses.length() < maxAssociatedAddresses, \"Too many addresses.\"\n        );\n\n        identityDirectory[ein].associatedAddresses.insert(addressToAdd);\n        associatedAddressDirectory[addressToAdd] = ein;\n    }\n\n    /// @notice Allows an associated address to remove itself from its Identity.\n    function removeAssociatedAddress() public {\n        uint ein = getEIN(msg.sender);\n\n        removeAssociatedAddress(ein, msg.sender);\n\n        emit AssociatedAddressRemoved(msg.sender, ein, msg.sender, false);\n    }\n\n    /// @notice Allows removal of an associated address from an Identity.\n    /// @param addressToRemove An associated address to remove from its Identity.\n    /// @param v The v component of the signature.\n    /// @param r The r component of the signature.\n    /// @param s The s component of the signature.\n    /// @param timestamp The timestamp of the signature.\n    function removeAssociatedAddressDelegated(address addressToRemove, uint8 v, bytes32 r, bytes32 s, uint timestamp)\n        public ensureSignatureTimeValid(timestamp)\n    {\n        uint ein = getEIN(addressToRemove);\n\n        require(\n            isSigned(\n                addressToRemove,\n                keccak256(\n                    abi.encodePacked(\n                        byte(0x19), byte(0), address(this),\n                        \"I authorize removing this address from my Identity.\",\n                        ein, addressToRemove, timestamp\n                    )\n                ),\n                v, r, s\n            ),\n            \"Permission denied.\"\n        );\n\n        removeAssociatedAddress(ein, addressToRemove);\n\n        emit AssociatedAddressRemoved(msg.sender, ein, addressToRemove, true);\n    }\n\n    /// @dev Common logic for all address removal.\n    function removeAssociatedAddress(uint ein, address addressToRemove) private {\n        identityDirectory[ein].associatedAddresses.remove(addressToRemove);\n        delete associatedAddressDirectory[addressToRemove];\n    }\n\n\n    /// @notice Allows an associated address to add providers to its Identity.\n    /// @param providers A list of providers.\n    function addProviders(address[] memory providers) public {\n        addProviders(getEIN(msg.sender), providers, false);\n    }\n\n    /// @notice Allows providers to add providers to an Identity.\n    /// @param ein The EIN to add providers to.\n    /// @param providers A list of providers.\n    function addProvidersFor(uint ein, address[] memory providers) public _isProviderFor(ein) {\n        addProviders(ein, providers, true);\n    }\n\n    /// @dev Common logic for all provider adding.\n    function addProviders(uint ein, address[] memory providers, bool delegated) private {\n        Identity storage _identity = identityDirectory[ein];\n        for (uint i; i < providers.length; i++) {\n            _identity.providers.insert(providers[i]);\n            emit ProviderAdded(msg.sender, ein, providers[i], delegated);\n        }\n    }\n\n    /// @notice Allows an associated address to remove providers from its Identity.\n    /// @param providers A list of providers.\n    function removeProviders(address[] memory providers) public {\n        removeProviders(getEIN(msg.sender), providers, false);\n    }\n\n    /// @notice Allows providers to remove providers to an Identity.\n    /// @param ein The EIN to remove providers from.\n    /// @param providers A list of providers.\n    function removeProvidersFor(uint ein, address[] memory providers) public _isProviderFor(ein) {\n        removeProviders(ein, providers, true);\n    }\n\n    /// @dev Common logic for all provider removal.\n    function removeProviders(uint ein, address[] memory providers, bool delegated) private {\n        Identity storage _identity = identityDirectory[ein];\n        for (uint i; i < providers.length; i++) {\n            _identity.providers.remove(providers[i]);\n            emit ProviderRemoved(msg.sender, ein, providers[i], delegated);\n        }\n    }\n\n    /// @notice Allows an associated address to add resolvers to its Identity.\n    /// @param resolvers A list of resolvers.\n    function addResolvers(address[] memory resolvers) public {\n        addResolvers(getEIN(msg.sender), resolvers, false);\n    }\n\n    /// @notice Allows providers to add resolvers to an Identity.\n    /// @param ein The EIN to add resolvers to.\n    /// @param resolvers A list of resolvers.\n    function addResolversFor(uint ein, address[] memory resolvers) public _isProviderFor(ein) {\n        addResolvers(ein, resolvers, true);\n    }\n\n    /// @dev Common logic for all resolver adding.\n    function addResolvers(uint ein, address[] memory resolvers, bool delegated) private {\n        Identity storage _identity = identityDirectory[ein];\n        for (uint i; i < resolvers.length; i++) {\n            _identity.resolvers.insert(resolvers[i]);\n            emit ResolverAdded(msg.sender, ein, resolvers[i], delegated);\n        }\n    }\n\n    /// @notice Allows an associated address to remove resolvers from its Identity.\n    /// @param resolvers A list of resolvers.\n    function removeResolvers(address[] memory resolvers) public {\n        removeResolvers(getEIN(msg.sender), resolvers, true);\n    }\n\n    /// @notice Allows providers to remove resolvers from an Identity.\n    /// @param ein The EIN to remove resolvers from.\n    /// @param resolvers A list of resolvers.\n    function removeResolversFor(uint ein, address[] memory resolvers) public _isProviderFor(ein) {\n        removeResolvers(ein, resolvers, true);\n    }\n\n    /// @dev Common logic for all resolver removal.\n    function removeResolvers(uint ein, address[] memory resolvers, bool delegated) private {\n        Identity storage _identity = identityDirectory[ein];\n        for (uint i; i < resolvers.length; i++) {\n            _identity.resolvers.remove(resolvers[i]);\n            emit ResolverRemoved(msg.sender, ein, resolvers[i], delegated);\n        }\n    }\n\n\n    // Recovery Management Functions ///////////////////////////////////////////////////////////////////////////////////\n\n    /// @notice Allows an associated address to change the recovery address for its Identity.\n    /// @dev Recovery addresses can be changed at most once every recoveryTimeout seconds.\n    /// @param newRecoveryAddress A recovery address to set for the sender's EIN.\n    function triggerRecoveryAddressChange(address newRecoveryAddress) public {\n        triggerRecoveryAddressChange(getEIN(msg.sender), newRecoveryAddress, false);\n    }\n\n    /// @notice Allows providers to change the recovery address for an Identity.\n    /// @dev Recovery addresses can be changed at most once every recoveryTimeout seconds.\n    /// @param ein The EIN to set the recovery address of.\n    /// @param newRecoveryAddress A recovery address to set for the passed EIN.\n    function triggerRecoveryAddressChangeFor(uint ein, address newRecoveryAddress) public _isProviderFor(ein) {\n        triggerRecoveryAddressChange(ein, newRecoveryAddress, true);\n    }\n\n    /// @dev Common logic for all recovery address changes.\n    function triggerRecoveryAddressChange(uint ein, address newRecoveryAddress, bool delegated) private {\n        Identity storage _identity = identityDirectory[ein];\n\n        require(canChangeRecoveryAddress(ein), \"Cannot trigger a change in recovery address yet.\");\n\n         // solium-disable-next-line security/no-block-members\n        recoveryAddressChangeLogs[ein] = RecoveryAddressChange(block.timestamp, _identity.recoveryAddress);\n\n        emit RecoveryAddressChangeTriggered(msg.sender, ein, _identity.recoveryAddress, newRecoveryAddress, delegated);\n\n        _identity.recoveryAddress = newRecoveryAddress;\n    }\n\n    /// @notice Allows recovery addresses to trigger the recovery process for an Identity.\n    /// @dev msg.sender must be current recovery address, or the old one if it was changed recently.\n    /// @param ein The EIN to trigger recovery for.\n    /// @param newAssociatedAddress A recovery address to set for the passed EIN.\n    /// @param v The v component of the signature.\n    /// @param r The r component of the signature.\n    /// @param s The s component of the signature.\n    /// @param timestamp The timestamp of the signature.\n    function triggerRecovery(uint ein, address newAssociatedAddress, uint8 v, bytes32 r, bytes32 s, uint timestamp)\n        public _identityExists(ein) _hasIdentity(newAssociatedAddress, false) ensureSignatureTimeValid(timestamp)\n    {\n        require(canRecover(ein), \"Cannot trigger recovery yet.\");\n        Identity storage _identity = identityDirectory[ein];\n\n        // ensure the sender is the recovery address/old recovery address if there's been a recent change\n        if (canChangeRecoveryAddress(ein)) {\n            require(\n                msg.sender == _identity.recoveryAddress, \"Only the current recovery address can trigger recovery.\"\n            );\n        } else {\n            require(\n                msg.sender == recoveryAddressChangeLogs[ein].oldRecoveryAddress,\n                \"Only the recently removed recovery address can trigger recovery.\"\n            );\n        }\n\n        require(\n            isSigned(\n                newAssociatedAddress,\n                keccak256(\n                    abi.encodePacked(\n                        byte(0x19), byte(0), address(this),\n                        \"I authorize being added to this Identity via recovery.\",\n                        ein, newAssociatedAddress, timestamp\n                    )\n                ),\n                v, r, s\n            ),\n            \"Permission denied.\"\n        );\n\n        // log the old associated addresses to facilitate destruction if necessary\n        recoveryLogs[ein] = Recovery(\n            block.timestamp, // solium-disable-line security/no-block-members\n            keccak256(abi.encodePacked(_identity.associatedAddresses.members))\n        );\n\n        emit RecoveryTriggered(msg.sender, ein, _identity.associatedAddresses.members, newAssociatedAddress);\n\n        // remove identity data, and add the new address as the sole associated address\n        resetIdentityData(_identity, msg.sender, false);\n        addAssociatedAddress(ein, newAssociatedAddress);\n    }\n\n    /// @notice Allows associated addresses recently removed via recovery to permanently disable their old Identity.\n    /// @param ein The EIN to trigger destruction of.\n    /// @param firstChunk The array of addresses before the msg.sender in the pre-recovery associated addresses array.\n    /// @param lastChunk The array of addresses after the msg.sender in the pre-recovery associated addresses array.\n    /// @param resetResolvers true if the destroyer wants resolvers to be removed, false otherwise.\n    function triggerDestruction(uint ein, address[] memory firstChunk, address[] memory lastChunk, bool resetResolvers)\n        public _identityExists(ein)\n    {\n        require(!canRecover(ein), \"Recovery has not recently been triggered.\");\n        Identity storage _identity = identityDirectory[ein];\n\n        // ensure that the msg.sender was an old associated address for the referenced identity\n        address payable[1] memory middleChunk = [msg.sender];\n        require(\n            keccak256(\n                abi.encodePacked(firstChunk, middleChunk, lastChunk)\n            ) == recoveryLogs[ein].hashedOldAssociatedAddresses,\n            \"Cannot destroy an EIN from an address that was not recently removed from said EIN via recovery.\"\n        );\n\n        emit IdentityDestroyed(msg.sender, ein, _identity.recoveryAddress, resetResolvers);\n\n        resetIdentityData(_identity, address(0), resetResolvers);\n    }\n\n    /// @dev Common logic for clearing the data of an Identity.\n    function resetIdentityData(Identity storage identity, address newRecoveryAddress, bool resetResolvers) private {\n        for (uint i; i < identity.associatedAddresses.members.length; i++) {\n            delete associatedAddressDirectory[identity.associatedAddresses.members[i]];\n        }\n        delete identity.associatedAddresses;\n        delete identity.providers;\n        if (resetResolvers) delete identity.resolvers;\n        identity.recoveryAddress = newRecoveryAddress;\n    }\n\n\n    // Events //////////////////////////////////////////////////////////////////////////////////////////////////////////\n\n    event IdentityCreated(\n        address indexed initiator, uint indexed ein,\n        address recoveryAddress, address associatedAddress, address[] providers, address[] resolvers, bool delegated\n    );\n    event AssociatedAddressAdded(\n        address indexed initiator, uint indexed ein, address approvingAddress, address addedAddress, bool delegated\n    );\n    event AssociatedAddressRemoved(address indexed initiator, uint indexed ein, address removedAddress, bool delegated);\n    event ProviderAdded(address indexed initiator, uint indexed ein, address provider, bool delegated);\n    event ProviderRemoved(address indexed initiator, uint indexed ein, address provider, bool delegated);\n    event ResolverAdded(address indexed initiator, uint indexed ein, address resolvers, bool delegated);\n    event ResolverRemoved(address indexed initiator, uint indexed ein, address resolvers, bool delegated);\n    event RecoveryAddressChangeTriggered(\n        address indexed initiator, uint indexed ein,\n        address oldRecoveryAddress, address newRecoveryAddress, bool delegated\n    );\n    event RecoveryTriggered(\n        address indexed initiator, uint indexed ein, address[] oldAssociatedAddresses, address newAssociatedAddress\n    );\n    event IdentityDestroyed(address indexed initiator, uint indexed ein, address recoveryAddress, bool resolversReset);\n}\n",
  "sourcePath": "/home/null/Documents/VoteDapp/contracts/_testing/IdentityRegistry.sol",
  "compiler": {
    "name": "solc",
    "version": "0.5.16+commit.9c3226ce.Emscripten.clang"
  },
  "schemaVersion": "3.0.23",
  "updatedAt": "2020-10-03T12:02:50.235Z",
  "devdoc": {
    "author": "Noah ZinsmeisterAndy Chorlian",
    "methods": {
      "addAssociatedAddress(address,address,uint8,bytes32,bytes32,uint256)": {
        "params": {
          "addressToAdd": "A new address to set for the Identity of the sender.",
          "approvingAddress": "An associated address for an Identity.",
          "r": "The r component of the signature.",
          "s": "The s component of the signature.",
          "timestamp": "The timestamp of the signature.",
          "v": "The v component of the signature."
        }
      },
      "addAssociatedAddressDelegated(address,address,uint8[2],bytes32[2],bytes32[2],uint256[2])": {
        "details": "The first signature must be that of the approvingAddress.",
        "params": {
          "addressToAdd": "A new address to set for the Identity of approvingAddress.",
          "approvingAddress": "An associated address for an Identity.",
          "r": "The r component of the signatures.",
          "s": "The s component of the signatures.",
          "timestamp": "The timestamp of the signatures.",
          "v": "The v component of the signatures."
        }
      },
      "addProviders(address[])": {
        "params": {
          "providers": "A list of providers."
        }
      },
      "addProvidersFor(uint256,address[])": {
        "params": {
          "ein": "The EIN to add providers to.",
          "providers": "A list of providers."
        }
      },
      "addResolvers(address[])": {
        "params": {
          "resolvers": "A list of resolvers."
        }
      },
      "addResolversFor(uint256,address[])": {
        "params": {
          "ein": "The EIN to add resolvers to.",
          "resolvers": "A list of resolvers."
        }
      },
      "createIdentity(address,address[],address[])": {
        "details": "Sets the msg.sender as the only associatedAddress.",
        "params": {
          "providers": "A list of providers to set for the new Identity.",
          "recoveryAddress": "A recovery address to set for the new Identity.",
          "resolvers": "A list of resolvers to set for the new Identity."
        },
        "return": "The EIN of the new Identity."
      },
      "createIdentityDelegated(address,address,address[],address[],uint8,bytes32,bytes32,uint256)": {
        "params": {
          "associatedAddress": "An associated address to set for the new Identity (must have produced the signature).",
          "providers": "A list of providers to set for the new Identity.",
          "r": "The r component of the signature.",
          "recoveryAddress": "A recovery address to set for the new Identity.",
          "resolvers": "A list of resolvers to set for the new Identity.",
          "s": "The s component of the signature.",
          "timestamp": "The timestamp of the signature.",
          "v": "The v component of the signature."
        },
        "return": "The EIN of the new Identity."
      },
      "getEIN(address)": {
        "details": "Throws if the address is not associated with an Identity.",
        "params": {
          "_address": "The address to check."
        },
        "return": "The associated EIN."
      },
      "getIdentity(uint256)": {
        "details": "Throws if the passed EIN does not exist.",
        "params": {
          "ein": "The EIN to get information for."
        },
        "return": "All the information for the Identity denominated by the passed EIN."
      },
      "hasIdentity(address)": {
        "details": "Does not throw.",
        "params": {
          "_address": "The address to check."
        },
        "return": "true if the passed address is associated with an Identity, false otherwise."
      },
      "identityExists(uint256)": {
        "details": "Does not throw.",
        "params": {
          "ein": "The EIN to check the existence of."
        },
        "return": "true if the passed EIN exists, false otherwise."
      },
      "isAssociatedAddressFor(uint256,address)": {
        "details": "Does not throw.",
        "params": {
          "_address": "The address to check.",
          "ein": "The EIN to check."
        },
        "return": "true if the passed address is associated with the passed EIN, false otherwise."
      },
      "isProviderFor(uint256,address)": {
        "details": "Does not throw.",
        "params": {
          "ein": "The EIN to check.",
          "provider": "The provider to check."
        },
        "return": "true if the provider is set for the passed EIN, false otherwise."
      },
      "isResolverFor(uint256,address)": {
        "details": "Does not throw.",
        "params": {
          "ein": "The EIN to check.",
          "resolver": "The resolver to check."
        },
        "return": "true if the resolver is set for the passed EIN, false otherwise."
      },
      "isSigned(address,bytes32,uint8,bytes32,bytes32)": {
        "params": {
          "_address": "The address that may or may not have signed the passed messageHash.",
          "messageHash": "The messageHash that may or may not have been signed.",
          "r": "The r component of the signature.",
          "s": "The s component of the signature.",
          "v": "The v component of the signature."
        },
        "return": "true if the signature can be verified, false otherwise."
      },
      "removeAssociatedAddressDelegated(address,uint8,bytes32,bytes32,uint256)": {
        "params": {
          "addressToRemove": "An associated address to remove from its Identity.",
          "r": "The r component of the signature.",
          "s": "The s component of the signature.",
          "timestamp": "The timestamp of the signature.",
          "v": "The v component of the signature."
        }
      },
      "removeProviders(address[])": {
        "params": {
          "providers": "A list of providers."
        }
      },
      "removeProvidersFor(uint256,address[])": {
        "params": {
          "ein": "The EIN to remove providers from.",
          "providers": "A list of providers."
        }
      },
      "removeResolvers(address[])": {
        "params": {
          "resolvers": "A list of resolvers."
        }
      },
      "removeResolversFor(uint256,address[])": {
        "params": {
          "ein": "The EIN to remove resolvers from.",
          "resolvers": "A list of resolvers."
        }
      },
      "triggerDestruction(uint256,address[],address[],bool)": {
        "params": {
          "ein": "The EIN to trigger destruction of.",
          "firstChunk": "The array of addresses before the msg.sender in the pre-recovery associated addresses array.",
          "lastChunk": "The array of addresses after the msg.sender in the pre-recovery associated addresses array.",
          "resetResolvers": "true if the destroyer wants resolvers to be removed, false otherwise."
        }
      },
      "triggerRecovery(uint256,address,uint8,bytes32,bytes32,uint256)": {
        "details": "msg.sender must be current recovery address, or the old one if it was changed recently.",
        "params": {
          "ein": "The EIN to trigger recovery for.",
          "newAssociatedAddress": "A recovery address to set for the passed EIN.",
          "r": "The r component of the signature.",
          "s": "The s component of the signature.",
          "timestamp": "The timestamp of the signature.",
          "v": "The v component of the signature."
        }
      },
      "triggerRecoveryAddressChange(address)": {
        "details": "Recovery addresses can be changed at most once every recoveryTimeout seconds.",
        "params": {
          "newRecoveryAddress": "A recovery address to set for the sender's EIN."
        }
      },
      "triggerRecoveryAddressChangeFor(uint256,address)": {
        "details": "Recovery addresses can be changed at most once every recoveryTimeout seconds.",
        "params": {
          "ein": "The EIN to set the recovery address of.",
          "newRecoveryAddress": "A recovery address to set for the passed EIN."
        }
      }
    },
    "title": "The ERC-1484 Identity Registry."
  },
  "userdoc": {
    "methods": {
      "addAssociatedAddress(address,address,uint8,bytes32,bytes32,uint256)": {
        "notice": "Allows an associated address to add another associated address to its Identity."
      },
      "addAssociatedAddressDelegated(address,address,uint8[2],bytes32[2],bytes32[2],uint256[2])": {
        "notice": "Allows addition of an associated address to an Identity."
      },
      "addProviders(address[])": {
        "notice": "Allows an associated address to add providers to its Identity."
      },
      "addProvidersFor(uint256,address[])": {
        "notice": "Allows providers to add providers to an Identity."
      },
      "addResolvers(address[])": {
        "notice": "Allows an associated address to add resolvers to its Identity."
      },
      "addResolversFor(uint256,address[])": {
        "notice": "Allows providers to add resolvers to an Identity."
      },
      "createIdentity(address,address[],address[])": {
        "notice": "Create an new Identity for the transaction sender."
      },
      "createIdentityDelegated(address,address,address[],address[],uint8,bytes32,bytes32,uint256)": {
        "notice": "Allows creation of a new Identity for the passed associatedAddress."
      },
      "getEIN(address)": {
        "notice": "Gets the EIN associated with the passed address."
      },
      "getIdentity(uint256)": {
        "notice": "Gets all identity-related information for the passed EIN."
      },
      "hasIdentity(address)": {
        "notice": "Checks if the passed address is associated with an Identity."
      },
      "identityExists(uint256)": {
        "notice": "Checks if the passed EIN exists."
      },
      "isAssociatedAddressFor(uint256,address)": {
        "notice": "Checks whether the passed EIN is associated with the passed address."
      },
      "isProviderFor(uint256,address)": {
        "notice": "Checks whether the passed provider is set for the passed EIN."
      },
      "isResolverFor(uint256,address)": {
        "notice": "Checks whether the passed resolver is set for the passed EIN."
      },
      "isSigned(address,bytes32,uint8,bytes32,bytes32)": {
        "notice": "Determines whether the passed signature of `messageHash` was made by the private key of `_address`."
      },
      "removeAssociatedAddress()": {
        "notice": "Allows an associated address to remove itself from its Identity."
      },
      "removeAssociatedAddressDelegated(address,uint8,bytes32,bytes32,uint256)": {
        "notice": "Allows removal of an associated address from an Identity."
      },
      "removeProviders(address[])": {
        "notice": "Allows an associated address to remove providers from its Identity."
      },
      "removeProvidersFor(uint256,address[])": {
        "notice": "Allows providers to remove providers to an Identity."
      },
      "removeResolvers(address[])": {
        "notice": "Allows an associated address to remove resolvers from its Identity."
      },
      "removeResolversFor(uint256,address[])": {
        "notice": "Allows providers to remove resolvers from an Identity."
      },
      "triggerDestruction(uint256,address[],address[],bool)": {
        "notice": "Allows associated addresses recently removed via recovery to permanently disable their old Identity."
      },
      "triggerRecovery(uint256,address,uint8,bytes32,bytes32,uint256)": {
        "notice": "Allows recovery addresses to trigger the recovery process for an Identity."
      },
      "triggerRecoveryAddressChange(address)": {
        "notice": "Allows an associated address to change the recovery address for its Identity."
      },
      "triggerRecoveryAddressChangeFor(uint256,address)": {
        "notice": "Allows providers to change the recovery address for an Identity."
      }
    }
  }
}