{
  "contractName": "OldClientRaindrop",
  "abi": [
    {
      "anonymous": false,
      "inputs": [
        {
          "indexed": true,
          "internalType": "address",
          "name": "previousOwner",
          "type": "address"
        },
        {
          "indexed": true,
          "internalType": "address",
          "name": "newOwner",
          "type": "address"
        }
      ],
      "name": "OwnershipTransferred",
      "type": "event"
    },
    {
      "anonymous": false,
      "inputs": [
        {
          "indexed": false,
          "internalType": "string",
          "name": "casedUserName",
          "type": "string"
        }
      ],
      "name": "UserDeleted",
      "type": "event"
    },
    {
      "anonymous": false,
      "inputs": [
        {
          "indexed": false,
          "internalType": "string",
          "name": "casedUserName",
          "type": "string"
        },
        {
          "indexed": false,
          "internalType": "address",
          "name": "userAddress",
          "type": "address"
        }
      ],
      "name": "UserSignUp",
      "type": "event"
    },
    {
      "constant": true,
      "inputs": [],
      "name": "hydroTokenAddress",
      "outputs": [
        {
          "internalType": "address",
          "name": "",
          "type": "address"
        }
      ],
      "payable": false,
      "stateMutability": "view",
      "type": "function"
    },
    {
      "constant": true,
      "inputs": [],
      "name": "isOwner",
      "outputs": [
        {
          "internalType": "bool",
          "name": "",
          "type": "bool"
        }
      ],
      "payable": false,
      "stateMutability": "view",
      "type": "function"
    },
    {
      "constant": true,
      "inputs": [],
      "name": "minimumHydroStakeDelegatedUser",
      "outputs": [
        {
          "internalType": "uint256",
          "name": "",
          "type": "uint256"
        }
      ],
      "payable": false,
      "stateMutability": "view",
      "type": "function"
    },
    {
      "constant": true,
      "inputs": [],
      "name": "minimumHydroStakeUser",
      "outputs": [
        {
          "internalType": "uint256",
          "name": "",
          "type": "uint256"
        }
      ],
      "payable": false,
      "stateMutability": "view",
      "type": "function"
    },
    {
      "constant": true,
      "inputs": [],
      "name": "owner",
      "outputs": [
        {
          "internalType": "address",
          "name": "",
          "type": "address"
        }
      ],
      "payable": false,
      "stateMutability": "view",
      "type": "function"
    },
    {
      "constant": false,
      "inputs": [],
      "name": "renounceOwnership",
      "outputs": [],
      "payable": false,
      "stateMutability": "nonpayable",
      "type": "function"
    },
    {
      "constant": false,
      "inputs": [
        {
          "internalType": "address",
          "name": "newOwner",
          "type": "address"
        }
      ],
      "name": "transferOwnership",
      "outputs": [],
      "payable": false,
      "stateMutability": "nonpayable",
      "type": "function"
    },
    {
      "constant": false,
      "inputs": [
        {
          "internalType": "string",
          "name": "casedUserName",
          "type": "string"
        },
        {
          "internalType": "address",
          "name": "userAddress",
          "type": "address"
        },
        {
          "internalType": "uint8",
          "name": "v",
          "type": "uint8"
        },
        {
          "internalType": "bytes32",
          "name": "r",
          "type": "bytes32"
        },
        {
          "internalType": "bytes32",
          "name": "s",
          "type": "bytes32"
        }
      ],
      "name": "signUpDelegatedUser",
      "outputs": [],
      "payable": false,
      "stateMutability": "nonpayable",
      "type": "function"
    },
    {
      "constant": false,
      "inputs": [
        {
          "internalType": "string",
          "name": "casedUserName",
          "type": "string"
        }
      ],
      "name": "signUpUser",
      "outputs": [],
      "payable": false,
      "stateMutability": "nonpayable",
      "type": "function"
    },
    {
      "constant": false,
      "inputs": [],
      "name": "deleteUser",
      "outputs": [],
      "payable": false,
      "stateMutability": "nonpayable",
      "type": "function"
    },
    {
      "constant": false,
      "inputs": [
        {
          "internalType": "address",
          "name": "_hydroTokenAddress",
          "type": "address"
        }
      ],
      "name": "setHydroTokenAddress",
      "outputs": [],
      "payable": false,
      "stateMutability": "nonpayable",
      "type": "function"
    },
    {
      "constant": false,
      "inputs": [
        {
          "internalType": "uint256",
          "name": "newMinimumHydroStakeUser",
          "type": "uint256"
        },
        {
          "internalType": "uint256",
          "name": "newMinimumHydroStakeDelegatedUser",
          "type": "uint256"
        }
      ],
      "name": "setMinimumHydroStakes",
      "outputs": [],
      "payable": false,
      "stateMutability": "nonpayable",
      "type": "function"
    },
    {
      "constant": true,
      "inputs": [
        {
          "internalType": "string",
          "name": "userName",
          "type": "string"
        }
      ],
      "name": "userNameTaken",
      "outputs": [
        {
          "internalType": "bool",
          "name": "taken",
          "type": "bool"
        }
      ],
      "payable": false,
      "stateMutability": "view",
      "type": "function"
    },
    {
      "constant": true,
      "inputs": [
        {
          "internalType": "string",
          "name": "userName",
          "type": "string"
        }
      ],
      "name": "getUserByName",
      "outputs": [
        {
          "internalType": "string",
          "name": "casedUserName",
          "type": "string"
        },
        {
          "internalType": "address",
          "name": "userAddress",
          "type": "address"
        }
      ],
      "payable": false,
      "stateMutability": "view",
      "type": "function"
    },
    {
      "constant": true,
      "inputs": [
        {
          "internalType": "address",
          "name": "_address",
          "type": "address"
        }
      ],
      "name": "getUserByAddress",
      "outputs": [
        {
          "internalType": "string",
          "name": "casedUserName",
          "type": "string"
        }
      ],
      "payable": false,
      "stateMutability": "view",
      "type": "function"
    },
    {
      "constant": true,
      "inputs": [
        {
          "internalType": "address",
          "name": "_address",
          "type": "address"
        },
        {
          "internalType": "bytes32",
          "name": "messageHash",
          "type": "bytes32"
        },
        {
          "internalType": "uint8",
          "name": "v",
          "type": "uint8"
        },
        {
          "internalType": "bytes32",
          "name": "r",
          "type": "bytes32"
        },
        {
          "internalType": "bytes32",
          "name": "s",
          "type": "bytes32"
        }
      ],
      "name": "isSigned",
      "outputs": [
        {
          "internalType": "bool",
          "name": "",
          "type": "bool"
        }
      ],
      "payable": false,
      "stateMutability": "pure",
      "type": "function"
    }
  ],
  "bytecode": "0x6080604052336000806101000a81548173ffffffffffffffffffffffffffffffffffffffff021916908373ffffffffffffffffffffffffffffffffffffffff1602179055506000809054906101000a900473ffffffffffffffffffffffffffffffffffffffff1673ffffffffffffffffffffffffffffffffffffffff16600073ffffffffffffffffffffffffffffffffffffffff167f8be0079c531659141344cd1fd0a4f28419497f9722a3daafe3b4186f6b6457e060405160405180910390a3612155806100cf6000396000f3fe608060405234801561001057600080fd5b50600436106101005760003560e01c806385ba9a9911610097578063ba75d0de11610066578063ba75d0de14610687578063bed7437f146106a5578063d35e656b146106e9578063f2fde38b146107bc57610100565b806385ba9a991461055c5780638677ebe8146105945780638da5cb5b1461061b5780638f32d59b1461066557610100565b80634bff5009116100d35780634bff5009146102e457806369c212f61461044b578063715018a61461050857806375d7e4bd1461051257610100565b8063026ff05e146101055780632b45bcf91461010f5780632e5df0fe1461012d5780634500431014610229575b600080fd5b61010d610800565b005b610117610a85565b6040518082815260200191505060405180910390f35b610227600480360360a081101561014357600080fd5b810190808035906020019064010000000081111561016057600080fd5b82018360208201111561017257600080fd5b8035906020019184600183028401116401000000008311171561019457600080fd5b91908080601f016020809104026020016040519081016040528093929190818152602001838380828437600081840152601f19601f820116905080830192505050505050509192919290803573ffffffffffffffffffffffffffffffffffffffff169060200190929190803560ff1690602001909291908035906020019092919080359060200190929190505050610a8b565b005b6102e26004803603602081101561023f57600080fd5b810190808035906020019064010000000081111561025c57600080fd5b82018360208201111561026e57600080fd5b8035906020019184600183028401116401000000008311171561029057600080fd5b91908080601f016020809104026020016040519081016040528093929190818152602001838380828437600081840152601f19601f820116905080830192505050505050509192919290505050610c9f565b005b61039d600480360360208110156102fa57600080fd5b810190808035906020019064010000000081111561031757600080fd5b82018360208201111561032957600080fd5b8035906020019184600183028401116401000000008311171561034b57600080fd5b91908080601f016020809104026020016040519081016040528093929190818152602001838380828437600081840152601f19601f820116905080830192505050505050509192919290505050610e07565b60405180806020018373ffffffffffffffffffffffffffffffffffffffff1673ffffffffffffffffffffffffffffffffffffffff168152602001828103825284818151815260200191508051906020019080838360005b8381101561040f5780820151818401526020810190506103f4565b50505050905090810190601f16801561043c5780820380516001836020036101000a031916815260200191505b50935050505060405180910390f35b61048d6004803603602081101561046157600080fd5b81019080803573ffffffffffffffffffffffffffffffffffffffff169060200190929190505050610ff6565b6040518080602001828103825283818151815260200191508051906020019080838360005b838110156104cd5780820151818401526020810190506104b2565b50505050905090810190601f1680156104fa5780820380516001836020036101000a031916815260200191505b509250505060405180910390f35b61051061116e565b005b61051a61123e565b604051808273ffffffffffffffffffffffffffffffffffffffff1673ffffffffffffffffffffffffffffffffffffffff16815260200191505060405180910390f35b6105926004803603604081101561057257600080fd5b810190808035906020019092919080359060200190929190505050611264565b005b610601600480360360a08110156105aa57600080fd5b81019080803573ffffffffffffffffffffffffffffffffffffffff16906020019092919080359060200190929190803560ff169060200190929190803590602001909291908035906020019092919050505061142f565b604051808215151515815260200191505060405180910390f35b61062361145d565b604051808273ffffffffffffffffffffffffffffffffffffffff1673ffffffffffffffffffffffffffffffffffffffff16815260200191505060405180910390f35b61066d611486565b604051808215151515815260200191505060405180910390f35b61068f6114dd565b6040518082815260200191505060405180910390f35b6106e7600480360360208110156106bb57600080fd5b81019080803573ffffffffffffffffffffffffffffffffffffffff1690602001909291905050506114e3565b005b6107a2600480360360208110156106ff57600080fd5b810190808035906020019064010000000081111561071c57600080fd5b82018360208201111561072e57600080fd5b8035906020019184600183028401116401000000008311171561075057600080fd5b91908080601f016020809104026020016040519081016040528093929190818152602001838380828437600081840152601f19601f820116905080830192505050505050509192919290505050611538565b604051808215151515815260200191505060405180910390f35b6107fe600480360360208110156107d257600080fd5b81019080803573ffffffffffffffffffffffffffffffffffffffff1690602001909291905050506115c8565b005b6000600560003373ffffffffffffffffffffffffffffffffffffffff1673ffffffffffffffffffffffffffffffffffffffff16815260200190815260200160002054905061084d816115e5565b6108a2576040517f08c379a000000000000000000000000000000000000000000000000000000000815260040180806020018281038252602b8152602001806120f6602b913960400191505060405180910390fd5b6060600460008381526020019081526020016000206000018054600181600116156101000203166002900480601f01602080910402602001604051908101604052809291908181526020018280546001816001161561010002031660029004801561094e5780601f106109235761010080835404028352916020019161094e565b820191906000526020600020905b81548152906001019060200180831161093157829003601f168201915b50505050509050600560003373ffffffffffffffffffffffffffffffffffffffff1673ffffffffffffffffffffffffffffffffffffffff1681526020019081526020016000206000905560046000838152602001908152602001600020600080820160006109bc9190611fcb565b6001820160006101000a81549073ffffffffffffffffffffffffffffffffffffffff021916905550507f28f7ad4961343bc792aec8e7886fc38c6847f9cd253ec14a633ff3bed8370883816040518080602001828103825283818151815260200191508051906020019080838360005b83811015610a47578082015181840152602081019050610a2c565b50505050905090810190601f168015610a745780820380516001836020036101000a031916815260200191505b509250505060405180910390a15050565b60025481565b336003546000600160009054906101000a900473ffffffffffffffffffffffffffffffffffffffff169050818173ffffffffffffffffffffffffffffffffffffffff166370a08231856040518263ffffffff1660e01b8152600401808273ffffffffffffffffffffffffffffffffffffffff1673ffffffffffffffffffffffffffffffffffffffff16815260200191505060206040518083038186803b158015610b3457600080fd5b505afa158015610b48573d6000803e3d6000fd5b505050506040513d6020811015610b5e57600080fd5b81019080805190602001909291905050501015610be3576040517f08c379a000000000000000000000000000000000000000000000000000000000815260040180806020018281038252601b8152602001807f496e73756666696369656e7420485944524f2062616c616e63652e000000000081525060200191505060405180910390fd5b610c198760405160200180806120d36023913960230190506040516020818303038152906040528051906020012088888861142f565b610c8b576040517f08c379a00000000000000000000000000000000000000000000000000000000081526004018080602001828103825260128152602001807f5065726d697373696f6e2064656e6965642e000000000000000000000000000081525060200191505060405180910390fd5b610c958888611654565b5050505050505050565b336002546000600160009054906101000a900473ffffffffffffffffffffffffffffffffffffffff169050818173ffffffffffffffffffffffffffffffffffffffff166370a08231856040518263ffffffff1660e01b8152600401808273ffffffffffffffffffffffffffffffffffffffff1673ffffffffffffffffffffffffffffffffffffffff16815260200191505060206040518083038186803b158015610d4857600080fd5b505afa158015610d5c573d6000803e3d6000fd5b505050506040513d6020811015610d7257600080fd5b81019080805190602001909291905050501015610df7576040517f08c379a000000000000000000000000000000000000000000000000000000000815260040180806020018281038252601b8152602001807f496e73756666696369656e7420485944524f2062616c616e63652e000000000081525060200191505060405180910390fd5b610e018433611654565b50505050565b6060600080610e1584611acd565b6040516020018082805190602001908083835b60208310610e4b5780518252602082019150602081019050602083039250610e28565b6001836020036101000a038019825116818451168082178552505050505050905001915050604051602081830303815290604052805190602001209050610e91816115e5565b610f03576040517f08c379a00000000000000000000000000000000000000000000000000000000081526004018080602001828103825260148152602001807f5573657220646f6573206e6f742065786973742e00000000000000000000000081525060200191505060405180910390fd5b600460008281526020019081526020016000206000016004600083815260200190815260200160002060010160009054906101000a900473ffffffffffffffffffffffffffffffffffffffff16818054600181600116156101000203166002900480601f016020809104026020016040519081016040528092919081815260200182805460018160011615610100020316600290048015610fe55780601f10610fba57610100808354040283529160200191610fe5565b820191906000526020600020905b815481529060010190602001808311610fc857829003601f168201915b505050505091509250925050915091565b60606000600560008473ffffffffffffffffffffffffffffffffffffffff1673ffffffffffffffffffffffffffffffffffffffff168152602001908152602001600020549050611045816115e5565b6110b7576040517f08c379a00000000000000000000000000000000000000000000000000000000081526004018080602001828103825260148152602001807f5573657220646f6573206e6f742065786973742e00000000000000000000000081525060200191505060405180910390fd5b600460008281526020019081526020016000206000018054600181600116156101000203166002900480601f0160208091040260200160405190810160405280929190818152602001828054600181600116156101000203166002900480156111615780601f1061113657610100808354040283529160200191611161565b820191906000526020600020905b81548152906001019060200180831161114457829003601f168201915b5050505050915050919050565b611176611486565b61117f57600080fd5b600073ffffffffffffffffffffffffffffffffffffffff166000809054906101000a900473ffffffffffffffffffffffffffffffffffffffff1673ffffffffffffffffffffffffffffffffffffffff167f8be0079c531659141344cd1fd0a4f28419497f9722a3daafe3b4186f6b6457e060405160405180910390a360008060006101000a81548173ffffffffffffffffffffffffffffffffffffffff021916908373ffffffffffffffffffffffffffffffffffffffff160217905550565b600160009054906101000a900473ffffffffffffffffffffffffffffffffffffffff1681565b61126c611486565b61127557600080fd5b6000600160009054906101000a900473ffffffffffffffffffffffffffffffffffffffff169050692f0eadc321623778000083111561131c576040517f08c379a00000000000000000000000000000000000000000000000000000000081526004018080602001828103825260128152602001807f5374616b6520697320746f6f20686967682e000000000000000000000000000081525060200191505060405180910390fd5b60648173ffffffffffffffffffffffffffffffffffffffff166318160ddd6040518163ffffffff1660e01b815260040160206040518083038186803b15801561136457600080fd5b505afa158015611378573d6000803e3d6000fd5b505050506040513d602081101561138e57600080fd5b8101908080519060200190929190505050816113a657fe5b0482111561141c576040517f08c379a00000000000000000000000000000000000000000000000000000000081526004018080602001828103825260128152602001807f5374616b6520697320746f6f20686967682e000000000000000000000000000081525060200191505060405180910390fd5b8260028190555081600381905550505050565b600061143e8686868686611b53565b8061145257506114518686868686611bf5565b5b905095945050505050565b60008060009054906101000a900473ffffffffffffffffffffffffffffffffffffffff16905090565b60008060009054906101000a900473ffffffffffffffffffffffffffffffffffffffff1673ffffffffffffffffffffffffffffffffffffffff163373ffffffffffffffffffffffffffffffffffffffff1614905090565b60035481565b6114eb611486565b6114f457600080fd5b80600160006101000a81548173ffffffffffffffffffffffffffffffffffffffff021916908373ffffffffffffffffffffffffffffffffffffffff16021790555050565b60008061154483611acd565b6040516020018082805190602001908083835b6020831061157a5780518252602082019150602081019050602083039250611557565b6001836020036101000a0380198251168184511680821785525050505050509050019150506040516020818303038152906040528051906020012090506115c0816115e5565b915050919050565b6115d0611486565b6115d957600080fd5b6115e281611d51565b50565b60008073ffffffffffffffffffffffffffffffffffffffff166004600084815260200190815260200160002060010160009054906101000a900473ffffffffffffffffffffffffffffffffffffffff1673ffffffffffffffffffffffffffffffffffffffff1614159050919050565b61169c600560008373ffffffffffffffffffffffffffffffffffffffff1673ffffffffffffffffffffffffffffffffffffffff168152602001908152602001600020546115e5565b1561170f576040517f08c379a000000000000000000000000000000000000000000000000000000000815260040180806020018281038252601b8152602001807f4164647265737320616c726561647920726567697374657265642e000000000081525060200191505060405180910390fd5b601f825110611786576040517f08c379a00000000000000000000000000000000000000000000000000000000081526004018080602001828103825260128152602001807f557365726e616d6520746f6f206c6f6e672e000000000000000000000000000081525060200191505060405180910390fd5b60038251116117fd576040517f08c379a00000000000000000000000000000000000000000000000000000000081526004018080602001828103825260138152602001807f557365726e616d6520746f6f2073686f72742e0000000000000000000000000081525060200191505060405180910390fd5b600061182061181b61181661181186611e49565b611e77565b611ea3565b611acd565b6040516020018082805190602001908083835b602083106118565780518252602082019150602081019050602083039250611833565b6001836020036101000a03801982511681845116808217855250505050505090500191505060405160208183030381529060405280519060200120905061189c816115e5565b1561190f576040517f08c379a000000000000000000000000000000000000000000000000000000000815260040180806020018281038252600f8152602001807f557365726e616d652074616b656e2e000000000000000000000000000000000081525060200191505060405180910390fd5b60405180604001604052808481526020018373ffffffffffffffffffffffffffffffffffffffff16815250600460008381526020019081526020016000206000820151816000019080519060200190611969929190612013565b5060208201518160010160006101000a81548173ffffffffffffffffffffffffffffffffffffffff021916908373ffffffffffffffffffffffffffffffffffffffff16021790555090505080600560008473ffffffffffffffffffffffffffffffffffffffff1673ffffffffffffffffffffffffffffffffffffffff168152602001908152602001600020819055507fbfba570579dd015aeb3054b92f73b1704ea3990bff6ef0ad798dcc17ddf12e51838360405180806020018373ffffffffffffffffffffffffffffffffffffffff1673ffffffffffffffffffffffffffffffffffffffff168152602001828103825284818151815260200191508051906020019080838360005b83811015611a8d578082015181840152602081019050611a72565b50505050905090810190601f168015611aba5780820380516001836020036101000a031916815260200191505b50935050505060405180910390a1505050565b60608082905060008090505b8151811015611b4957611b01828281518110611af157fe5b602001015160f81c60f81b611f05565b828281518110611b0d57fe5b60200101907effffffffffffffffffffffffffffffffffffffffffffffffffffffffffffff1916908160001a9053508080600101915050611ad9565b5080915050919050565b60008573ffffffffffffffffffffffffffffffffffffffff1660018686868660405160008152602001604052604051808581526020018460ff1660ff1681526020018381526020018281526020019450505050506020604051602081039080840390855afa158015611bc9573d6000803e3d6000fd5b5050506020604051035173ffffffffffffffffffffffffffffffffffffffff1614905095945050505050565b600060606040518060400160405280601c81526020017f19457468657265756d205369676e6564204d6573736167653a0a3332000000008152509050600081876040516020018083805190602001908083835b60208310611c6b5780518252602082019150602081019050602083039250611c48565b6001836020036101000a038019825116818451168082178552505050505050905001828152602001925050506040516020818303038152906040528051906020012090508773ffffffffffffffffffffffffffffffffffffffff1660018288888860405160008152602001604052604051808581526020018460ff1660ff1681526020018381526020018281526020019450505050506020604051602081039080840390855afa158015611d23573d6000803e3d6000fd5b5050506020604051035173ffffffffffffffffffffffffffffffffffffffff16149250505095945050505050565b600073ffffffffffffffffffffffffffffffffffffffff168173ffffffffffffffffffffffffffffffffffffffff161415611d8b57600080fd5b8073ffffffffffffffffffffffffffffffffffffffff166000809054906101000a900473ffffffffffffffffffffffffffffffffffffffff1673ffffffffffffffffffffffffffffffffffffffff167f8be0079c531659141344cd1fd0a4f28419497f9722a3daafe3b4186f6b6457e060405160405180910390a3806000806101000a81548173ffffffffffffffffffffffffffffffffffffffff021916908373ffffffffffffffffffffffffffffffffffffffff16021790555050565b611e51612093565b600060208301905060405180604001604052808451815260200182815250915050919050565b611e7f612093565b60405180604001604052808360000151815260200183602001518152509050919050565b60608082600001516040519080825280601f01601f191660200182016040528015611edd5781602001600182028038833980820191505090505b5090506000602082019050611efb8185602001518660000151611f82565b8192505050919050565b6000604160f81b827effffffffffffffffffffffffffffffffffffffffffffffffffffffffffffff191610158015611f635750605a60f81b827effffffffffffffffffffffffffffffffffffffffffffffffffffffffffffff191611155b15611f795760208260f81c0160f81b9050611f7d565b8190505b919050565b5b60208110611fa65781518352602083019250602082019150602081039050611f83565b60006001826020036101000a0390508019835116818551168181178652505050505050565b50805460018160011615610100020316600290046000825580601f10611ff15750612010565b601f01602090049060005260206000209081019061200f91906120ad565b5b50565b828054600181600116156101000203166002900490600052602060002090601f016020900481019282601f1061205457805160ff1916838001178555612082565b82800160010185558215612082579182015b82811115612081578251825591602001919060010190612066565b5b50905061208f91906120ad565b5090565b604051806040016040528060008152602001600081525090565b6120cf91905b808211156120cb5760008160009055506001016120b3565b5090565b9056fe437265617465205261696e64726f70436c69656e7420487964726f204163636f756e744e6f2075736572206173736f6369617465642077697468207468652073656e64657220616464726573732ea265627a7a72315820b510d60d428f14374f848985571951af0b5bfb91142f5641784daec2d03ee18564736f6c63430005100032",
  "source": "pragma solidity ^0.5.0;\n\nimport \"../zeppelin/ownership/Ownable.sol\";\nimport \"../resolvers/ClientRaindrop/StringUtils.sol\";\nimport \"../interfaces/HydroInterface.sol\";\n\ncontract OldClientRaindrop is Ownable {\n    // attach the StringUtils library\n    using StringUtils for string;\n    using StringUtils for StringUtils.slice;\n    // Events for when a user signs up for Raindrop Client and when their account is deleted\n    event UserSignUp(string casedUserName, address userAddress);\n    event UserDeleted(string casedUserName);\n\n    // Variables allowing this contract to interact with the Hydro token\n    address public hydroTokenAddress;\n    uint public minimumHydroStakeUser;\n    uint public minimumHydroStakeDelegatedUser;\n\n    // User account template\n    struct User {\n        string casedUserName;\n        address userAddress;\n    }\n\n    // Mapping from hashed uncased names to users (primary User directory)\n    mapping (bytes32 => User) internal userDirectory;\n    // Mapping from addresses to hashed uncased names (secondary directory for account recovery based on address)\n    mapping (address => bytes32) internal addressDirectory;\n\n    // Requires an address to have a minimum number of Hydro\n    modifier requireStake(address _address, uint stake) {\n        HydroInterface hydro = HydroInterface(hydroTokenAddress);\n        require(hydro.balanceOf(_address) >= stake, \"Insufficient HYDRO balance.\");\n        _;\n    }\n\n    // Allows applications to sign up users on their behalf iff users signed their permission\n    function signUpDelegatedUser(string memory casedUserName, address userAddress, uint8 v, bytes32 r, bytes32 s)\n        public\n        requireStake(msg.sender, minimumHydroStakeDelegatedUser)\n    {\n        require(\n            isSigned(userAddress, keccak256(abi.encodePacked(\"Create RaindropClient Hydro Account\")), v, r, s),\n            \"Permission denied.\"\n        );\n        _userSignUp(casedUserName, userAddress);\n    }\n\n    // Allows users to sign up with their own address\n    function signUpUser(string memory casedUserName) public requireStake(msg.sender, minimumHydroStakeUser) {\n        return _userSignUp(casedUserName, msg.sender);\n    }\n\n    // Allows users to delete their accounts\n    function deleteUser() public {\n        bytes32 uncasedUserNameHash = addressDirectory[msg.sender];\n        require(initialized(uncasedUserNameHash), \"No user associated with the sender address.\");\n\n        string memory casedUserName = userDirectory[uncasedUserNameHash].casedUserName;\n\n        delete addressDirectory[msg.sender];\n        delete userDirectory[uncasedUserNameHash];\n\n        emit UserDeleted(casedUserName);\n    }\n\n    // Allows the Hydro API to link to the Hydro token\n    function setHydroTokenAddress(address _hydroTokenAddress) public onlyOwner {\n        hydroTokenAddress = _hydroTokenAddress;\n    }\n\n    // Allows the Hydro API to set minimum hydro balances required for sign ups\n    function setMinimumHydroStakes(uint newMinimumHydroStakeUser, uint newMinimumHydroStakeDelegatedUser)\n        public onlyOwner\n    {\n        HydroInterface hydro = HydroInterface(hydroTokenAddress);\n        // <= the airdrop amount\n        require(newMinimumHydroStakeUser <= (222222 * 10**18), \"Stake is too high.\");\n        // <= 1% of total supply\n        require(newMinimumHydroStakeDelegatedUser <= (hydro.totalSupply() / 100), \"Stake is too high.\");\n        minimumHydroStakeUser = newMinimumHydroStakeUser;\n        minimumHydroStakeDelegatedUser = newMinimumHydroStakeDelegatedUser;\n    }\n\n    // Returns a bool indicating whether a given userName has been claimed (either exactly or as any case-variant)\n    function userNameTaken(string memory userName) public view returns (bool taken) {\n        bytes32 uncasedUserNameHash = keccak256(abi.encodePacked(userName.lower()));\n        return initialized(uncasedUserNameHash);\n    }\n\n    // Returns user details (including cased username) by any cased/uncased user name that maps to a particular user\n    function getUserByName(string memory userName) public view returns (string memory casedUserName, address userAddress) {\n        bytes32 uncasedUserNameHash = keccak256(abi.encodePacked(userName.lower()));\n        require(initialized(uncasedUserNameHash), \"User does not exist.\");\n\n        return (userDirectory[uncasedUserNameHash].casedUserName, userDirectory[uncasedUserNameHash].userAddress);\n    }\n\n    // Returns user details by user address\n    function getUserByAddress(address _address) public view returns (string memory casedUserName) {\n        bytes32 uncasedUserNameHash = addressDirectory[_address];\n        require(initialized(uncasedUserNameHash), \"User does not exist.\");\n\n        return userDirectory[uncasedUserNameHash].casedUserName;\n    }\n\n    // Checks whether the provided (v, r, s) signature was created by the private key associated with _address\n    function isSigned(address _address, bytes32 messageHash, uint8 v, bytes32 r, bytes32 s) public pure returns (bool) {\n        return (_isSigned(_address, messageHash, v, r, s) || _isSignedPrefixed(_address, messageHash, v, r, s));\n    }\n\n    // Checks unprefixed signatures\n    function _isSigned(address _address, bytes32 messageHash, uint8 v, bytes32 r, bytes32 s)\n        internal\n        pure\n        returns (bool)\n    {\n        return ecrecover(messageHash, v, r, s) == _address;\n    }\n\n    // Checks prefixed signatures (e.g. those created with web3.eth.sign)\n    function _isSignedPrefixed(address _address, bytes32 messageHash, uint8 v, bytes32 r, bytes32 s)\n        internal\n        pure\n        returns (bool)\n    {\n        bytes memory prefix = \"\\x19Ethereum Signed Message:\\n32\";\n        bytes32 prefixedMessageHash = keccak256(abi.encodePacked(prefix, messageHash));\n\n        return ecrecover(prefixedMessageHash, v, r, s) == _address;\n    }\n\n    // Common internal logic for all user signups\n    function _userSignUp(string memory casedUserName, address userAddress) internal {\n        require(!initialized(addressDirectory[userAddress]), \"Address already registered.\");\n\n        require(bytes(casedUserName).length < 31, \"Username too long.\");\n        require(bytes(casedUserName).length > 3, \"Username too short.\");\n\n        bytes32 uncasedUserNameHash = keccak256(abi.encodePacked(casedUserName.toSlice().copy().toString().lower()));\n        require(!initialized(uncasedUserNameHash), \"Username taken.\");\n\n        userDirectory[uncasedUserNameHash] = User(casedUserName, userAddress);\n        addressDirectory[userAddress] = uncasedUserNameHash;\n\n        emit UserSignUp(casedUserName, userAddress);\n    }\n\n    function initialized(bytes32 uncasedUserNameHash) internal view returns (bool) {\n        return userDirectory[uncasedUserNameHash].userAddress != address(0); // a sufficient initialization check\n    }\n}\n",
  "sourcePath": "/home/null/Documents/VoteDapp/contracts/_testing/OldClientRaindrop.sol",
  "compiler": {
    "name": "solc",
    "version": "0.5.16+commit.9c3226ce.Emscripten.clang"
  },
  "schemaVersion": "3.0.23",
  "updatedAt": "2020-10-03T12:02:50.255Z",
  "devdoc": {
    "methods": {
      "isOwner()": {
        "return": "true if `msg.sender` is the owner of the contract."
      },
      "owner()": {
        "return": "the address of the owner."
      },
      "renounceOwnership()": {
        "details": "Allows the current owner to relinquish control of the contract."
      },
      "transferOwnership(address)": {
        "details": "Allows the current owner to transfer control of the contract to a newOwner.",
        "params": {
          "newOwner": "The address to transfer ownership to."
        }
      }
    }
  },
  "userdoc": {
    "methods": {
      "renounceOwnership()": {
        "notice": "Renouncing to ownership will leave the contract without an owner. It will not be possible to call the functions with the `onlyOwner` modifier anymore."
      }
    }
  }
}