{
  "contractName": "Snowflake",
  "abi": [
    {
      "inputs": [
        {
          "internalType": "address",
          "name": "_identityRegistryAddress",
          "type": "address"
        },
        {
          "internalType": "address",
          "name": "_hydroTokenAddress",
          "type": "address"
        }
      ],
      "payable": false,
      "stateMutability": "nonpayable",
      "type": "constructor"
    },
    {
      "anonymous": false,
      "inputs": [
        {
          "indexed": true,
          "internalType": "address",
          "name": "previousOwner",
          "type": "address"
        },
        {
          "indexed": true,
          "internalType": "address",
          "name": "newOwner",
          "type": "address"
        }
      ],
      "name": "OwnershipTransferred",
      "type": "event"
    },
    {
      "anonymous": false,
      "inputs": [
        {
          "indexed": true,
          "internalType": "address",
          "name": "from",
          "type": "address"
        },
        {
          "indexed": true,
          "internalType": "uint256",
          "name": "einTo",
          "type": "uint256"
        },
        {
          "indexed": false,
          "internalType": "uint256",
          "name": "amount",
          "type": "uint256"
        }
      ],
      "name": "SnowflakeDeposit",
      "type": "event"
    },
    {
      "anonymous": false,
      "inputs": [
        {
          "indexed": true,
          "internalType": "uint256",
          "name": "ein",
          "type": "uint256"
        },
        {
          "indexed": true,
          "internalType": "address",
          "name": "resolver",
          "type": "address"
        },
        {
          "indexed": false,
          "internalType": "uint256",
          "name": "currentAllowance",
          "type": "uint256"
        },
        {
          "indexed": false,
          "internalType": "uint256",
          "name": "requestedWithdraw",
          "type": "uint256"
        }
      ],
      "name": "SnowflakeInsufficientAllowance",
      "type": "event"
    },
    {
      "anonymous": false,
      "inputs": [
        {
          "indexed": true,
          "internalType": "uint256",
          "name": "ein",
          "type": "uint256"
        },
        {
          "indexed": false,
          "internalType": "address[]",
          "name": "newProviders",
          "type": "address[]"
        },
        {
          "indexed": false,
          "internalType": "address[]",
          "name": "oldProviders",
          "type": "address[]"
        },
        {
          "indexed": false,
          "internalType": "address",
          "name": "approvingAddress",
          "type": "address"
        }
      ],
      "name": "SnowflakeProvidersUpgraded",
      "type": "event"
    },
    {
      "anonymous": false,
      "inputs": [
        {
          "indexed": true,
          "internalType": "uint256",
          "name": "ein",
          "type": "uint256"
        },
        {
          "indexed": true,
          "internalType": "address",
          "name": "resolver",
          "type": "address"
        },
        {
          "indexed": false,
          "internalType": "uint256",
          "name": "withdrawAllowance",
          "type": "uint256"
        }
      ],
      "name": "SnowflakeResolverAdded",
      "type": "event"
    },
    {
      "anonymous": false,
      "inputs": [
        {
          "indexed": true,
          "internalType": "uint256",
          "name": "ein",
          "type": "uint256"
        },
        {
          "indexed": true,
          "internalType": "address",
          "name": "resolver",
          "type": "address"
        },
        {
          "indexed": false,
          "internalType": "uint256",
          "name": "withdrawAllowance",
          "type": "uint256"
        }
      ],
      "name": "SnowflakeResolverAllowanceChanged",
      "type": "event"
    },
    {
      "anonymous": false,
      "inputs": [
        {
          "indexed": true,
          "internalType": "uint256",
          "name": "ein",
          "type": "uint256"
        },
        {
          "indexed": true,
          "internalType": "address",
          "name": "resolver",
          "type": "address"
        }
      ],
      "name": "SnowflakeResolverRemoved",
      "type": "event"
    },
    {
      "anonymous": false,
      "inputs": [
        {
          "indexed": true,
          "internalType": "uint256",
          "name": "einFrom",
          "type": "uint256"
        },
        {
          "indexed": true,
          "internalType": "uint256",
          "name": "einTo",
          "type": "uint256"
        },
        {
          "indexed": false,
          "internalType": "uint256",
          "name": "amount",
          "type": "uint256"
        }
      ],
      "name": "SnowflakeTransfer",
      "type": "event"
    },
    {
      "anonymous": false,
      "inputs": [
        {
          "indexed": true,
          "internalType": "address",
          "name": "resolverFrom",
          "type": "address"
        }
      ],
      "name": "SnowflakeTransferFrom",
      "type": "event"
    },
    {
      "anonymous": false,
      "inputs": [
        {
          "indexed": true,
          "internalType": "address",
          "name": "resolverFrom",
          "type": "address"
        },
        {
          "indexed": true,
          "internalType": "uint256",
          "name": "einTo",
          "type": "uint256"
        }
      ],
      "name": "SnowflakeTransferFromVia",
      "type": "event"
    },
    {
      "anonymous": false,
      "inputs": [
        {
          "indexed": true,
          "internalType": "address",
          "name": "resolverFrom",
          "type": "address"
        },
        {
          "indexed": true,
          "internalType": "address",
          "name": "via",
          "type": "address"
        },
        {
          "indexed": true,
          "internalType": "uint256",
          "name": "einTo",
          "type": "uint256"
        },
        {
          "indexed": false,
          "internalType": "uint256",
          "name": "amount",
          "type": "uint256"
        }
      ],
      "name": "SnowflakeTransferToVia",
      "type": "event"
    },
    {
      "anonymous": false,
      "inputs": [
        {
          "indexed": true,
          "internalType": "uint256",
          "name": "einFrom",
          "type": "uint256"
        },
        {
          "indexed": true,
          "internalType": "address",
          "name": "to",
          "type": "address"
        },
        {
          "indexed": false,
          "internalType": "uint256",
          "name": "amount",
          "type": "uint256"
        }
      ],
      "name": "SnowflakeWithdraw",
      "type": "event"
    },
    {
      "anonymous": false,
      "inputs": [
        {
          "indexed": true,
          "internalType": "address",
          "name": "resolverFrom",
          "type": "address"
        }
      ],
      "name": "SnowflakeWithdrawFrom",
      "type": "event"
    },
    {
      "anonymous": false,
      "inputs": [
        {
          "indexed": true,
          "internalType": "address",
          "name": "resolverFrom",
          "type": "address"
        },
        {
          "indexed": true,
          "internalType": "address",
          "name": "to",
          "type": "address"
        }
      ],
      "name": "SnowflakeWithdrawFromVia",
      "type": "event"
    },
    {
      "anonymous": false,
      "inputs": [
        {
          "indexed": true,
          "internalType": "address",
          "name": "resolverFrom",
          "type": "address"
        },
        {
          "indexed": true,
          "internalType": "address",
          "name": "via",
          "type": "address"
        },
        {
          "indexed": true,
          "internalType": "address",
          "name": "to",
          "type": "address"
        },
        {
          "indexed": false,
          "internalType": "uint256",
          "name": "amount",
          "type": "uint256"
        }
      ],
      "name": "SnowflakeWithdrawToVia",
      "type": "event"
    },
    {
      "constant": true,
      "inputs": [],
      "name": "clientRaindropAddress",
      "outputs": [
        {
          "internalType": "address",
          "name": "",
          "type": "address"
        }
      ],
      "payable": false,
      "stateMutability": "view",
      "type": "function"
    },
    {
      "constant": true,
      "inputs": [
        {
          "internalType": "uint256",
          "name": "",
          "type": "uint256"
        }
      ],
      "name": "deposits",
      "outputs": [
        {
          "internalType": "uint256",
          "name": "",
          "type": "uint256"
        }
      ],
      "payable": false,
      "stateMutability": "view",
      "type": "function"
    },
    {
      "constant": true,
      "inputs": [],
      "name": "hydroTokenAddress",
      "outputs": [
        {
          "internalType": "address",
          "name": "",
          "type": "address"
        }
      ],
      "payable": false,
      "stateMutability": "view",
      "type": "function"
    },
    {
      "constant": true,
      "inputs": [],
      "name": "identityRegistryAddress",
      "outputs": [
        {
          "internalType": "address",
          "name": "",
          "type": "address"
        }
      ],
      "payable": false,
      "stateMutability": "view",
      "type": "function"
    },
    {
      "constant": true,
      "inputs": [],
      "name": "isOwner",
      "outputs": [
        {
          "internalType": "bool",
          "name": "",
          "type": "bool"
        }
      ],
      "payable": false,
      "stateMutability": "view",
      "type": "function"
    },
    {
      "constant": true,
      "inputs": [],
      "name": "owner",
      "outputs": [
        {
          "internalType": "address",
          "name": "",
          "type": "address"
        }
      ],
      "payable": false,
      "stateMutability": "view",
      "type": "function"
    },
    {
      "constant": false,
      "inputs": [],
      "name": "renounceOwnership",
      "outputs": [],
      "payable": false,
      "stateMutability": "nonpayable",
      "type": "function"
    },
    {
      "constant": true,
      "inputs": [
        {
          "internalType": "uint256",
          "name": "",
          "type": "uint256"
        },
        {
          "internalType": "address",
          "name": "",
          "type": "address"
        }
      ],
      "name": "resolverAllowances",
      "outputs": [
        {
          "internalType": "uint256",
          "name": "",
          "type": "uint256"
        }
      ],
      "payable": false,
      "stateMutability": "view",
      "type": "function"
    },
    {
      "constant": true,
      "inputs": [
        {
          "internalType": "uint256",
          "name": "",
          "type": "uint256"
        }
      ],
      "name": "signatureNonce",
      "outputs": [
        {
          "internalType": "uint256",
          "name": "",
          "type": "uint256"
        }
      ],
      "payable": false,
      "stateMutability": "view",
      "type": "function"
    },
    {
      "constant": true,
      "inputs": [],
      "name": "signatureTimeout",
      "outputs": [
        {
          "internalType": "uint256",
          "name": "",
          "type": "uint256"
        }
      ],
      "payable": false,
      "stateMutability": "view",
      "type": "function"
    },
    {
      "constant": false,
      "inputs": [
        {
          "internalType": "address",
          "name": "newOwner",
          "type": "address"
        }
      ],
      "name": "transferOwnership",
      "outputs": [],
      "payable": false,
      "stateMutability": "nonpayable",
      "type": "function"
    },
    {
      "constant": false,
      "inputs": [
        {
          "internalType": "address",
          "name": "_identityRegistryAddress",
          "type": "address"
        },
        {
          "internalType": "address",
          "name": "_hydroTokenAddress",
          "type": "address"
        }
      ],
      "name": "setAddresses",
      "outputs": [],
      "payable": false,
      "stateMutability": "nonpayable",
      "type": "function"
    },
    {
      "constant": false,
      "inputs": [
        {
          "internalType": "address",
          "name": "_clientRaindropAddress",
          "type": "address"
        }
      ],
      "name": "setClientRaindropAddress",
      "outputs": [],
      "payable": false,
      "stateMutability": "nonpayable",
      "type": "function"
    },
    {
      "constant": false,
      "inputs": [
        {
          "internalType": "address",
          "name": "recoveryAddress",
          "type": "address"
        },
        {
          "internalType": "address",
          "name": "associatedAddress",
          "type": "address"
        },
        {
          "internalType": "address[]",
          "name": "providers",
          "type": "address[]"
        },
        {
          "internalType": "string",
          "name": "casedHydroId",
          "type": "string"
        },
        {
          "internalType": "uint8",
          "name": "v",
          "type": "uint8"
        },
        {
          "internalType": "bytes32",
          "name": "r",
          "type": "bytes32"
        },
        {
          "internalType": "bytes32",
          "name": "s",
          "type": "bytes32"
        },
        {
          "internalType": "uint256",
          "name": "timestamp",
          "type": "uint256"
        }
      ],
      "name": "createIdentityDelegated",
      "outputs": [
        {
          "internalType": "uint256",
          "name": "ein",
          "type": "uint256"
        }
      ],
      "payable": false,
      "stateMutability": "nonpayable",
      "type": "function"
    },
    {
      "constant": false,
      "inputs": [
        {
          "internalType": "address",
          "name": "approvingAddress",
          "type": "address"
        },
        {
          "internalType": "address[]",
          "name": "providers",
          "type": "address[]"
        },
        {
          "internalType": "uint8",
          "name": "v",
          "type": "uint8"
        },
        {
          "internalType": "bytes32",
          "name": "r",
          "type": "bytes32"
        },
        {
          "internalType": "bytes32",
          "name": "s",
          "type": "bytes32"
        },
        {
          "internalType": "uint256",
          "name": "timestamp",
          "type": "uint256"
        }
      ],
      "name": "addProvidersFor",
      "outputs": [],
      "payable": false,
      "stateMutability": "nonpayable",
      "type": "function"
    },
    {
      "constant": false,
      "inputs": [
        {
          "internalType": "address",
          "name": "approvingAddress",
          "type": "address"
        },
        {
          "internalType": "address[]",
          "name": "providers",
          "type": "address[]"
        },
        {
          "internalType": "uint8",
          "name": "v",
          "type": "uint8"
        },
        {
          "internalType": "bytes32",
          "name": "r",
          "type": "bytes32"
        },
        {
          "internalType": "bytes32",
          "name": "s",
          "type": "bytes32"
        },
        {
          "internalType": "uint256",
          "name": "timestamp",
          "type": "uint256"
        }
      ],
      "name": "removeProvidersFor",
      "outputs": [],
      "payable": false,
      "stateMutability": "nonpayable",
      "type": "function"
    },
    {
      "constant": false,
      "inputs": [
        {
          "internalType": "address",
          "name": "approvingAddress",
          "type": "address"
        },
        {
          "internalType": "address[]",
          "name": "newProviders",
          "type": "address[]"
        },
        {
          "internalType": "address[]",
          "name": "oldProviders",
          "type": "address[]"
        },
        {
          "internalType": "uint8[2]",
          "name": "v",
          "type": "uint8[2]"
        },
        {
          "internalType": "bytes32[2]",
          "name": "r",
          "type": "bytes32[2]"
        },
        {
          "internalType": "bytes32[2]",
          "name": "s",
          "type": "bytes32[2]"
        },
        {
          "internalType": "uint256[2]",
          "name": "timestamp",
          "type": "uint256[2]"
        }
      ],
      "name": "upgradeProvidersFor",
      "outputs": [],
      "payable": false,
      "stateMutability": "nonpayable",
      "type": "function"
    },
    {
      "constant": false,
      "inputs": [
        {
          "internalType": "address",
          "name": "resolver",
          "type": "address"
        },
        {
          "internalType": "bool",
          "name": "isSnowflake",
          "type": "bool"
        },
        {
          "internalType": "uint256",
          "name": "withdrawAllowance",
          "type": "uint256"
        },
        {
          "internalType": "bytes",
          "name": "extraData",
          "type": "bytes"
        }
      ],
      "name": "addResolver",
      "outputs": [],
      "payable": false,
      "stateMutability": "nonpayable",
      "type": "function"
    },
    {
      "constant": false,
      "inputs": [
        {
          "internalType": "uint256",
          "name": "ein",
          "type": "uint256"
        },
        {
          "internalType": "address",
          "name": "resolver",
          "type": "address"
        },
        {
          "internalType": "bool",
          "name": "isSnowflake",
          "type": "bool"
        },
        {
          "internalType": "uint256",
          "name": "withdrawAllowance",
          "type": "uint256"
        },
        {
          "internalType": "bytes",
          "name": "extraData",
          "type": "bytes"
        }
      ],
      "name": "addResolverAsProvider",
      "outputs": [],
      "payable": false,
      "stateMutability": "nonpayable",
      "type": "function"
    },
    {
      "constant": false,
      "inputs": [
        {
          "internalType": "address",
          "name": "approvingAddress",
          "type": "address"
        },
        {
          "internalType": "address",
          "name": "resolver",
          "type": "address"
        },
        {
          "internalType": "bool",
          "name": "isSnowflake",
          "type": "bool"
        },
        {
          "internalType": "uint256",
          "name": "withdrawAllowance",
          "type": "uint256"
        },
        {
          "internalType": "bytes",
          "name": "extraData",
          "type": "bytes"
        },
        {
          "internalType": "uint8",
          "name": "v",
          "type": "uint8"
        },
        {
          "internalType": "bytes32",
          "name": "r",
          "type": "bytes32"
        },
        {
          "internalType": "bytes32",
          "name": "s",
          "type": "bytes32"
        },
        {
          "internalType": "uint256",
          "name": "timestamp",
          "type": "uint256"
        }
      ],
      "name": "addResolverFor",
      "outputs": [],
      "payable": false,
      "stateMutability": "nonpayable",
      "type": "function"
    },
    {
      "constant": false,
      "inputs": [
        {
          "internalType": "address",
          "name": "approvingAddress",
          "type": "address"
        },
        {
          "internalType": "address[]",
          "name": "resolvers",
          "type": "address[]"
        },
        {
          "internalType": "uint256[]",
          "name": "withdrawAllowances",
          "type": "uint256[]"
        },
        {
          "internalType": "uint8",
          "name": "v",
          "type": "uint8"
        },
        {
          "internalType": "bytes32",
          "name": "r",
          "type": "bytes32"
        },
        {
          "internalType": "bytes32",
          "name": "s",
          "type": "bytes32"
        }
      ],
      "name": "changeResolverAllowancesDelegated",
      "outputs": [],
      "payable": false,
      "stateMutability": "nonpayable",
      "type": "function"
    },
    {
      "constant": false,
      "inputs": [
        {
          "internalType": "address[]",
          "name": "resolvers",
          "type": "address[]"
        },
        {
          "internalType": "uint256[]",
          "name": "withdrawAllowances",
          "type": "uint256[]"
        }
      ],
      "name": "changeResolverAllowances",
      "outputs": [],
      "payable": false,
      "stateMutability": "nonpayable",
      "type": "function"
    },
    {
      "constant": false,
      "inputs": [
        {
          "internalType": "address",
          "name": "approvingAddress",
          "type": "address"
        },
        {
          "internalType": "address",
          "name": "resolver",
          "type": "address"
        },
        {
          "internalType": "bool",
          "name": "isSnowflake",
          "type": "bool"
        },
        {
          "internalType": "bytes",
          "name": "extraData",
          "type": "bytes"
        },
        {
          "internalType": "uint8",
          "name": "v",
          "type": "uint8"
        },
        {
          "internalType": "bytes32",
          "name": "r",
          "type": "bytes32"
        },
        {
          "internalType": "bytes32",
          "name": "s",
          "type": "bytes32"
        },
        {
          "internalType": "uint256",
          "name": "timestamp",
          "type": "uint256"
        }
      ],
      "name": "removeResolverFor",
      "outputs": [],
      "payable": false,
      "stateMutability": "nonpayable",
      "type": "function"
    },
    {
      "constant": false,
      "inputs": [
        {
          "internalType": "address",
          "name": "resolver",
          "type": "address"
        },
        {
          "internalType": "bool",
          "name": "isSnowflake",
          "type": "bool"
        },
        {
          "internalType": "bytes",
          "name": "extraData",
          "type": "bytes"
        }
      ],
      "name": "removeResolver",
      "outputs": [],
      "payable": false,
      "stateMutability": "nonpayable",
      "type": "function"
    },
    {
      "constant": false,
      "inputs": [
        {
          "internalType": "address",
          "name": "approvingAddress",
          "type": "address"
        },
        {
          "internalType": "address",
          "name": "newRecoveryAddress",
          "type": "address"
        },
        {
          "internalType": "uint8",
          "name": "v",
          "type": "uint8"
        },
        {
          "internalType": "bytes32",
          "name": "r",
          "type": "bytes32"
        },
        {
          "internalType": "bytes32",
          "name": "s",
          "type": "bytes32"
        }
      ],
      "name": "triggerRecoveryAddressChangeFor",
      "outputs": [],
      "payable": false,
      "stateMutability": "nonpayable",
      "type": "function"
    },
    {
      "constant": false,
      "inputs": [
        {
          "internalType": "address",
          "name": "sender",
          "type": "address"
        },
        {
          "internalType": "uint256",
          "name": "amount",
          "type": "uint256"
        },
        {
          "internalType": "address",
          "name": "_tokenAddress",
          "type": "address"
        },
        {
          "internalType": "bytes",
          "name": "_bytes",
          "type": "bytes"
        }
      ],
      "name": "receiveApproval",
      "outputs": [],
      "payable": false,
      "stateMutability": "nonpayable",
      "type": "function"
    },
    {
      "constant": false,
      "inputs": [
        {
          "internalType": "uint256",
          "name": "einTo",
          "type": "uint256"
        },
        {
          "internalType": "uint256",
          "name": "amount",
          "type": "uint256"
        }
      ],
      "name": "transferSnowflakeBalance",
      "outputs": [],
      "payable": false,
      "stateMutability": "nonpayable",
      "type": "function"
    },
    {
      "constant": false,
      "inputs": [
        {
          "internalType": "address",
          "name": "to",
          "type": "address"
        },
        {
          "internalType": "uint256",
          "name": "amount",
          "type": "uint256"
        }
      ],
      "name": "withdrawSnowflakeBalance",
      "outputs": [],
      "payable": false,
      "stateMutability": "nonpayable",
      "type": "function"
    },
    {
      "constant": false,
      "inputs": [
        {
          "internalType": "uint256",
          "name": "einFrom",
          "type": "uint256"
        },
        {
          "internalType": "uint256",
          "name": "einTo",
          "type": "uint256"
        },
        {
          "internalType": "uint256",
          "name": "amount",
          "type": "uint256"
        }
      ],
      "name": "transferSnowflakeBalanceFrom",
      "outputs": [],
      "payable": false,
      "stateMutability": "nonpayable",
      "type": "function"
    },
    {
      "constant": false,
      "inputs": [
        {
          "internalType": "uint256",
          "name": "einFrom",
          "type": "uint256"
        },
        {
          "internalType": "address",
          "name": "to",
          "type": "address"
        },
        {
          "internalType": "uint256",
          "name": "amount",
          "type": "uint256"
        }
      ],
      "name": "withdrawSnowflakeBalanceFrom",
      "outputs": [],
      "payable": false,
      "stateMutability": "nonpayable",
      "type": "function"
    },
    {
      "constant": false,
      "inputs": [
        {
          "internalType": "uint256",
          "name": "einFrom",
          "type": "uint256"
        },
        {
          "internalType": "address",
          "name": "via",
          "type": "address"
        },
        {
          "internalType": "uint256",
          "name": "einTo",
          "type": "uint256"
        },
        {
          "internalType": "uint256",
          "name": "amount",
          "type": "uint256"
        },
        {
          "internalType": "bytes",
          "name": "_bytes",
          "type": "bytes"
        }
      ],
      "name": "transferSnowflakeBalanceFromVia",
      "outputs": [],
      "payable": false,
      "stateMutability": "nonpayable",
      "type": "function"
    },
    {
      "constant": false,
      "inputs": [
        {
          "internalType": "uint256",
          "name": "einFrom",
          "type": "uint256"
        },
        {
          "internalType": "address",
          "name": "via",
          "type": "address"
        },
        {
          "internalType": "address payable",
          "name": "to",
          "type": "address"
        },
        {
          "internalType": "uint256",
          "name": "amount",
          "type": "uint256"
        },
        {
          "internalType": "bytes",
          "name": "_bytes",
          "type": "bytes"
        }
      ],
      "name": "withdrawSnowflakeBalanceFromVia",
      "outputs": [],
      "payable": false,
      "stateMutability": "nonpayable",
      "type": "function"
    },
    {
      "constant": false,
      "inputs": [
        {
          "internalType": "address",
          "name": "destination",
          "type": "address"
        },
        {
          "internalType": "uint256",
          "name": "amount",
          "type": "uint256"
        },
        {
          "internalType": "bytes",
          "name": "data",
          "type": "bytes"
        },
        {
          "internalType": "address",
          "name": "approvingAddress",
          "type": "address"
        },
        {
          "internalType": "uint8",
          "name": "v",
          "type": "uint8"
        },
        {
          "internalType": "bytes32",
          "name": "r",
          "type": "bytes32"
        },
        {
          "internalType": "bytes32",
          "name": "s",
          "type": "bytes32"
        }
      ],
      "name": "allowAndCallDelegated",
      "outputs": [
        {
          "internalType": "bytes",
          "name": "returnData",
          "type": "bytes"
        }
      ],
      "payable": false,
      "stateMutability": "nonpayable",
      "type": "function"
    },
    {
      "constant": false,
      "inputs": [
        {
          "internalType": "address",
          "name": "destination",
          "type": "address"
        },
        {
          "internalType": "uint256",
          "name": "amount",
          "type": "uint256"
        },
        {
          "internalType": "bytes",
          "name": "data",
          "type": "bytes"
        }
      ],
      "name": "allowAndCall",
      "outputs": [
        {
          "internalType": "bytes",
          "name": "returnData",
          "type": "bytes"
        }
      ],
      "payable": false,
      "stateMutability": "nonpayable",
      "type": "function"
    }
  ],
  "bytecode": "0x6080604052620151806009553480156200001857600080fd5b5060405162007d0c38038062007d0c833981810160405260408110156200003e57600080fd5b810190808051906020019092919080519060200190929190505050336000806101000a81548173ffffffffffffffffffffffffffffffffffffffff021916908373ffffffffffffffffffffffffffffffffffffffff1602179055506000809054906101000a900473ffffffffffffffffffffffffffffffffffffffff1673ffffffffffffffffffffffffffffffffffffffff16600073ffffffffffffffffffffffffffffffffffffffff167f8be0079c531659141344cd1fd0a4f28419497f9722a3daafe3b4186f6b6457e060405160405180910390a36200012782826200012f60201b60201c565b5050620002ec565b6200013f6200029560201b60201c565b6200014957600080fd5b81600360006101000a81548173ffffffffffffffffffffffffffffffffffffffff021916908373ffffffffffffffffffffffffffffffffffffffff160217905550600360009054906101000a900473ffffffffffffffffffffffffffffffffffffffff16600460006101000a81548173ffffffffffffffffffffffffffffffffffffffff021916908373ffffffffffffffffffffffffffffffffffffffff16021790555080600560006101000a81548173ffffffffffffffffffffffffffffffffffffffff021916908373ffffffffffffffffffffffffffffffffffffffff160217905550600560009054906101000a900473ffffffffffffffffffffffffffffffffffffffff16600660006101000a81548173ffffffffffffffffffffffffffffffffffffffff021916908373ffffffffffffffffffffffffffffffffffffffff1602179055505050565b60008060009054906101000a900473ffffffffffffffffffffffffffffffffffffffff1673ffffffffffffffffffffffffffffffffffffffff163373ffffffffffffffffffffffffffffffffffffffff1614905090565b617a1080620002fc6000396000f3fe608060405234801561001057600080fd5b50600436106102065760003560e01c80638da5cb5b1161011a578063a759ee6f116100ad578063edda78151161007c578063edda78151461182c578063ef11f9da14611884578063efd96fbf146118e6578063f2fde38b14611a19578063fe89e39614611a5d57610206565b8063a759ee6f14611661578063b02c43d0146116ab578063badcfbcf146116ed578063c94dbd331461173b57610206565b80639675932e116100e95780639675932e146111965780639cd54210146112f45780639d10bb32146113ed578063a3e9ec73146114d457610206565b80638da5cb5b14610fc15780638f32d59b1461100b5780638f4ffcb11461102d57806390107afe1461113257610206565b80635437b67c1161019d578063715018a61161016c578063715018a614610cf157806375d7e4bd14610cfb578063856b414e14610d4557806385b118aa14610d8957806387d6203814610ec657610206565b80635437b67c146107475780635a967ea514610765578063659ab4c3146109345780636be4d9b014610ba557610206565b806327a0b6d8116101d957806327a0b6d8146104785780633b6da765146104fd5780633e63dcc11461053557806349a79a501461064457610206565b806309164f9c1461020b57806312f1dbc81461024d578063139546471461028f5780631dfc99c41461042e575b600080fd5b61024b6004803603606081101561022157600080fd5b81019080803590602001909291908035906020019092919080359060200190929190505050611b60565b005b6102796004803603602081101561026357600080fd5b8101908080359060200190929190505050611bbe565b6040518082815260200191505060405180910390f35b6103b3600480360360e08110156102a557600080fd5b81019080803573ffffffffffffffffffffffffffffffffffffffff16906020019092919080359060200190929190803590602001906401000000008111156102ec57600080fd5b8201836020820111156102fe57600080fd5b8035906020019184600183028401116401000000008311171561032057600080fd5b91908080601f016020809104026020016040519081016040528093929190818152602001838380828437600081840152601f19601f820116905080830192505050505050509192919290803573ffffffffffffffffffffffffffffffffffffffff169060200190929190803560ff1690602001909291908035906020019092919080359060200190929190505050611bd6565b6040518080602001828103825283818151815260200191508051906020019080838360005b838110156103f35780820151818401526020810190506103d8565b50505050905090810190601f1680156104205780820380516001836020036101000a031916815260200191505b509250505060405180910390f35b610436611d08565b604051808273ffffffffffffffffffffffffffffffffffffffff1673ffffffffffffffffffffffffffffffffffffffff16815260200191505060405180910390f35b6104fb600480360360a081101561048e57600080fd5b81019080803573ffffffffffffffffffffffffffffffffffffffff169060200190929190803573ffffffffffffffffffffffffffffffffffffffff169060200190929190803560ff1690602001909291908035906020019092919080359060200190929190505050611d2e565b005b6105336004803603604081101561051357600080fd5b8101908080359060200190929190803590602001909291905050506121b5565b005b610642600480360360a081101561054b57600080fd5b8101908080359060200190929190803573ffffffffffffffffffffffffffffffffffffffff169060200190929190803573ffffffffffffffffffffffffffffffffffffffff16906020019092919080359060200190929190803590602001906401000000008111156105bc57600080fd5b8201836020820111156105ce57600080fd5b803590602001918460018302840111640100000000831117156105f057600080fd5b91908080601f016020809104026020016040519081016040528093929190818152602001838380828437600081840152601f19601f82011690508083019250505050505050919291929050505061229e565b005b610745600480360360c081101561065a57600080fd5b81019080803573ffffffffffffffffffffffffffffffffffffffff1690602001909291908035906020019064010000000081111561069757600080fd5b8201836020820111156106a957600080fd5b803590602001918460208302840111640100000000831117156106cb57600080fd5b919080806020026020016040519081016040528093929190818152602001838360200280828437600081840152601f19601f820116905080830192505050505050509192919290803560ff169060200190929190803590602001909291908035906020019092919080359060200190929190505050612462565b005b61074f61295d565b6040518082815260200191505060405180910390f35b61091e600480360361010081101561077c57600080fd5b81019080803573ffffffffffffffffffffffffffffffffffffffff169060200190929190803573ffffffffffffffffffffffffffffffffffffffff169060200190929190803590602001906401000000008111156107d957600080fd5b8201836020820111156107eb57600080fd5b8035906020019184602083028401116401000000008311171561080d57600080fd5b919080806020026020016040519081016040528093929190818152602001838360200280828437600081840152601f19601f8201169050808301925050505050505091929192908035906020019064010000000081111561086d57600080fd5b82018360208201111561087f57600080fd5b803590602001918460018302840111640100000000831117156108a157600080fd5b91908080601f016020809104026020016040519081016040528093929190818152602001838380828437600081840152601f19601f820116905080830192505050505050509192919290803560ff169060200190929190803590602001909291908035906020019092919080359060200190929190505050612963565b6040518082815260200191505060405180910390f35b610ba3600480360361016081101561094b57600080fd5b81019080803573ffffffffffffffffffffffffffffffffffffffff1690602001909291908035906020019064010000000081111561098857600080fd5b82018360208201111561099a57600080fd5b803590602001918460208302840111640100000000831117156109bc57600080fd5b919080806020026020016040519081016040528093929190818152602001838360200280828437600081840152601f19601f82011690508083019250505050505050919291929080359060200190640100000000811115610a1c57600080fd5b820183602082011115610a2e57600080fd5b80359060200191846020830284011164010000000083111715610a5057600080fd5b919080806020026020016040519081016040528093929190818152602001838360200280828437600081840152601f19601f82011690508083019250505050505050919291929080604001906002806020026040519081016040528092919082600260200280828437600081840152601f19601f820116905080830192505050505050919291929080604001906002806020026040519081016040528092919082600260200280828437600081840152601f19601f820116905080830192505050505050919291929080604001906002806020026040519081016040528092919082600260200280828437600081840152601f19601f820116905080830192505050505050919291929080604001906002806020026040519081016040528092919082600260200280828437600081840152601f19601f8201169050808301925050505050509192919290505050612d52565b005b610cef60048036036040811015610bbb57600080fd5b8101908080359060200190640100000000811115610bd857600080fd5b820183602082011115610bea57600080fd5b80359060200191846020830284011164010000000083111715610c0c57600080fd5b919080806020026020016040519081016040528093929190818152602001838360200280828437600081840152601f19601f82011690508083019250505050505050919291929080359060200190640100000000811115610c6c57600080fd5b820183602082011115610c7e57600080fd5b80359060200191846020830284011164010000000083111715610ca057600080fd5b919080806020026020016040519081016040528093929190818152602001838360200280828437600081840152601f19601f820116905080830192505050505050509192919290505050612fd4565b005b610cf96130bc565b005b610d0361318c565b604051808273ffffffffffffffffffffffffffffffffffffffff1673ffffffffffffffffffffffffffffffffffffffff16815260200191505060405180910390f35b610d8760048036036020811015610d5b57600080fd5b81019080803573ffffffffffffffffffffffffffffffffffffffff1690602001909291905050506131b2565b005b610ec46004803603610120811015610da057600080fd5b81019080803573ffffffffffffffffffffffffffffffffffffffff169060200190929190803573ffffffffffffffffffffffffffffffffffffffff1690602001909291908035151590602001909291908035906020019092919080359060200190640100000000811115610e1357600080fd5b820183602082011115610e2557600080fd5b80359060200191846001830284011164010000000083111715610e4757600080fd5b91908080601f016020809104026020016040519081016040528093929190818152602001838380828437600081840152601f19601f820116905080830192505050505050509192919290803560ff16906020019092919080359060200190929190803590602001909291908035906020019092919050505061326a565b005b610fbf600480360360a0811015610edc57600080fd5b8101908080359060200190929190803573ffffffffffffffffffffffffffffffffffffffff1690602001909291908035151590602001909291908035906020019092919080359060200190640100000000811115610f3957600080fd5b820183602082011115610f4b57600080fd5b80359060200191846001830284011164010000000083111715610f6d57600080fd5b91908080601f016020809104026020016040519081016040528093929190818152602001838380828437600081840152601f19601f820116905080830192505050505050509192919290505050613373565b005b610fc96134be565b604051808273ffffffffffffffffffffffffffffffffffffffff1673ffffffffffffffffffffffffffffffffffffffff16815260200191505060405180910390f35b6110136134e7565b604051808215151515815260200191505060405180910390f35b6111306004803603608081101561104357600080fd5b81019080803573ffffffffffffffffffffffffffffffffffffffff16906020019092919080359060200190929190803573ffffffffffffffffffffffffffffffffffffffff169060200190929190803590602001906401000000008111156110aa57600080fd5b8201836020820111156110bc57600080fd5b803590602001918460018302840111640100000000831117156110de57600080fd5b91908080601f016020809104026020016040519081016040528093929190818152602001838380828437600081840152601f19601f82011690508083019250505050505050919291929050505061353e565b005b6111946004803603604081101561114857600080fd5b81019080803573ffffffffffffffffffffffffffffffffffffffff169060200190929190803573ffffffffffffffffffffffffffffffffffffffff169060200190929190505050614077565b005b611279600480360360608110156111ac57600080fd5b81019080803573ffffffffffffffffffffffffffffffffffffffff16906020019092919080359060200190929190803590602001906401000000008111156111f357600080fd5b82018360208201111561120557600080fd5b8035906020019184600183028401116401000000008311171561122757600080fd5b91908080601f016020809104026020016040519081016040528093929190818152602001838380828437600081840152601f19601f8201169050808301925050505050505091929192905050506141d4565b6040518080602001828103825283818151815260200191508051906020019080838360005b838110156112b957808201518184015260208101905061129e565b50505050905090810190601f1680156112e65780820380516001836020036101000a031916815260200191505b509250505060405180910390f35b6113eb600480360360a081101561130a57600080fd5b8101908080359060200190929190803573ffffffffffffffffffffffffffffffffffffffff16906020019092919080359060200190929190803590602001909291908035906020019064010000000081111561136557600080fd5b82018360208201111561137757600080fd5b8035906020019184600183028401116401000000008311171561139957600080fd5b91908080601f016020809104026020016040519081016040528093929190818152602001838380828437600081840152601f19601f8201169050808301925050505050505091929192905050506142c4565b005b6114d26004803603606081101561140357600080fd5b81019080803573ffffffffffffffffffffffffffffffffffffffff1690602001909291908035151590602001909291908035906020019064010000000081111561144c57600080fd5b82018360208201111561145e57600080fd5b8035906020019184600183028401116401000000008311171561148057600080fd5b91908080601f016020809104026020016040519081016040528093929190818152602001838380828437600081840152601f19601f820116905080830192505050505050509192919290505050614446565b005b61165f600480360360c08110156114ea57600080fd5b81019080803573ffffffffffffffffffffffffffffffffffffffff1690602001909291908035906020019064010000000081111561152757600080fd5b82018360208201111561153957600080fd5b8035906020019184602083028401116401000000008311171561155b57600080fd5b919080806020026020016040519081016040528093929190818152602001838360200280828437600081840152601f19601f820116905080830192505050505050509192919290803590602001906401000000008111156115bb57600080fd5b8201836020820111156115cd57600080fd5b803590602001918460208302840111640100000000831117156115ef57600080fd5b919080806020026020016040519081016040528093929190818152602001838360200280828437600081840152601f19601f820116905080830192505050505050509192919290803560ff1690602001909291908035906020019092919080359060200190929190505050614530565b005b611669614935565b604051808273ffffffffffffffffffffffffffffffffffffffff1673ffffffffffffffffffffffffffffffffffffffff16815260200191505060405180910390f35b6116d7600480360360208110156116c157600080fd5b810190808035906020019092919050505061495b565b6040518082815260200191505060405180910390f35b6117396004803603604081101561170357600080fd5b81019080803573ffffffffffffffffffffffffffffffffffffffff16906020019092919080359060200190929190505050614973565b005b61182a6004803603608081101561175157600080fd5b81019080803573ffffffffffffffffffffffffffffffffffffffff16906020019092919080351515906020019092919080359060200190929190803590602001906401000000008111156117a457600080fd5b8201836020820111156117b657600080fd5b803590602001918460018302840111640100000000831117156117d857600080fd5b91908080601f016020809104026020016040519081016040528093929190818152602001838380828437600081840152601f19601f820116905080830192505050505050509192919290505050614a5b565b005b6118826004803603606081101561184257600080fd5b8101908080359060200190929190803573ffffffffffffffffffffffffffffffffffffffff16906020019092919080359060200190929190505050614b47565b005b6118d06004803603604081101561189a57600080fd5b8101908080359060200190929190803573ffffffffffffffffffffffffffffffffffffffff169060200190929190505050614ba4565b6040518082815260200191505060405180910390f35b611a1760048036036101008110156118fd57600080fd5b81019080803573ffffffffffffffffffffffffffffffffffffffff169060200190929190803573ffffffffffffffffffffffffffffffffffffffff1690602001909291908035151590602001909291908035906020019064010000000081111561196657600080fd5b82018360208201111561197857600080fd5b8035906020019184600183028401116401000000008311171561199a57600080fd5b91908080601f016020809104026020016040519081016040528093929190818152602001838380828437600081840152601f19601f820116905080830192505050505050509192919290803560ff169060200190929190803590602001909291908035906020019092919080359060200190929190505050614bc9565b005b611a5b60048036036020811015611a2f57600080fd5b81019080803573ffffffffffffffffffffffffffffffffffffffff169060200190929190505050614d56565b005b611b5e600480360360c0811015611a7357600080fd5b81019080803573ffffffffffffffffffffffffffffffffffffffff16906020019092919080359060200190640100000000811115611ab057600080fd5b820183602082011115611ac257600080fd5b80359060200191846020830284011164010000000083111715611ae457600080fd5b919080806020026020016040519081016040528093929190818152602001838360200280828437600081840152601f19601f820116905080830192505050505050509192919290803560ff169060200190929190803590602001909291908035906020019092919080359060200190929190505050614d73565b005b611b6a838261526e565b611b758383836155cd565b503373ffffffffffffffffffffffffffffffffffffffff167f3bd0280dc67bfc5c83998b5eddebb84cb266dd5fea7c8552e43f1c55110e966760405160405180910390a2505050565b600a6020528060005260406000206000915090505481565b60606000600460009054906101000a900473ffffffffffffffffffffffffffffffffffffffff1673ffffffffffffffffffffffffffffffffffffffff166305c62c2f876040518263ffffffff1660e01b8152600401808273ffffffffffffffffffffffffffffffffffffffff1673ffffffffffffffffffffffffffffffffffffffff16815260200191505060206040518083038186803b158015611c7957600080fd5b505afa158015611c8d573d6000803e3d6000fd5b505050506040513d6020811015611ca357600080fd5b810190808051906020019092919050505090506000600a60008381526020019081526020016000206000815480929190600101919050559050611ced87838c8c8c868c8c8c615820565b611cf9828a8c8b615b5c565b92505050979650505050505050565b600760009054906101000a900473ffffffffffffffffffffffffffffffffffffffff1681565b6000600460009054906101000a900473ffffffffffffffffffffffffffffffffffffffff1673ffffffffffffffffffffffffffffffffffffffff166305c62c2f876040518263ffffffff1660e01b8152600401808273ffffffffffffffffffffffffffffffffffffffff1673ffffffffffffffffffffffffffffffffffffffff16815260200191505060206040518083038186803b158015611dcf57600080fd5b505afa158015611de3573d6000803e3d6000fd5b505050506040513d6020811015611df957600080fd5b810190808051906020019092919050505090506000600a60008381526020019081526020016000206000815480929190600101919050559050600460009054906101000a900473ffffffffffffffffffffffffffffffffffffffff1673ffffffffffffffffffffffffffffffffffffffff16638677ebe888601960f81b600060f81b30878c8860405160200180877effffffffffffffffffffffffffffffffffffffffffffffffffffffffffffff19167effffffffffffffffffffffffffffffffffffffffffffffffffffffffffffff19168152600101867effffffffffffffffffffffffffffffffffffffffffffffffffffffffffffff19167effffffffffffffffffffffffffffffffffffffffffffffffffffffffffffff191681526001018573ffffffffffffffffffffffffffffffffffffffff1673ffffffffffffffffffffffffffffffffffffffff1660601b81526014018061785e602c9139602c018481526020018373ffffffffffffffffffffffffffffffffffffffff1673ffffffffffffffffffffffffffffffffffffffff1660601b81526014018281526020019650505050505050604051602081830303815290604052805190602001208888886040518663ffffffff1660e01b8152600401808673ffffffffffffffffffffffffffffffffffffffff1673ffffffffffffffffffffffffffffffffffffffff1681526020018581526020018460ff1660ff1681526020018381526020018281526020019550505050505060206040518083038186803b15801561203e57600080fd5b505afa158015612052573d6000803e3d6000fd5b505050506040513d602081101561206857600080fd5b81019080805190602001909291905050506120eb576040517f08c379a00000000000000000000000000000000000000000000000000000000081526004018080602001828103825260128152602001807f5065726d697373696f6e2064656e6965642e000000000000000000000000000081525060200191505060405180910390fd5b600460009054906101000a900473ffffffffffffffffffffffffffffffffffffffff1673ffffffffffffffffffffffffffffffffffffffff16632501faa583886040518363ffffffff1660e01b8152600401808381526020018273ffffffffffffffffffffffffffffffffffffffff1673ffffffffffffffffffffffffffffffffffffffff16815260200192505050600060405180830381600087803b15801561219457600080fd5b505af11580156121a8573d6000803e3d6000fd5b5050505050505050505050565b612299600460009054906101000a900473ffffffffffffffffffffffffffffffffffffffff1673ffffffffffffffffffffffffffffffffffffffff166305c62c2f336040518263ffffffff1660e01b8152600401808273ffffffffffffffffffffffffffffffffffffffff1673ffffffffffffffffffffffffffffffffffffffff16815260200191505060206040518083038186803b15801561225757600080fd5b505afa15801561226b573d6000803e3d6000fd5b505050506040513d602081101561228157600080fd5b810190808051906020019092919050505083836155cd565b505050565b6122a8858361526e565b6122b3858584615e90565b60008490508073ffffffffffffffffffffffffffffffffffffffff16633aaaa8a033888787876040518663ffffffff1660e01b8152600401808673ffffffffffffffffffffffffffffffffffffffff1673ffffffffffffffffffffffffffffffffffffffff1681526020018581526020018473ffffffffffffffffffffffffffffffffffffffff1673ffffffffffffffffffffffffffffffffffffffff16815260200183815260200180602001828103825283818151815260200191508051906020019080838360005b8381101561239857808201518184015260208101905061237d565b50505050905090810190601f1680156123c55780820380516001836020036101000a031916815260200191505b509650505050505050600060405180830381600087803b1580156123e857600080fd5b505af11580156123fc573d6000803e3d6000fd5b505050508373ffffffffffffffffffffffffffffffffffffffff163373ffffffffffffffffffffffffffffffffffffffff167f4bf145994459e88b08345bbe483ca295ac2305df746c75740dd9d837344a9acf60405160405180910390a3505050505050565b808042101580156124765750600954810142105b6124e8576040517f08c379a00000000000000000000000000000000000000000000000000000000081526004018080602001828103825260178152602001807f54696d657374616d70206973206e6f742076616c69642e00000000000000000081525060200191505060405180910390fd5b6000600460009054906101000a900473ffffffffffffffffffffffffffffffffffffffff1673ffffffffffffffffffffffffffffffffffffffff166305c62c2f896040518263ffffffff1660e01b8152600401808273ffffffffffffffffffffffffffffffffffffffff1673ffffffffffffffffffffffffffffffffffffffff16815260200191505060206040518083038186803b15801561258957600080fd5b505afa15801561259d573d6000803e3d6000fd5b505050506040513d60208110156125b357600080fd5b81019080805190602001909291905050509050600460009054906101000a900473ffffffffffffffffffffffffffffffffffffffff1673ffffffffffffffffffffffffffffffffffffffff16638677ebe889601960f81b600060f81b30868d8a60405160200180877effffffffffffffffffffffffffffffffffffffffffffffffffffffffffffff19167effffffffffffffffffffffffffffffffffffffffffffffffffffffffffffff19168152600101867effffffffffffffffffffffffffffffffffffffffffffffffffffffffffffff19167effffffffffffffffffffffffffffffffffffffffffffffffffffffffffffff191681526001018573ffffffffffffffffffffffffffffffffffffffff1673ffffffffffffffffffffffffffffffffffffffff1660601b81526014018061797460399139603901848152602001838051906020019060200280838360005b83811015612720578082015181840152602081019050612705565b505050509050018281526020019650505050505050604051602081830303815290604052805190602001208989896040518663ffffffff1660e01b8152600401808673ffffffffffffffffffffffffffffffffffffffff1673ffffffffffffffffffffffffffffffffffffffff1681526020018581526020018460ff1660ff1681526020018381526020018281526020019550505050505060206040518083038186803b1580156127d057600080fd5b505afa1580156127e4573d6000803e3d6000fd5b505050506040513d60208110156127fa57600080fd5b810190808051906020019092919050505061287d576040517f08c379a00000000000000000000000000000000000000000000000000000000081526004018080602001828103825260128152602001807f5065726d697373696f6e2064656e6965642e000000000000000000000000000081525060200191505060405180910390fd5b600460009054906101000a900473ffffffffffffffffffffffffffffffffffffffff1673ffffffffffffffffffffffffffffffffffffffff1663960b11f582896040518363ffffffff1660e01b81526004018083815260200180602001828103825283818151815260200191508051906020019060200280838360005b838110156129155780820151818401526020810190506128fa565b505050509050019350505050600060405180830381600087803b15801561293b57600080fd5b505af115801561294f573d6000803e3d6000fd5b505050505050505050505050565b60095481565b60006060600188510160405190808252806020026020018201604052801561299a5781602001602082028038833980820191505090505b50905030816000815181106129ab57fe5b602002602001019073ffffffffffffffffffffffffffffffffffffffff16908173ffffffffffffffffffffffffffffffffffffffff168152505060005b8851811015612a5b578881815181106129fd57fe5b6020026020010151826001830181518110612a1457fe5b602002602001019073ffffffffffffffffffffffffffffffffffffffff16908173ffffffffffffffffffffffffffffffffffffffff168152505080806001019150506129e8565b506000600460009054906101000a900473ffffffffffffffffffffffffffffffffffffffff1673ffffffffffffffffffffffffffffffffffffffff166314fb56468c8c856000604051908082528060200260200182016040528015612acf5781602001602082028038833980820191505090505b508c8c8c8c6040518963ffffffff1660e01b8152600401808973ffffffffffffffffffffffffffffffffffffffff1673ffffffffffffffffffffffffffffffffffffffff1681526020018873ffffffffffffffffffffffffffffffffffffffff1673ffffffffffffffffffffffffffffffffffffffff16815260200180602001806020018760ff1660ff168152602001868152602001858152602001848152602001838103835289818151815260200191508051906020019060200280838360005b83811015612bac578082015181840152602081019050612b91565b50505050905001838103825288818151815260200191508051906020019060200280838360005b83811015612bee578082015181840152602081019050612bd3565b505050509050019a5050505050505050505050602060405180830381600087803b158015612c1b57600080fd5b505af1158015612c2f573d6000803e3d6000fd5b505050506040513d6020811015612c4557600080fd5b81019080805190602001909291905050509050612d4181600760009054906101000a900473ffffffffffffffffffffffffffffffffffffffff16600160008e8d604051602001808373ffffffffffffffffffffffffffffffffffffffff1673ffffffffffffffffffffffffffffffffffffffff16815260200180602001828103825283818151815260200191508051906020019080838360005b83811015612cfa578082015181840152602081019050612cdf565b50505050905090810190601f168015612d275780820380516001836020036101000a031916815260200191505b509350505050604051602081830303815290604052616168565b809250505098975050505050505050565b612da4878786600060028110612d6457fe5b602002015186600060028110612d7657fe5b602002015186600060028110612d8857fe5b602002015186600060028110612d9a57fe5b6020020151612462565b612df6878686600160028110612db657fe5b602002015186600160028110612dc857fe5b602002015186600160028110612dda57fe5b602002015186600160028110612dec57fe5b6020020151614d73565b6000600460009054906101000a900473ffffffffffffffffffffffffffffffffffffffff1673ffffffffffffffffffffffffffffffffffffffff166305c62c2f896040518263ffffffff1660e01b8152600401808273ffffffffffffffffffffffffffffffffffffffff1673ffffffffffffffffffffffffffffffffffffffff16815260200191505060206040518083038186803b158015612e9757600080fd5b505afa158015612eab573d6000803e3d6000fd5b505050506040513d6020811015612ec157600080fd5b81019080805190602001909291905050509050807f9395986444296878f4ccc8a3e3a2d2d64a2988fb3cf2fd45fd7abe744902562688888b6040518080602001806020018473ffffffffffffffffffffffffffffffffffffffff1673ffffffffffffffffffffffffffffffffffffffff168152602001838103835286818151815260200191508051906020019060200280838360005b83811015612f72578082015181840152602081019050612f57565b50505050905001838103825285818151815260200191508051906020019060200280838360005b83811015612fb4578082015181840152602081019050612f99565b505050509050019550505050505060405180910390a25050505050505050565b6130b8600460009054906101000a900473ffffffffffffffffffffffffffffffffffffffff1673ffffffffffffffffffffffffffffffffffffffff166305c62c2f336040518263ffffffff1660e01b8152600401808273ffffffffffffffffffffffffffffffffffffffff1673ffffffffffffffffffffffffffffffffffffffff16815260200191505060206040518083038186803b15801561307657600080fd5b505afa15801561308a573d6000803e3d6000fd5b505050506040513d60208110156130a057600080fd5b810190808051906020019092919050505083836166a8565b5050565b6130c46134e7565b6130cd57600080fd5b600073ffffffffffffffffffffffffffffffffffffffff166000809054906101000a900473ffffffffffffffffffffffffffffffffffffffff1673ffffffffffffffffffffffffffffffffffffffff167f8be0079c531659141344cd1fd0a4f28419497f9722a3daafe3b4186f6b6457e060405160405180910390a360008060006101000a81548173ffffffffffffffffffffffffffffffffffffffff021916908373ffffffffffffffffffffffffffffffffffffffff160217905550565b600560009054906101000a900473ffffffffffffffffffffffffffffffffffffffff1681565b6131ba6134e7565b6131c357600080fd5b80600760006101000a81548173ffffffffffffffffffffffffffffffffffffffff021916908373ffffffffffffffffffffffffffffffffffffffff160217905550600760009054906101000a900473ffffffffffffffffffffffffffffffffffffffff16600860006101000a81548173ffffffffffffffffffffffffffffffffffffffff021916908373ffffffffffffffffffffffffffffffffffffffff16021790555050565b6000600460009054906101000a900473ffffffffffffffffffffffffffffffffffffffff1673ffffffffffffffffffffffffffffffffffffffff166305c62c2f8b6040518263ffffffff1660e01b8152600401808273ffffffffffffffffffffffffffffffffffffffff1673ffffffffffffffffffffffffffffffffffffffff16815260200191505060206040518083038186803b15801561330b57600080fd5b505afa15801561331f573d6000803e3d6000fd5b505050506040513d602081101561333557600080fd5b8101908080519060200190929190505050905061335a8a828b8b8b8b8b8b8b8b616978565b613367818a8a8a8a616168565b50505050505050505050565b600460009054906101000a900473ffffffffffffffffffffffffffffffffffffffff1673ffffffffffffffffffffffffffffffffffffffff166353a9698a86336040518363ffffffff1660e01b8152600401808381526020018273ffffffffffffffffffffffffffffffffffffffff1673ffffffffffffffffffffffffffffffffffffffff1681526020019250505060206040518083038186803b15801561341a57600080fd5b505afa15801561342e573d6000803e3d6000fd5b505050506040513d602081101561344457600080fd5b81019080805190602001909291905050506134aa576040517f08c379a00000000000000000000000000000000000000000000000000000000081526004018080602001828103825260338152602001806177086033913960400191505060405180910390fd5b6134b78585858585616168565b5050505050565b60008060009054906101000a900473ffffffffffffffffffffffffffffffffffffffff16905090565b60008060009054906101000a900473ffffffffffffffffffffffffffffffffffffffff1673ffffffffffffffffffffffffffffffffffffffff163373ffffffffffffffffffffffffffffffffffffffff1614905090565b8173ffffffffffffffffffffffffffffffffffffffff163373ffffffffffffffffffffffffffffffffffffffff16146135df576040517f08c379a00000000000000000000000000000000000000000000000000000000081526004018080602001828103825260118152602001807f4d616c666f726d656420696e707574732e00000000000000000000000000000081525060200191505060405180910390fd5b600560009054906101000a900473ffffffffffffffffffffffffffffffffffffffff1673ffffffffffffffffffffffffffffffffffffffff168273ffffffffffffffffffffffffffffffffffffffff1614613685576040517f08c379a000000000000000000000000000000000000000000000000000000000815260040180806020018281038252602d81526020018061788a602d913960400191505060405180910390fd5b6020815111613aa657600660009054906101000a900473ffffffffffffffffffffffffffffffffffffffff1673ffffffffffffffffffffffffffffffffffffffff166323b872dd8530866040518463ffffffff1660e01b8152600401808473ffffffffffffffffffffffffffffffffffffffff1673ffffffffffffffffffffffffffffffffffffffff1681526020018373ffffffffffffffffffffffffffffffffffffffff1673ffffffffffffffffffffffffffffffffffffffff1681526020018281526020019350505050602060405180830381600087803b15801561376b57600080fd5b505af115801561377f573d6000803e3d6000fd5b505050506040513d602081101561379557600080fd5b81019080805190602001909291905050506137fb576040517f08c379a00000000000000000000000000000000000000000000000000000000081526004018080602001828103825260238152602001806178f46023913960400191505060405180910390fd5b60006020825110156138e857600460009054906101000a900473ffffffffffffffffffffffffffffffffffffffff1673ffffffffffffffffffffffffffffffffffffffff166305c62c2f866040518263ffffffff1660e01b8152600401808273ffffffffffffffffffffffffffffffffffffffff1673ffffffffffffffffffffffffffffffffffffffff16815260200191505060206040518083038186803b1580156138a657600080fd5b505afa1580156138ba573d6000803e3d6000fd5b505050506040513d60208110156138d057600080fd5b81019080805190602001909291905050509050613a14565b8180602001905160208110156138fd57600080fd5b81019080805190602001909291905050509050600460009054906101000a900473ffffffffffffffffffffffffffffffffffffffff1673ffffffffffffffffffffffffffffffffffffffff16635b5aed3a826040518263ffffffff1660e01b81526004018082815260200191505060206040518083038186803b15801561398357600080fd5b505afa158015613997573d6000803e3d6000fd5b505050506040513d60208110156139ad57600080fd5b8101908080519060200190929190505050613a13576040517f08c379a00000000000000000000000000000000000000000000000000000000081526004018080602001828103825260218152602001806176e76021913960400191505060405180910390fd5b5b613a3a846001600084815260200190815260200160002054616d2e90919063ffffffff16565b6001600083815260200190815260200160002081905550808573ffffffffffffffffffffffffffffffffffffffff167fc03bd73422f0f423555852c3018d2296bec6c3fb71372de56d3ce8f5984d6812866040518082815260200191505060405180910390a350614071565b60008060008060608580602001905160a0811015613ac357600080fd5b810190808051906020019092919080519060200190929190805190602001909291908051906020019092919080516040519392919084640100000000821115613b0b57600080fd5b83820191506020820185811115613b2157600080fd5b8251866001820283011164010000000082111715613b3e57600080fd5b8083526020830192505050908051906020019080838360005b83811015613b72578082015181840152602081019050613b57565b50505050905090810190601f168015613b9f5780820380516001836020036101000a031916815260200191505b5060405250505094509450945094509450600660009054906101000a900473ffffffffffffffffffffffffffffffffffffffff1673ffffffffffffffffffffffffffffffffffffffff166323b872dd8a858b6040518463ffffffff1660e01b8152600401808473ffffffffffffffffffffffffffffffffffffffff1673ffffffffffffffffffffffffffffffffffffffff1681526020018373ffffffffffffffffffffffffffffffffffffffff1673ffffffffffffffffffffffffffffffffffffffff1681526020018281526020019350505050602060405180830381600087803b158015613c8d57600080fd5b505af1158015613ca1573d6000803e3d6000fd5b505050506040513d6020811015613cb757600080fd5b8101908080519060200190929190505050613d1d576040517f08c379a00000000000000000000000000000000000000000000000000000000081526004018080602001828103825260238152602001806178f46023913960400191505060405180910390fd5b60008390508515613ea7578073ffffffffffffffffffffffffffffffffffffffff16633c72e43986858c866040518563ffffffff1660e01b8152600401808573ffffffffffffffffffffffffffffffffffffffff1673ffffffffffffffffffffffffffffffffffffffff16815260200184815260200183815260200180602001828103825283818151815260200191508051906020019080838360005b83811015613dd5578082015181840152602081019050613dba565b50505050905090810190601f168015613e025780820380516001836020036101000a031916815260200191505b5095505050505050600060405180830381600087803b158015613e2457600080fd5b505af1158015613e38573d6000803e3d6000fd5b50505050828473ffffffffffffffffffffffffffffffffffffffff168673ffffffffffffffffffffffffffffffffffffffff167fedb6770cb1ac0722d4ee53b473075a9d9d9ada0726d38bfc29d7cefb278a6b508c6040518082815260200191505060405180910390a461406a565b60008390508173ffffffffffffffffffffffffffffffffffffffff1663e5a1309287838d876040518563ffffffff1660e01b8152600401808573ffffffffffffffffffffffffffffffffffffffff1673ffffffffffffffffffffffffffffffffffffffff1681526020018473ffffffffffffffffffffffffffffffffffffffff1673ffffffffffffffffffffffffffffffffffffffff16815260200183815260200180602001828103825283818151815260200191508051906020019080838360005b83811015613f85578082015181840152602081019050613f6a565b50505050905090810190601f168015613fb25780820380516001836020036101000a031916815260200191505b5095505050505050600060405180830381600087803b158015613fd457600080fd5b505af1158015613fe8573d6000803e3d6000fd5b505050508373ffffffffffffffffffffffffffffffffffffffff168573ffffffffffffffffffffffffffffffffffffffff168773ffffffffffffffffffffffffffffffffffffffff167f0c00f14cabae1f33bca7bd1a7510da7d1188463c014549b4817ece9db32ce67d8d6040518082815260200191505060405180910390a4505b5050505050505b50505050565b61407f6134e7565b61408857600080fd5b81600360006101000a81548173ffffffffffffffffffffffffffffffffffffffff021916908373ffffffffffffffffffffffffffffffffffffffff160217905550600360009054906101000a900473ffffffffffffffffffffffffffffffffffffffff16600460006101000a81548173ffffffffffffffffffffffffffffffffffffffff021916908373ffffffffffffffffffffffffffffffffffffffff16021790555080600560006101000a81548173ffffffffffffffffffffffffffffffffffffffff021916908373ffffffffffffffffffffffffffffffffffffffff160217905550600560009054906101000a900473ffffffffffffffffffffffffffffffffffffffff16600660006101000a81548173ffffffffffffffffffffffffffffffffffffffff021916908373ffffffffffffffffffffffffffffffffffffffff1602179055505050565b60606142bb600460009054906101000a900473ffffffffffffffffffffffffffffffffffffffff1673ffffffffffffffffffffffffffffffffffffffff166305c62c2f336040518263ffffffff1660e01b8152600401808273ffffffffffffffffffffffffffffffffffffffff1673ffffffffffffffffffffffffffffffffffffffff16815260200191505060206040518083038186803b15801561427857600080fd5b505afa15801561428c573d6000803e3d6000fd5b505050506040513d60208110156142a257600080fd5b8101908080519060200190929190505050848685615b5c565b90509392505050565b6142ce858361526e565b6142d9858584615e90565b60008490508073ffffffffffffffffffffffffffffffffffffffff16631c75edfe33888787876040518663ffffffff1660e01b8152600401808673ffffffffffffffffffffffffffffffffffffffff1673ffffffffffffffffffffffffffffffffffffffff16815260200185815260200184815260200183815260200180602001828103825283818151815260200191508051906020019080838360005b83811015614392578082015181840152602081019050614377565b50505050905090810190601f1680156143bf5780820380516001836020036101000a031916815260200191505b509650505050505050600060405180830381600087803b1580156143e257600080fd5b505af11580156143f6573d6000803e3d6000fd5b50505050833373ffffffffffffffffffffffffffffffffffffffff167f1dd3c359182056ab5063bcdbab2346601270459beb53cabcbd39ca79f050336860405160405180910390a3505050505050565b61452b600460009054906101000a900473ffffffffffffffffffffffffffffffffffffffff1673ffffffffffffffffffffffffffffffffffffffff166305c62c2f336040518263ffffffff1660e01b8152600401808273ffffffffffffffffffffffffffffffffffffffff1673ffffffffffffffffffffffffffffffffffffffff16815260200191505060206040518083038186803b1580156144e857600080fd5b505afa1580156144fc573d6000803e3d6000fd5b505050506040513d602081101561451257600080fd5b8101908080519060200190929190505050848484616d4d565b505050565b6000600460009054906101000a900473ffffffffffffffffffffffffffffffffffffffff1673ffffffffffffffffffffffffffffffffffffffff166305c62c2f886040518263ffffffff1660e01b8152600401808273ffffffffffffffffffffffffffffffffffffffff1673ffffffffffffffffffffffffffffffffffffffff16815260200191505060206040518083038186803b1580156145d157600080fd5b505afa1580156145e5573d6000803e3d6000fd5b505050506040513d60208110156145fb57600080fd5b810190808051906020019092919050505090506000600a60008381526020019081526020016000206000815480929190600101919050559050600460009054906101000a900473ffffffffffffffffffffffffffffffffffffffff1673ffffffffffffffffffffffffffffffffffffffff16638677ebe889601960f81b600060f81b30878d8d8960405160200180887effffffffffffffffffffffffffffffffffffffffffffffffffffffffffffff19167effffffffffffffffffffffffffffffffffffffffffffffffffffffffffffff19168152600101877effffffffffffffffffffffffffffffffffffffffffffffffffffffffffffff19167effffffffffffffffffffffffffffffffffffffffffffffffffffffffffffff191681526001018673ffffffffffffffffffffffffffffffffffffffff1673ffffffffffffffffffffffffffffffffffffffff1660601b8152601401806179ad602f9139602f01858152602001848051906020019060200280838360005b8381101561478f578082015181840152602081019050614774565b50505050905001838051906020019060200280838360005b838110156147c25780820151818401526020810190506147a7565b50505050905001828152602001975050505050505050604051602081830303815290604052805190602001208888886040518663ffffffff1660e01b8152600401808673ffffffffffffffffffffffffffffffffffffffff1673ffffffffffffffffffffffffffffffffffffffff1681526020018581526020018460ff1660ff1681526020018381526020018281526020019550505050505060206040518083038186803b15801561487357600080fd5b505afa158015614887573d6000803e3d6000fd5b505050506040513d602081101561489d57600080fd5b8101908080519060200190929190505050614920576040517f08c379a00000000000000000000000000000000000000000000000000000000081526004018080602001828103825260128152602001807f5065726d697373696f6e2064656e6965642e000000000000000000000000000081525060200191505060405180910390fd5b61492b8288886166a8565b5050505050505050565b600360009054906101000a900473ffffffffffffffffffffffffffffffffffffffff1681565b60016020528060005260406000206000915090505481565b614a57600460009054906101000a900473ffffffffffffffffffffffffffffffffffffffff1673ffffffffffffffffffffffffffffffffffffffff166305c62c2f336040518263ffffffff1660e01b8152600401808273ffffffffffffffffffffffffffffffffffffffff1673ffffffffffffffffffffffffffffffffffffffff16815260200191505060206040518083038186803b158015614a1557600080fd5b505afa158015614a29573d6000803e3d6000fd5b505050506040513d6020811015614a3f57600080fd5b81019080805190602001909291905050508383615e90565b5050565b614b41600460009054906101000a900473ffffffffffffffffffffffffffffffffffffffff1673ffffffffffffffffffffffffffffffffffffffff166305c62c2f336040518263ffffffff1660e01b8152600401808273ffffffffffffffffffffffffffffffffffffffff1673ffffffffffffffffffffffffffffffffffffffff16815260200191505060206040518083038186803b158015614afd57600080fd5b505afa158015614b11573d6000803e3d6000fd5b505050506040513d6020811015614b2757600080fd5b810190808051906020019092919050505085858585616168565b50505050565b614b51838261526e565b614b5c838383615e90565b3373ffffffffffffffffffffffffffffffffffffffff167f8262975dcca6e765bc0c030d671a00379895d3f60ab5f0033ca4aa088074646b60405160405180910390a2505050565b6002602052816000526040600020602052806000526040600020600091509150505481565b80804210158015614bdd5750600954810142105b614c4f576040517f08c379a00000000000000000000000000000000000000000000000000000000081526004018080602001828103825260178152602001807f54696d657374616d70206973206e6f742076616c69642e00000000000000000081525060200191505060405180910390fd5b6000600460009054906101000a900473ffffffffffffffffffffffffffffffffffffffff1673ffffffffffffffffffffffffffffffffffffffff166305c62c2f8b6040518263ffffffff1660e01b8152600401808273ffffffffffffffffffffffffffffffffffffffff1673ffffffffffffffffffffffffffffffffffffffff16815260200191505060206040518083038186803b158015614cf057600080fd5b505afa158015614d04573d6000803e3d6000fd5b505050506040513d6020811015614d1a57600080fd5b81019080805190602001909291905050509050614d3e8a828b8b8b8b8b8b8b617277565b614d4a818a8a8a616d4d565b50505050505050505050565b614d5e6134e7565b614d6757600080fd5b614d708161759d565b50565b80804210158015614d875750600954810142105b614df9576040517f08c379a00000000000000000000000000000000000000000000000000000000081526004018080602001828103825260178152602001807f54696d657374616d70206973206e6f742076616c69642e00000000000000000081525060200191505060405180910390fd5b6000600460009054906101000a900473ffffffffffffffffffffffffffffffffffffffff1673ffffffffffffffffffffffffffffffffffffffff166305c62c2f896040518263ffffffff1660e01b8152600401808273ffffffffffffffffffffffffffffffffffffffff1673ffffffffffffffffffffffffffffffffffffffff16815260200191505060206040518083038186803b158015614e9a57600080fd5b505afa158015614eae573d6000803e3d6000fd5b505050506040513d6020811015614ec457600080fd5b81019080805190602001909291905050509050600460009054906101000a900473ffffffffffffffffffffffffffffffffffffffff1673ffffffffffffffffffffffffffffffffffffffff16638677ebe889601960f81b600060f81b30868d8a60405160200180877effffffffffffffffffffffffffffffffffffffffffffffffffffffffffffff19167effffffffffffffffffffffffffffffffffffffffffffffffffffffffffffff19168152600101867effffffffffffffffffffffffffffffffffffffffffffffffffffffffffffff19167effffffffffffffffffffffffffffffffffffffffffffffffffffffffffffff191681526001018573ffffffffffffffffffffffffffffffffffffffff1673ffffffffffffffffffffffffffffffffffffffff1660601b8152601401806178b7603d9139603d01848152602001838051906020019060200280838360005b83811015615031578082015181840152602081019050615016565b505050509050018281526020019650505050505050604051602081830303815290604052805190602001208989896040518663ffffffff1660e01b8152600401808673ffffffffffffffffffffffffffffffffffffffff1673ffffffffffffffffffffffffffffffffffffffff1681526020018581526020018460ff1660ff1681526020018381526020018281526020019550505050505060206040518083038186803b1580156150e157600080fd5b505afa1580156150f5573d6000803e3d6000fd5b505050506040513d602081101561510b57600080fd5b810190808051906020019092919050505061518e576040517f08c379a00000000000000000000000000000000000000000000000000000000081526004018080602001828103825260128152602001807f5065726d697373696f6e2064656e6965642e000000000000000000000000000081525060200191505060405180910390fd5b600460009054906101000a900473ffffffffffffffffffffffffffffffffffffffff1673ffffffffffffffffffffffffffffffffffffffff166306c93c3682896040518363ffffffff1660e01b81526004018083815260200180602001828103825283818151815260200191508051906020019060200280838360005b8381101561522657808201518184015260208101905061520b565b505050509050019350505050600060405180830381600087803b15801561524c57600080fd5b505af1158015615260573d6000803e3d6000fd5b505050505050505050505050565b600460009054906101000a900473ffffffffffffffffffffffffffffffffffffffff1673ffffffffffffffffffffffffffffffffffffffff1663d4b1cdcc83336040518363ffffffff1660e01b8152600401808381526020018273ffffffffffffffffffffffffffffffffffffffff1673ffffffffffffffffffffffffffffffffffffffff1681526020019250505060206040518083038186803b15801561531557600080fd5b505afa158015615329573d6000803e3d6000fd5b505050506040513d602081101561533f57600080fd5b81019080805190602001909291905050506153a5576040517f08c379a000000000000000000000000000000000000000000000000000000000815260040180806020018281038252602e81526020018061773b602e913960400191505060405180910390fd5b806002600084815260200190815260200160002060003373ffffffffffffffffffffffffffffffffffffffff1673ffffffffffffffffffffffffffffffffffffffff168152602001908152602001600020541015615512573373ffffffffffffffffffffffffffffffffffffffff16827fe8197a2184c184c738bfd08f3ee78a377cde69118a3d580480d00a9208d6bdf36002600086815260200190815260200160002060003373ffffffffffffffffffffffffffffffffffffffff1673ffffffffffffffffffffffffffffffffffffffff1681526020019081526020016000205484604051808381526020018281526020019250505060405180910390a36040517f08c379a00000000000000000000000000000000000000000000000000000000081526004018080602001828103825260168152602001807f496e73756666696369656e7420416c6c6f77616e63650000000000000000000081525060200191505060405180910390fd5b615575816002600085815260200190815260200160002060003373ffffffffffffffffffffffffffffffffffffffff1673ffffffffffffffffffffffffffffffffffffffff1681526020019081526020016000205461769590919063ffffffff16565b6002600084815260200190815260200160002060003373ffffffffffffffffffffffffffffffffffffffff1673ffffffffffffffffffffffffffffffffffffffff168152602001908152602001600020819055505050565b6000826001801515600460009054906101000a900473ffffffffffffffffffffffffffffffffffffffff1673ffffffffffffffffffffffffffffffffffffffff16635b5aed3a846040518263ffffffff1660e01b81526004018082815260200191505060206040518083038186803b15801561564857600080fd5b505afa15801561565c573d6000803e3d6000fd5b505050506040513d602081101561567257600080fd5b81019080805190602001909291905050501515146156f8576040517f08c379a00000000000000000000000000000000000000000000000000000000081526004018080602001828103825260178152602001807f5468652045494e20646f6573206e6f742065786973742e00000000000000000081525060200191505060405180910390fd5b8360016000888152602001908152602001600020541015615764576040517f08c379a00000000000000000000000000000000000000000000000000000000081526004018080602001828103825260368152602001806179176036913960400191505060405180910390fd5b61578a84600160008981526020019081526020016000205461769590919063ffffffff16565b60016000888152602001908152602001600020819055506157c7846001600088815260200190815260200160002054616d2e90919063ffffffff16565b600160008781526020019081526020016000208190555084867ffc1e758cdfd0000672c8f8e0557fdae32b207ab6040726e3e91a363ac1ea234a866040518082815260200191505060405180910390a350509392505050565b600460009054906101000a900473ffffffffffffffffffffffffffffffffffffffff1673ffffffffffffffffffffffffffffffffffffffff16638677ebe88a601960f81b600060f81b308d8d8d8d8d60405160200180897effffffffffffffffffffffffffffffffffffffffffffffffffffffffffffff19167effffffffffffffffffffffffffffffffffffffffffffffffffffffffffffff19168152600101887effffffffffffffffffffffffffffffffffffffffffffffffffffffffffffff19167effffffffffffffffffffffffffffffffffffffffffffffffffffffffffffff191681526001018773ffffffffffffffffffffffffffffffffffffffff1673ffffffffffffffffffffffffffffffffffffffff1660601b8152601401807f4920617574686f72697a65207468697320616c6c6f7720616e642063616c6c2e8152506020018681526020018573ffffffffffffffffffffffffffffffffffffffff1673ffffffffffffffffffffffffffffffffffffffff1660601b815260140184815260200183805190602001908083835b602083106159d757805182526020820191506020810190506020830392506159b4565b6001836020036101000a03801982511681845116808217855250505050505090500182815260200198505050505050505050604051602081830303815290604052805190602001208686866040518663ffffffff1660e01b8152600401808673ffffffffffffffffffffffffffffffffffffffff1673ffffffffffffffffffffffffffffffffffffffff1681526020018581526020018460ff1660ff1681526020018381526020018281526020019550505050505060206040518083038186803b158015615aa457600080fd5b505afa158015615ab8573d6000803e3d6000fd5b505050506040513d6020811015615ace57600080fd5b8101908080519060200190929190505050615b51576040517f08c379a00000000000000000000000000000000000000000000000000000000081526004018080602001828103825260128152602001807f5065726d697373696f6e2064656e6965642e000000000000000000000000000081525060200191505060405180910390fd5b505050505050505050565b6060600460009054906101000a900473ffffffffffffffffffffffffffffffffffffffff1673ffffffffffffffffffffffffffffffffffffffff1663d4b1cdcc86856040518363ffffffff1660e01b8152600401808381526020018273ffffffffffffffffffffffffffffffffffffffff1673ffffffffffffffffffffffffffffffffffffffff1681526020019250505060206040518083038186803b158015615c0557600080fd5b505afa158015615c19573d6000803e3d6000fd5b505050506040513d6020811015615c2f57600080fd5b8101908080519060200190929190505050615c95576040517f08c379a00000000000000000000000000000000000000000000000000000000081526004018080602001828103825260318152602001806176b66031913960400191505060405180910390fd5b60008414615d5557615d00846002600088815260200190815260200160002060008673ffffffffffffffffffffffffffffffffffffffff1673ffffffffffffffffffffffffffffffffffffffff16815260200190815260200160002054616d2e90919063ffffffff16565b6002600087815260200190815260200160002060008573ffffffffffffffffffffffffffffffffffffffff1673ffffffffffffffffffffffffffffffffffffffff168152602001908152602001600020819055505b600060608473ffffffffffffffffffffffffffffffffffffffff16846040518082805190602001908083835b60208310615da45780518252602082019150602081019050602083039250615d81565b6001836020036101000a0380198251168184511680821785525050505050509050019150506000604051808303816000865af19150503d8060008114615e06576040519150601f19603f3d011682016040523d82523d6000602084013e615e0b565b606091505b509150915081615e83576040517f08c379a00000000000000000000000000000000000000000000000000000000081526004018080602001828103825260188152602001807f43616c6c20776173206e6f74207375636365737366756c2e000000000000000081525060200191505060405180910390fd5b8092505050949350505050565b3073ffffffffffffffffffffffffffffffffffffffff168273ffffffffffffffffffffffffffffffffffffffff161415615f15576040517f08c379a00000000000000000000000000000000000000000000000000000000081526004018080602001828103825260378152602001806177696037913960400191505060405180910390fd5b8060016000858152602001908152602001600020541015615f81576040517f08c379a00000000000000000000000000000000000000000000000000000000081526004018080602001828103825260368152602001806179176036913960400191505060405180910390fd5b615fa781600160008681526020019081526020016000205461769590919063ffffffff16565b6001600085815260200190815260200160002081905550600660009054906101000a900473ffffffffffffffffffffffffffffffffffffffff1673ffffffffffffffffffffffffffffffffffffffff1663a9059cbb83836040518363ffffffff1660e01b8152600401808373ffffffffffffffffffffffffffffffffffffffff1673ffffffffffffffffffffffffffffffffffffffff16815260200182815260200192505050602060405180830381600087803b15801561606757600080fd5b505af115801561607b573d6000803e3d6000fd5b505050506040513d602081101561609157600080fd5b8101908080519060200190929190505050616114576040517f08c379a00000000000000000000000000000000000000000000000000000000081526004018080602001828103825260198152602001807f5472616e736665722077617320756e7375636365737366756c0000000000000081525060200191505060405180910390fd5b8173ffffffffffffffffffffffffffffffffffffffff16837faaa7de357803e36044e97c4f0d438a72b371380bff06b41e9b921b8f61cb489e836040518082815260200191505060405180910390a3505050565b600460009054906101000a900473ffffffffffffffffffffffffffffffffffffffff1673ffffffffffffffffffffffffffffffffffffffff1663d4b1cdcc86866040518363ffffffff1660e01b8152600401808381526020018273ffffffffffffffffffffffffffffffffffffffff1673ffffffffffffffffffffffffffffffffffffffff1681526020019250505060206040518083038186803b15801561620f57600080fd5b505afa158015616223573d6000803e3d6000fd5b505050506040513d602081101561623957600080fd5b8101908080519060200190929190505050156162a0576040517f08c379a00000000000000000000000000000000000000000000000000000000081526004018080602001828103825260278152602001806178376027913960400191505060405180910390fd5b606060016040519080825280602002602001820160405280156162d25781602001602082028038833980820191505090505b50905084816000815181106162e357fe5b602002602001019073ffffffffffffffffffffffffffffffffffffffff16908173ffffffffffffffffffffffffffffffffffffffff1681525050600460009054906101000a900473ffffffffffffffffffffffffffffffffffffffff1673ffffffffffffffffffffffffffffffffffffffff1663010887dc87836040518363ffffffff1660e01b81526004018083815260200180602001828103825283818151815260200191508051906020019060200280838360005b838110156163b557808201518184015260208101905061639a565b505050509050019350505050600060405180830381600087803b1580156163db57600080fd5b505af11580156163ef573d6000803e3d6000fd5b5050505083156166a057826002600088815260200190815260200160002060008773ffffffffffffffffffffffffffffffffffffffff1673ffffffffffffffffffffffffffffffffffffffff1681526020019081526020016000208190555060008590508073ffffffffffffffffffffffffffffffffffffffff1663717902516040518163ffffffff1660e01b815260040160206040518083038186803b15801561649957600080fd5b505afa1580156164ad573d6000803e3d6000fd5b505050506040513d60208110156164c357600080fd5b81019080805190602001909291905050501561664f578073ffffffffffffffffffffffffffffffffffffffff166390bfaf408886866040518463ffffffff1660e01b81526004018084815260200183815260200180602001828103825283818151815260200191508051906020019080838360005b83811015616553578082015181840152602081019050616538565b50505050905090810190601f1680156165805780820380516001836020036101000a031916815260200191505b50945050505050602060405180830381600087803b1580156165a157600080fd5b505af11580156165b5573d6000803e3d6000fd5b505050506040513d60208110156165cb57600080fd5b810190808051906020019092919050505061664e576040517f08c379a00000000000000000000000000000000000000000000000000000000081526004018080602001828103825260108152602001807f5369676e207570206661696c7572652e0000000000000000000000000000000081525060200191505060405180910390fd5b5b8573ffffffffffffffffffffffffffffffffffffffff16877fa5a2dcb81990508894586bccd9070af644f5b33c720292251377ad26fc26b880866040518082815260200191505060405180910390a3505b505050505050565b805182511461671f576040517f08c379a00000000000000000000000000000000000000000000000000000000081526004018080602001828103825260118152602001807f4d616c666f726d656420696e707574732e00000000000000000000000000000081525060200191505060405180910390fd5b60005b825181101561697257600460009054906101000a900473ffffffffffffffffffffffffffffffffffffffff1673ffffffffffffffffffffffffffffffffffffffff1663d4b1cdcc8585848151811061677657fe5b60200260200101516040518363ffffffff1660e01b8152600401808381526020018273ffffffffffffffffffffffffffffffffffffffff1673ffffffffffffffffffffffffffffffffffffffff1681526020019250505060206040518083038186803b1580156167e557600080fd5b505afa1580156167f9573d6000803e3d6000fd5b505050506040513d602081101561680f57600080fd5b8101908080519060200190929190505050616875576040517f08c379a00000000000000000000000000000000000000000000000000000000081526004018080602001828103825260238152602001806177a06023913960400191505060405180910390fd5b81818151811061688157fe5b60200260200101516002600086815260200190815260200160002060008584815181106168aa57fe5b602002602001015173ffffffffffffffffffffffffffffffffffffffff1673ffffffffffffffffffffffffffffffffffffffff168152602001908152602001600020819055508281815181106168fc57fe5b602002602001015173ffffffffffffffffffffffffffffffffffffffff16847ffb55528a8074c988c79fef57f3a73aebf780773d5152d785bbaf700c9e3532d384848151811061694857fe5b60200260200101516040518082815260200191505060405180910390a38080600101915050616722565b50505050565b8080421015801561698c5750600954810142105b6169fe576040517f08c379a00000000000000000000000000000000000000000000000000000000081526004018080602001828103825260178152602001807f54696d657374616d70206973206e6f742076616c69642e00000000000000000081525060200191505060405180910390fd5b600460009054906101000a900473ffffffffffffffffffffffffffffffffffffffff1673ffffffffffffffffffffffffffffffffffffffff16638677ebe88c601960f81b600060f81b308f8f8f8f8f8c604051602001808a7effffffffffffffffffffffffffffffffffffffffffffffffffffffffffffff19167effffffffffffffffffffffffffffffffffffffffffffffffffffffffffffff19168152600101897effffffffffffffffffffffffffffffffffffffffffffffffffffffffffffff19167effffffffffffffffffffffffffffffffffffffffffffffffffffffffffffff191681526001018873ffffffffffffffffffffffffffffffffffffffff1673ffffffffffffffffffffffffffffffffffffffff1660601b815260140180617800603791396037018781526020018673ffffffffffffffffffffffffffffffffffffffff1673ffffffffffffffffffffffffffffffffffffffff1660601b8152601401851515151560f81b815260010184815260200183805190602001908083835b60208310616ba65780518252602082019150602081019050602083039250616b83565b6001836020036101000a0380198251168184511680821785525050505050509050018281526020019950505050505050505050604051602081830303815290604052805190602001208888886040518663ffffffff1660e01b8152600401808673ffffffffffffffffffffffffffffffffffffffff1673ffffffffffffffffffffffffffffffffffffffff1681526020018581526020018460ff1660ff1681526020018381526020018281526020019550505050505060206040518083038186803b158015616c7457600080fd5b505afa158015616c88573d6000803e3d6000fd5b505050506040513d6020811015616c9e57600080fd5b8101908080519060200190929190505050616d21576040517f08c379a00000000000000000000000000000000000000000000000000000000081526004018080602001828103825260128152602001807f5065726d697373696f6e2064656e6965642e000000000000000000000000000081525060200191505060405180910390fd5b5050505050505050505050565b600080828401905083811015616d4357600080fd5b8091505092915050565b600460009054906101000a900473ffffffffffffffffffffffffffffffffffffffff1673ffffffffffffffffffffffffffffffffffffffff1663d4b1cdcc85856040518363ffffffff1660e01b8152600401808381526020018273ffffffffffffffffffffffffffffffffffffffff1673ffffffffffffffffffffffffffffffffffffffff1681526020019250505060206040518083038186803b158015616df457600080fd5b505afa158015616e08573d6000803e3d6000fd5b505050506040513d6020811015616e1e57600080fd5b8101908080519060200190929190505050616e84576040517f08c379a000000000000000000000000000000000000000000000000000000000815260040180806020018281038252602781526020018061794d6027913960400191505060405180910390fd5b6002600085815260200190815260200160002060008473ffffffffffffffffffffffffffffffffffffffff1673ffffffffffffffffffffffffffffffffffffffff16815260200190815260200160002060009055811561711d5760008390508073ffffffffffffffffffffffffffffffffffffffff16638f06492d6040518163ffffffff1660e01b815260040160206040518083038186803b158015616f2957600080fd5b505afa158015616f3d573d6000803e3d6000fd5b505050506040513d6020811015616f5357600080fd5b8101908080519060200190929190505050156170d7578073ffffffffffffffffffffffffffffffffffffffff16639182621a86846040518363ffffffff1660e01b81526004018083815260200180602001828103825283818151815260200191508051906020019080838360005b83811015616fdc578082015181840152602081019050616fc1565b50505050905090810190601f1680156170095780820380516001836020036101000a031916815260200191505b509350505050602060405180830381600087803b15801561702957600080fd5b505af115801561703d573d6000803e3d6000fd5b505050506040513d602081101561705357600080fd5b81019080805190602001909291905050506170d6576040517f08c379a00000000000000000000000000000000000000000000000000000000081526004018080602001828103825260108152602001807f52656d6f76616c206661696c7572652e0000000000000000000000000000000081525060200191505060405180910390fd5b5b8373ffffffffffffffffffffffffffffffffffffffff16857fd1b5265e776cc74b7c19e1f79f0eb431189105741c07f3bb870f17ce3ba4aed860405160405180910390a3505b6060600160405190808252806020026020018201604052801561714f5781602001602082028038833980820191505090505b509050838160008151811061716057fe5b602002602001019073ffffffffffffffffffffffffffffffffffffffff16908173ffffffffffffffffffffffffffffffffffffffff1681525050600460009054906101000a900473ffffffffffffffffffffffffffffffffffffffff1673ffffffffffffffffffffffffffffffffffffffff16635726f66086836040518363ffffffff1660e01b81526004018083815260200180602001828103825283818151815260200191508051906020019060200280838360005b83811015617232578082015181840152602081019050617217565b505050509050019350505050600060405180830381600087803b15801561725857600080fd5b505af115801561726c573d6000803e3d6000fd5b505050505050505050565b600460009054906101000a900473ffffffffffffffffffffffffffffffffffffffff1673ffffffffffffffffffffffffffffffffffffffff16638677ebe88a601960f81b600060f81b308d8d8d8d8a60405160200180897effffffffffffffffffffffffffffffffffffffffffffffffffffffffffffff19167effffffffffffffffffffffffffffffffffffffffffffffffffffffffffffff19168152600101887effffffffffffffffffffffffffffffffffffffffffffffffffffffffffffff19167effffffffffffffffffffffffffffffffffffffffffffffffffffffffffffff191681526001018773ffffffffffffffffffffffffffffffffffffffff1673ffffffffffffffffffffffffffffffffffffffff1660601b8152601401806177c3603d9139603d018681526020018573ffffffffffffffffffffffffffffffffffffffff1673ffffffffffffffffffffffffffffffffffffffff1660601b8152601401841515151560f81b815260010183805190602001908083835b6020831061741857805182526020820191506020810190506020830392506173f5565b6001836020036101000a03801982511681845116808217855250505050505090500182815260200198505050505050505050604051602081830303815290604052805190602001208787876040518663ffffffff1660e01b8152600401808673ffffffffffffffffffffffffffffffffffffffff1673ffffffffffffffffffffffffffffffffffffffff1681526020018581526020018460ff1660ff1681526020018381526020018281526020019550505050505060206040518083038186803b1580156174e557600080fd5b505afa1580156174f9573d6000803e3d6000fd5b505050506040513d602081101561750f57600080fd5b8101908080519060200190929190505050617592576040517f08c379a00000000000000000000000000000000000000000000000000000000081526004018080602001828103825260128152602001807f5065726d697373696f6e2064656e6965642e000000000000000000000000000081525060200191505060405180910390fd5b505050505050505050565b600073ffffffffffffffffffffffffffffffffffffffff168173ffffffffffffffffffffffffffffffffffffffff1614156175d757600080fd5b8073ffffffffffffffffffffffffffffffffffffffff166000809054906101000a900473ffffffffffffffffffffffffffffffffffffffff1673ffffffffffffffffffffffffffffffffffffffff167f8be0079c531659141344cd1fd0a4f28419497f9722a3daafe3b4186f6b6457e060405160405180910390a3806000806101000a81548173ffffffffffffffffffffffffffffffffffffffff021916908373ffffffffffffffffffffffffffffffffffffffff16021790555050565b6000828211156176a457600080fd5b60008284039050809150509291505056fe44657374696e6174696f6e20686173206e6f74206265656e207365742062792066726f6d20746f6b656e686f6c6465722e54686520726563697069656e742045494e20646f6573206e6f742065786973742e546865206d73672e73656e646572206973206e6f7420612050726f766964657220666f7220746865207061737365642045494e5265736f6c76657220686173206e6f74206265656e207365742062792066726f6d20746f6b656e686f6c6465722e43616e6e6f74207472616e7366657220746f2074686520536e6f77666c616b6520736d61727420636f6e747261637420697473656c662e4964656e7469747920686173206e6f74207365742074686973207265736f6c7665722e4920617574686f72697a652074686174207468657365205265736f6c766572732062652072656d6f7665642066726f6d206d79204964656e746974792e4920617574686f72697a6520746861742074686973207265736f6c76657220626520616464656420746f206d79204964656e746974792e4964656e746974792068617320616c7265616479207365742074686973207265736f6c7665722e4920617574686f72697a652074686973206368616e6765206f66205265636f7665727920416464726573732e53656e646572206973206e6f742074686520485944524f20746f6b656e20736d61727420636f6e74726163742e4920617574686f72697a6520746861742074686573652050726f7669646572732062652072656d6f7665642066726f6d206d79204964656e746974792e556e61626c6520746f207472616e7366657220746f6b656e206f776e6572736869702e43616e6e6f74207769746864726177206d6f7265207468616e207468652063757272656e74206465706f7369742062616c616e63652e4964656e7469747920686173206e6f7420796574207365742074686973207265736f6c7665722e4920617574686f72697a6520746861742074686573652050726f76696465727320626520616464656420746f206d79204964656e746974792e4920617574686f72697a652074686973206368616e676520696e205265736f6c76657220616c6c6f77616e6365732ea265627a7a72315820885de71f689c3a4ea342248acf63ab524a9769f57d7ccc0ba9c494a653712cfd64736f6c63430005100032",
  "source": "pragma solidity ^0.5.0;\n\nimport \"./zeppelin/ownership/Ownable.sol\";\nimport \"./zeppelin/math/SafeMath.sol\";\n\nimport \"./interfaces/HydroInterface.sol\";\nimport \"./interfaces/SnowflakeResolverInterface.sol\";\nimport \"./interfaces/SnowflakeViaInterface.sol\";\nimport \"./interfaces/IdentityRegistryInterface.sol\";\nimport \"./interfaces/ClientRaindropInterface.sol\";\n\ncontract Snowflake is Ownable {\n    using SafeMath for uint;\n\n    // mapping of EIN to hydro token deposits\n    mapping (uint => uint) public deposits;\n    // mapping from EIN to resolver to allowance\n    mapping (uint => mapping (address => uint)) public resolverAllowances;\n\n    // SC variables\n    address public identityRegistryAddress;\n    IdentityRegistryInterface private identityRegistry;\n    address public hydroTokenAddress;\n    HydroInterface private hydroToken;\n    address public clientRaindropAddress;\n    ClientRaindropInterface private clientRaindrop;\n\n    // signature variables\n    uint public signatureTimeout = 1 days;\n    mapping (uint => uint) public signatureNonce;\n\n    constructor (address _identityRegistryAddress, address _hydroTokenAddress) public {\n        setAddresses(_identityRegistryAddress, _hydroTokenAddress);\n    }\n\n    // enforces that a particular EIN exists\n    modifier identityExists(uint ein, bool check) {\n        require(identityRegistry.identityExists(ein) == check, \"The EIN does not exist.\");\n        _;\n    }\n\n    // enforces signature timeouts\n    modifier ensureSignatureTimeValid(uint timestamp) {\n        require(\n            // solium-disable-next-line security/no-block-members\n            block.timestamp >= timestamp && block.timestamp < timestamp + signatureTimeout, \"Timestamp is not valid.\"\n        );\n        _;\n    }\n\n\n    // set the hydro token and identity registry addresses\n    function setAddresses(address _identityRegistryAddress, address _hydroTokenAddress) public onlyOwner {\n        identityRegistryAddress = _identityRegistryAddress;\n        identityRegistry = IdentityRegistryInterface(identityRegistryAddress);\n\n        hydroTokenAddress = _hydroTokenAddress;\n        hydroToken = HydroInterface(hydroTokenAddress);\n    }\n\n    function setClientRaindropAddress(address _clientRaindropAddress) public onlyOwner {\n        clientRaindropAddress = _clientRaindropAddress;\n        clientRaindrop = ClientRaindropInterface(clientRaindropAddress);\n    }\n\n    // wrap createIdentityDelegated and initialize the client raindrop resolver\n    function createIdentityDelegated(\n        address recoveryAddress, address associatedAddress, address[] memory providers, string memory casedHydroId,\n        uint8 v, bytes32 r, bytes32 s, uint timestamp\n    )\n        public returns (uint ein)\n    {\n        address[] memory _providers = new address[](providers.length + 1);\n        _providers[0] = address(this);\n        for (uint i; i < providers.length; i++) {\n            _providers[i + 1] = providers[i];\n        }\n\n        uint _ein = identityRegistry.createIdentityDelegated(\n            recoveryAddress, associatedAddress, _providers, new address[](0), v, r, s, timestamp\n        );\n\n        _addResolver(_ein, clientRaindropAddress, true, 0, abi.encode(associatedAddress, casedHydroId));\n\n        return _ein;\n    }\n\n    // permission addProvidersFor by signature\n    function addProvidersFor(\n        address approvingAddress, address[] memory providers, uint8 v, bytes32 r, bytes32 s, uint timestamp\n    )\n        public ensureSignatureTimeValid(timestamp)\n    {\n        uint ein = identityRegistry.getEIN(approvingAddress);\n        require(\n            identityRegistry.isSigned(\n                approvingAddress,\n                keccak256(\n                    abi.encodePacked(\n                        byte(0x19), byte(0), address(this),\n                        \"I authorize that these Providers be added to my Identity.\",\n                        ein, providers, timestamp\n                    )\n                ),\n                v, r, s\n            ),\n            \"Permission denied.\"\n        );\n\n        identityRegistry.addProvidersFor(ein, providers);\n    }\n\n    // permission removeProvidersFor by signature\n    function removeProvidersFor(\n        address approvingAddress, address[] memory providers, uint8 v, bytes32 r, bytes32 s, uint timestamp\n    )\n        public ensureSignatureTimeValid(timestamp)\n    {\n        uint ein = identityRegistry.getEIN(approvingAddress);\n        require(\n            identityRegistry.isSigned(\n                approvingAddress,\n                keccak256(\n                    abi.encodePacked(\n                        byte(0x19), byte(0), address(this),\n                        \"I authorize that these Providers be removed from my Identity.\",\n                        ein, providers, timestamp\n                    )\n                ),\n                v, r, s\n            ),\n            \"Permission denied.\"\n        );\n\n        identityRegistry.removeProvidersFor(ein, providers);\n    }\n\n    // permissioned addProvidersFor and removeProvidersFor by signature\n    function upgradeProvidersFor(\n        address approvingAddress, address[] memory newProviders, address[] memory oldProviders,\n        uint8[2] memory v, bytes32[2] memory r, bytes32[2] memory s, uint[2] memory timestamp\n    )\n        public\n    {\n        addProvidersFor(approvingAddress, newProviders, v[0], r[0], s[0], timestamp[0]);\n        removeProvidersFor(approvingAddress, oldProviders, v[1], r[1], s[1], timestamp[1]);\n        uint ein = identityRegistry.getEIN(approvingAddress);\n        emit SnowflakeProvidersUpgraded(ein, newProviders, oldProviders, approvingAddress);\n    }\n\n    // permission adding a resolver for identity of msg.sender\n    function addResolver(address resolver, bool isSnowflake, uint withdrawAllowance, bytes memory extraData) public {\n        _addResolver(identityRegistry.getEIN(msg.sender), resolver, isSnowflake, withdrawAllowance, extraData);\n    }\n\n    // permission adding a resolver for identity passed by a provider\n    function addResolverAsProvider(\n        uint ein, address resolver, bool isSnowflake, uint withdrawAllowance, bytes memory extraData\n    )\n        public\n    {\n        require(identityRegistry.isProviderFor(ein, msg.sender), \"The msg.sender is not a Provider for the passed EIN\");\n        _addResolver(ein, resolver, isSnowflake, withdrawAllowance, extraData);\n    }\n\n    // permission addResolversFor by signature\n    function addResolverFor(\n        address approvingAddress, address resolver, bool isSnowflake, uint withdrawAllowance, bytes memory extraData,\n        uint8 v, bytes32 r, bytes32 s, uint timestamp\n    )\n        public\n    {\n        uint ein = identityRegistry.getEIN(approvingAddress);\n\n        validateAddResolverForSignature(\n            approvingAddress, ein, resolver, isSnowflake, withdrawAllowance, extraData, v, r, s, timestamp\n        );\n\n        _addResolver(ein, resolver, isSnowflake, withdrawAllowance, extraData);\n    }\n\n    function validateAddResolverForSignature(\n        address approvingAddress, uint ein,\n        address resolver, bool isSnowflake, uint withdrawAllowance, bytes memory extraData,\n        uint8 v, bytes32 r, bytes32 s, uint timestamp\n    )\n        private view ensureSignatureTimeValid(timestamp)\n    {\n        require(\n            identityRegistry.isSigned(\n                approvingAddress,\n                keccak256(\n                    abi.encodePacked(\n                        byte(0x19), byte(0), address(this),\n                        \"I authorize that this resolver be added to my Identity.\",\n                        ein, resolver, isSnowflake, withdrawAllowance, extraData, timestamp\n                    )\n                ),\n                v, r, s\n            ),\n            \"Permission denied.\"\n        );\n    }\n\n    // common logic for adding resolvers\n    function _addResolver(uint ein, address resolver, bool isSnowflake, uint withdrawAllowance, bytes memory extraData)\n        private\n    {\n        require(!identityRegistry.isResolverFor(ein, resolver), \"Identity has already set this resolver.\");\n\n        address[] memory resolvers = new address[](1);\n        resolvers[0] = resolver;\n        identityRegistry.addResolversFor(ein, resolvers);\n\n        if (isSnowflake) {\n            resolverAllowances[ein][resolver] = withdrawAllowance;\n            SnowflakeResolverInterface snowflakeResolver = SnowflakeResolverInterface(resolver);\n            if (snowflakeResolver.callOnAddition())\n                require(snowflakeResolver.onAddition(ein, withdrawAllowance, extraData), \"Sign up failure.\");\n            emit SnowflakeResolverAdded(ein, resolver, withdrawAllowance);\n        }\n    }\n\n    // permission changing resolver allowances for identity of msg.sender\n    function changeResolverAllowances(address[] memory resolvers, uint[] memory withdrawAllowances) public {\n        changeResolverAllowances(identityRegistry.getEIN(msg.sender), resolvers, withdrawAllowances);\n    }\n\n    // change resolver allowances delegated\n    function changeResolverAllowancesDelegated(\n        address approvingAddress, address[] memory resolvers, uint[] memory withdrawAllowances,\n        uint8 v, bytes32 r, bytes32 s\n    )\n        public\n    {\n        uint ein = identityRegistry.getEIN(approvingAddress);\n\n        uint nonce = signatureNonce[ein]++;\n        require(\n            identityRegistry.isSigned(\n                approvingAddress,\n                keccak256(\n                    abi.encodePacked(\n                        byte(0x19), byte(0), address(this),\n                        \"I authorize this change in Resolver allowances.\",\n                        ein, resolvers, withdrawAllowances, nonce\n                    )\n                ),\n                v, r, s\n            ),\n            \"Permission denied.\"\n        );\n\n        changeResolverAllowances(ein, resolvers, withdrawAllowances);\n    }\n\n    // common logic to change resolver allowances\n    function changeResolverAllowances(uint ein, address[] memory resolvers, uint[] memory withdrawAllowances) private {\n        require(resolvers.length == withdrawAllowances.length, \"Malformed inputs.\");\n\n        for (uint i; i < resolvers.length; i++) {\n            require(identityRegistry.isResolverFor(ein, resolvers[i]), \"Identity has not set this resolver.\");\n            resolverAllowances[ein][resolvers[i]] = withdrawAllowances[i];\n            emit SnowflakeResolverAllowanceChanged(ein, resolvers[i], withdrawAllowances[i]);\n        }\n    }\n\n    // permission removing a resolver for identity of msg.sender\n    function removeResolver(address resolver, bool isSnowflake, bytes memory extraData) public {\n        removeResolver(identityRegistry.getEIN(msg.sender), resolver, isSnowflake, extraData);\n    }\n\n    // permission removeResolverFor by signature\n    function removeResolverFor(\n        address approvingAddress, address resolver, bool isSnowflake, bytes memory extraData,\n        uint8 v, bytes32 r, bytes32 s, uint timestamp\n    )\n        public ensureSignatureTimeValid(timestamp)\n    {\n        uint ein = identityRegistry.getEIN(approvingAddress);\n\n        validateRemoveResolverForSignature(approvingAddress, ein, resolver, isSnowflake, extraData, v, r, s, timestamp);\n\n        removeResolver(ein, resolver, isSnowflake, extraData);\n    }\n\n    function validateRemoveResolverForSignature(\n        address approvingAddress, uint ein, address resolver, bool isSnowflake, bytes memory extraData,\n        uint8 v, bytes32 r, bytes32 s, uint timestamp\n    )\n        private view\n    {\n        require(\n            identityRegistry.isSigned(\n                approvingAddress,\n                keccak256(\n                    abi.encodePacked(\n                        byte(0x19), byte(0), address(this),\n                        \"I authorize that these Resolvers be removed from my Identity.\",\n                        ein, resolver, isSnowflake, extraData, timestamp\n                    )\n                ),\n                v, r, s\n            ),\n            \"Permission denied.\"\n        );\n    }\n\n    // common logic to remove resolvers\n    function removeResolver(uint ein, address resolver, bool isSnowflake, bytes memory extraData) private {\n        require(identityRegistry.isResolverFor(ein, resolver), \"Identity has not yet set this resolver.\");\n    \n        delete resolverAllowances[ein][resolver];\n    \n        if (isSnowflake) {\n            SnowflakeResolverInterface snowflakeResolver = SnowflakeResolverInterface(resolver);\n            if (snowflakeResolver.callOnRemoval())\n                require(snowflakeResolver.onRemoval(ein, extraData), \"Removal failure.\");\n            emit SnowflakeResolverRemoved(ein, resolver);\n        }\n\n        address[] memory resolvers = new address[](1);\n        resolvers[0] = resolver;\n        identityRegistry.removeResolversFor(ein, resolvers);\n    }\n\n    function triggerRecoveryAddressChangeFor(\n        address approvingAddress, address newRecoveryAddress, uint8 v, bytes32 r, bytes32 s\n    )\n        public\n    {\n        uint ein = identityRegistry.getEIN(approvingAddress);\n        uint nonce = signatureNonce[ein]++;\n        require(\n            identityRegistry.isSigned(\n                approvingAddress,\n                keccak256(\n                    abi.encodePacked(\n                        byte(0x19), byte(0), address(this),\n                        \"I authorize this change of Recovery Address.\",\n                        ein, newRecoveryAddress, nonce\n                    )\n                ),\n                v, r, s\n            ),\n            \"Permission denied.\"\n        );\n\n        identityRegistry.triggerRecoveryAddressChangeFor(ein, newRecoveryAddress);\n    }\n\n    // allow contract to receive HYDRO tokens\n    function receiveApproval(address sender, uint amount, address _tokenAddress, bytes memory _bytes) public {\n        require(msg.sender == _tokenAddress, \"Malformed inputs.\");\n        require(_tokenAddress == hydroTokenAddress, \"Sender is not the HYDRO token smart contract.\");\n\n        // depositing to an EIN\n        if (_bytes.length <= 32) {\n            require(hydroToken.transferFrom(sender, address(this), amount), \"Unable to transfer token ownership.\");\n            uint recipient;\n            if (_bytes.length < 32) {\n                recipient = identityRegistry.getEIN(sender);\n            }\n            else {\n                recipient = abi.decode(_bytes, (uint));\n                require(identityRegistry.identityExists(recipient), \"The recipient EIN does not exist.\");\n            }\n            deposits[recipient] = deposits[recipient].add(amount);\n            emit SnowflakeDeposit(sender, recipient, amount);\n        }\n        // transferring to a via\n        else {\n            (\n                bool isTransfer, address resolver, address via, uint to, bytes memory snowflakeCallBytes\n            ) = abi.decode(_bytes, (bool, address, address, uint, bytes));\n            \n            require(hydroToken.transferFrom(sender, via, amount), \"Unable to transfer token ownership.\");\n\n            SnowflakeViaInterface viaContract = SnowflakeViaInterface(via);\n            if (isTransfer) {\n                viaContract.snowflakeCall(resolver, to, amount, snowflakeCallBytes);\n                emit SnowflakeTransferToVia(resolver, via, to, amount);\n            } else {\n                address payable payableTo = address(to);\n                viaContract.snowflakeCall(resolver, payableTo, amount, snowflakeCallBytes);\n                emit SnowflakeWithdrawToVia(resolver, via, address(to), amount);\n            }\n        }\n    }\n\n    // transfer snowflake balance from one snowflake holder to another\n    function transferSnowflakeBalance(uint einTo, uint amount) public {\n        _transfer(identityRegistry.getEIN(msg.sender), einTo, amount);\n    }\n\n    // withdraw Snowflake balance to an external address\n    function withdrawSnowflakeBalance(address to, uint amount) public {\n        _withdraw(identityRegistry.getEIN(msg.sender), to, amount);\n    }\n\n    // allows resolvers to transfer allowance amounts to other snowflakes (throws if unsuccessful)\n    function transferSnowflakeBalanceFrom(uint einFrom, uint einTo, uint amount) public {\n        handleAllowance(einFrom, amount);\n        _transfer(einFrom, einTo, amount);\n        emit SnowflakeTransferFrom(msg.sender);\n    }\n\n    // allows resolvers to withdraw allowance amounts to external addresses (throws if unsuccessful)\n    function withdrawSnowflakeBalanceFrom(uint einFrom, address to, uint amount) public {\n        handleAllowance(einFrom, amount);\n        _withdraw(einFrom, to, amount);\n        emit SnowflakeWithdrawFrom(msg.sender);\n    }\n\n    // allows resolvers to send withdrawal amounts to arbitrary smart contracts 'to' identities (throws if unsuccessful)\n    function transferSnowflakeBalanceFromVia(uint einFrom, address via, uint einTo, uint amount, bytes memory _bytes)\n        public\n    {\n        handleAllowance(einFrom, amount);\n        _withdraw(einFrom, via, amount);\n        SnowflakeViaInterface viaContract = SnowflakeViaInterface(via);\n        viaContract.snowflakeCall(msg.sender, einFrom, einTo, amount, _bytes);\n        emit SnowflakeTransferFromVia(msg.sender, einTo);\n    }\n\n    // allows resolvers to send withdrawal amounts 'to' addresses via arbitrary smart contracts\n    function withdrawSnowflakeBalanceFromVia(\n        uint einFrom, address via, address payable to, uint amount, bytes memory _bytes\n    )\n        public\n    {\n        handleAllowance(einFrom, amount);\n        _withdraw(einFrom, via, amount);\n        SnowflakeViaInterface viaContract = SnowflakeViaInterface(via);\n        viaContract.snowflakeCall(msg.sender, einFrom, to, amount, _bytes);\n        emit SnowflakeWithdrawFromVia(msg.sender, to);\n    }\n\n    function _transfer(uint einFrom, uint einTo, uint amount) private identityExists(einTo, true) returns (bool) {\n        require(deposits[einFrom] >= amount, \"Cannot withdraw more than the current deposit balance.\");\n        deposits[einFrom] = deposits[einFrom].sub(amount);\n        deposits[einTo] = deposits[einTo].add(amount);\n\n        emit SnowflakeTransfer(einFrom, einTo, amount);\n    }\n\n    function _withdraw(uint einFrom, address to, uint amount) internal {\n        require(to != address(this), \"Cannot transfer to the Snowflake smart contract itself.\");\n\n        require(deposits[einFrom] >= amount, \"Cannot withdraw more than the current deposit balance.\");\n        deposits[einFrom] = deposits[einFrom].sub(amount);\n        require(hydroToken.transfer(to, amount), \"Transfer was unsuccessful\");\n\n        emit SnowflakeWithdraw(einFrom, to, amount);\n    }\n\n    function handleAllowance(uint einFrom, uint amount) internal {\n        // check that resolver-related details are correct\n        require(identityRegistry.isResolverFor(einFrom, msg.sender), \"Resolver has not been set by from tokenholder.\");\n\n        if (resolverAllowances[einFrom][msg.sender] < amount) {\n            emit SnowflakeInsufficientAllowance(einFrom, msg.sender, resolverAllowances[einFrom][msg.sender], amount);\n            revert(\"Insufficient Allowance\");\n        }\n\n        resolverAllowances[einFrom][msg.sender] = resolverAllowances[einFrom][msg.sender].sub(amount);\n    }\n\n    // allowAndCall from msg.sender\n    function allowAndCall(address destination, uint amount, bytes memory data)\n        public returns (bytes memory returnData)\n    {\n        return allowAndCall(identityRegistry.getEIN(msg.sender), amount, destination, data);\n    }\n\n    // allowAndCall from approvingAddress with meta-transaction\n    function allowAndCallDelegated(\n        address destination, uint amount, bytes memory data, address approvingAddress, uint8 v, bytes32 r, bytes32 s\n    )\n        public returns (bytes memory returnData)\n    {\n        uint ein = identityRegistry.getEIN(approvingAddress);\n        uint nonce = signatureNonce[ein]++;\n        validateAllowAndCallDelegatedSignature(approvingAddress, ein, destination, amount, data, nonce, v, r, s);\n\n        return allowAndCall(ein, amount, destination, data);\n    }\n\n    function validateAllowAndCallDelegatedSignature(\n        address approvingAddress, uint ein, address destination, uint amount, bytes memory data, uint nonce,\n        uint8 v, bytes32 r, bytes32 s\n    )\n        private view\n    {\n        require(\n            identityRegistry.isSigned(\n                approvingAddress,\n                keccak256(\n                    abi.encodePacked(\n                        byte(0x19), byte(0), address(this),\n                        \"I authorize this allow and call.\", ein, destination, amount, data, nonce\n                    )\n                ),\n                v, r, s\n            ),\n            \"Permission denied.\"\n        );\n    }\n\n    // internal logic for allowAndCall\n    function allowAndCall(uint ein, uint amount, address destination, bytes memory data)\n        private returns (bytes memory returnData)\n    {\n        // check that resolver-related details are correct\n        require(identityRegistry.isResolverFor(ein, destination), \"Destination has not been set by from tokenholder.\");\n        if (amount != 0) {\n            resolverAllowances[ein][destination] = resolverAllowances[ein][destination].add(amount);\n        }\n\n        // solium-disable-next-line security/no-low-level-calls\n        (bool success, bytes memory _returnData) = destination.call(data);\n        require(success, \"Call was not successful.\");\n        return _returnData;\n    }\n\n    // events\n    event SnowflakeProvidersUpgraded(uint indexed ein, address[] newProviders, address[] oldProviders, address approvingAddress);\n\n    event SnowflakeResolverAdded(uint indexed ein, address indexed resolver, uint withdrawAllowance);\n    event SnowflakeResolverAllowanceChanged(uint indexed ein, address indexed resolver, uint withdrawAllowance);\n    event SnowflakeResolverRemoved(uint indexed ein, address indexed resolver);\n\n    event SnowflakeDeposit(address indexed from, uint indexed einTo, uint amount);\n    event SnowflakeTransfer(uint indexed einFrom, uint indexed einTo, uint amount);\n    event SnowflakeWithdraw(uint indexed einFrom, address indexed to, uint amount);\n\n    event SnowflakeTransferFrom(address indexed resolverFrom);\n    event SnowflakeWithdrawFrom(address indexed resolverFrom);\n    event SnowflakeTransferFromVia(address indexed resolverFrom, uint indexed einTo);\n    event SnowflakeWithdrawFromVia(address indexed resolverFrom, address indexed to);\n    event SnowflakeTransferToVia(address indexed resolverFrom, address indexed via, uint indexed einTo, uint amount);\n    event SnowflakeWithdrawToVia(address indexed resolverFrom, address indexed via, address indexed to, uint amount);\n\n    event SnowflakeInsufficientAllowance(\n        uint indexed ein, address indexed resolver, uint currentAllowance, uint requestedWithdraw\n    );\n}\n",
  "sourcePath": "/home/null/Documents/VoteDapp/contracts/Snowflake.sol",
  "compiler": {
    "name": "solc",
    "version": "0.5.16+commit.9c3226ce.Emscripten.clang"
  },
  "schemaVersion": "3.0.23",
  "updatedAt": "2020-10-03T12:02:50.156Z",
  "devdoc": {
    "methods": {
      "isOwner()": {
        "return": "true if `msg.sender` is the owner of the contract."
      },
      "owner()": {
        "return": "the address of the owner."
      },
      "renounceOwnership()": {
        "details": "Allows the current owner to relinquish control of the contract."
      },
      "transferOwnership(address)": {
        "details": "Allows the current owner to transfer control of the contract to a newOwner.",
        "params": {
          "newOwner": "The address to transfer ownership to."
        }
      }
    }
  },
  "userdoc": {
    "methods": {
      "renounceOwnership()": {
        "notice": "Renouncing to ownership will leave the contract without an owner. It will not be possible to call the functions with the `onlyOwner` modifier anymore."
      }
    }
  }
}